{"contracts/core/UserIdentityNFT.sol":{"UserIdentityNFT":{"abi":[{"inputs":[{"internalType":"string","name":"name","type":"string"},{"internalType":"string","name":"symbol","type":"string"},{"internalType":"string","name":"signingDomain","type":"string"},{"internalType":"string","name":"signatureVersion","type":"string"}],"stateMutability":"nonpayable","type":"constructor"},{"anonymous":false,"inputs":[{"indexed":true,"internalType":"address","name":"owner","type":"address"},{"indexed":true,"internalType":"address","name":"approved","type":"address"},{"indexed":true,"internalType":"uint256","name":"tokenId","type":"uint256"}],"name":"Approval","type":"event"},{"anonymous":false,"inputs":[{"indexed":true,"internalType":"address","name":"owner","type":"address"},{"indexed":true,"internalType":"address","name":"operator","type":"address"},{"indexed":false,"internalType":"bool","name":"approved","type":"bool"}],"name":"ApprovalForAll","type":"event"},{"anonymous":false,"inputs":[{"indexed":false,"internalType":"address","name":"userAddres","type":"address"},{"indexed":true,"internalType":"uint256","name":"tokenId","type":"uint256"}],"name":"MintNft","type":"event"},{"anonymous":false,"inputs":[{"indexed":false,"internalType":"address","name":"userAddres","type":"address"}],"name":"Redeem","type":"event"},{"anonymous":false,"inputs":[{"indexed":true,"internalType":"address","name":"from","type":"address"},{"indexed":true,"internalType":"address","name":"to","type":"address"},{"indexed":true,"internalType":"uint256","name":"tokenId","type":"uint256"}],"name":"Transfer","type":"event"},{"inputs":[],"name":"CLAME_USERID_VOUCHER","outputs":[{"internalType":"bytes32","name":"","type":"bytes32"}],"stateMutability":"view","type":"function"},{"inputs":[{"internalType":"address","name":"to","type":"address"},{"internalType":"uint256","name":"tokenId","type":"uint256"}],"name":"approve","outputs":[],"stateMutability":"nonpayable","type":"function"},{"inputs":[{"internalType":"address","name":"owner","type":"address"}],"name":"balanceOf","outputs":[{"internalType":"uint256","name":"","type":"uint256"}],"stateMutability":"view","type":"function"},{"inputs":[{"components":[{"internalType":"string","name":"uri","type":"string"},{"internalType":"bytes","name":"userId","type":"bytes"},{"internalType":"bytes","name":"fingerPrint","type":"bytes"},{"internalType":"bytes","name":"signature","type":"bytes"}],"internalType":"struct UserIdVoucher","name":"voucher","type":"tuple"}],"name":"createSingleNFT","outputs":[],"stateMutability":"nonpayable","type":"function"},{"inputs":[{"internalType":"uint256","name":"tokenId","type":"uint256"}],"name":"getApproved","outputs":[{"internalType":"address","name":"","type":"address"}],"stateMutability":"view","type":"function"},{"inputs":[],"name":"getIdCount","outputs":[{"internalType":"uint256","name":"","type":"uint256"}],"stateMutability":"view","type":"function"},{"inputs":[{"internalType":"address","name":"owner","type":"address"},{"internalType":"address","name":"operator","type":"address"}],"name":"isApprovedForAll","outputs":[{"internalType":"bool","name":"","type":"bool"}],"stateMutability":"view","type":"function"},{"inputs":[],"name":"name","outputs":[{"internalType":"string","name":"","type":"string"}],"stateMutability":"view","type":"function"},{"inputs":[{"internalType":"uint256","name":"tokenId","type":"uint256"}],"name":"ownerOf","outputs":[{"internalType":"address","name":"","type":"address"}],"stateMutability":"view","type":"function"},{"inputs":[{"components":[{"internalType":"string","name":"uri","type":"string"},{"internalType":"bytes","name":"userId","type":"bytes"},{"internalType":"bytes","name":"fingerPrint","type":"bytes"},{"internalType":"bytes","name":"signature","type":"bytes"}],"internalType":"struct UserIdVoucher[]","name":"voucher","type":"tuple[]"}],"name":"redeem","outputs":[],"stateMutability":"nonpayable","type":"function"},{"inputs":[{"internalType":"address","name":"from","type":"address"},{"internalType":"address","name":"to","type":"address"},{"internalType":"uint256","name":"tokenId","type":"uint256"}],"name":"safeTransferFrom","outputs":[],"stateMutability":"nonpayable","type":"function"},{"inputs":[{"internalType":"address","name":"from","type":"address"},{"internalType":"address","name":"to","type":"address"},{"internalType":"uint256","name":"tokenId","type":"uint256"},{"internalType":"bytes","name":"data","type":"bytes"}],"name":"safeTransferFrom","outputs":[],"stateMutability":"nonpayable","type":"function"},{"inputs":[{"internalType":"address","name":"operator","type":"address"},{"internalType":"bool","name":"approved","type":"bool"}],"name":"setApprovalForAll","outputs":[],"stateMutability":"nonpayable","type":"function"},{"inputs":[{"internalType":"bytes4","name":"interfaceId","type":"bytes4"}],"name":"supportsInterface","outputs":[{"internalType":"bool","name":"","type":"bool"}],"stateMutability":"view","type":"function"},{"inputs":[],"name":"symbol","outputs":[{"internalType":"string","name":"","type":"string"}],"stateMutability":"view","type":"function"},{"inputs":[{"internalType":"uint256","name":"tokenId","type":"uint256"}],"name":"tokenURI","outputs":[{"internalType":"string","name":"","type":"string"}],"stateMutability":"view","type":"function"},{"inputs":[{"internalType":"address","name":"from","type":"address"},{"internalType":"address","name":"to","type":"address"},{"internalType":"uint256","name":"tokenId","type":"uint256"}],"name":"transferFrom","outputs":[],"stateMutability":"nonpayable","type":"function"},{"inputs":[{"components":[{"internalType":"string","name":"uri","type":"string"},{"internalType":"bytes","name":"userId","type":"bytes"},{"internalType":"bytes","name":"fingerPrint","type":"bytes"},{"internalType":"bytes","name":"signature","type":"bytes"}],"internalType":"struct UserIdVoucher","name":"voucher","type":"tuple"}],"name":"verifySignature","outputs":[{"internalType":"address","name":"","type":"address"}],"stateMutability":"view","type":"function"}],"devdoc":{"kind":"dev","methods":{"approve(address,uint256)":{"details":"See {IERC721-approve}."},"balanceOf(address)":{"details":"See {IERC721-balanceOf}."},"getApproved(uint256)":{"details":"See {IERC721-getApproved}."},"isApprovedForAll(address,address)":{"details":"See {IERC721-isApprovedForAll}."},"name()":{"details":"See {IERC721Metadata-name}."},"ownerOf(uint256)":{"details":"See {IERC721-ownerOf}."},"safeTransferFrom(address,address,uint256)":{"details":"See {IERC721-safeTransferFrom}."},"safeTransferFrom(address,address,uint256,bytes)":{"details":"See {IERC721-safeTransferFrom}."},"setApprovalForAll(address,bool)":{"details":"See {IERC721-setApprovalForAll}."},"supportsInterface(bytes4)":{"details":"See {IERC165-supportsInterface}."},"symbol()":{"details":"See {IERC721Metadata-symbol}."},"tokenURI(uint256)":{"details":"See {IERC721Metadata-tokenURI}."},"transferFrom(address,address,uint256)":{"details":"See {IERC721-transferFrom}."},"verifySignature((string,bytes,bytes,bytes))":{"details":"Will revert if the signature is invalid. Does not verify that the signer is authorized to mint NFTs.","params":{"voucher":"An NFTVoucher describing an unminted NFT."}}},"version":1},"evm":{"bytecode":{"linkReferences":{},"object":"6101406040523480156200001257600080fd5b50604051620042f2380380620042f28339818101604052810190620000389190620002f5565b8181858581600090816200004d91906200062e565b5080600190816200005f91906200062e565b505050600160078190555060008280519060200120905060008280519060200120905060007f8b73c3c69bb8fe3d512ecc4cf759cc79239f7b179b0ffacaa9a75d522b39400f90508260e081815250508161010081815250504660a08181525050620000d38184846200012660201b60201c565b608081815250503073ffffffffffffffffffffffffffffffffffffffff1660c08173ffffffffffffffffffffffffffffffffffffffff1681525050806101208181525050505050505050505050620007e3565b600083838346306040516020016200014395949392919062000786565b6040516020818303038152906040528051906020012090509392505050565b6000604051905090565b600080fd5b600080fd5b600080fd5b600080fd5b6000601f19601f8301169050919050565b7f4e487b7100000000000000000000000000000000000000000000000000000000600052604160045260246000fd5b620001cb8262000180565b810181811067ffffffffffffffff82111715620001ed57620001ec62000191565b5b80604052505050565b60006200020262000162565b9050620002108282620001c0565b919050565b600067ffffffffffffffff82111562000233576200023262000191565b5b6200023e8262000180565b9050602081019050919050565b60005b838110156200026b5780820151818401526020810190506200024e565b60008484015250505050565b60006200028e620002888462000215565b620001f6565b905082815260208101848484011115620002ad57620002ac6200017b565b5b620002ba8482856200024b565b509392505050565b600082601f830112620002da57620002d962000176565b5b8151620002ec84826020860162000277565b91505092915050565b600080600080608085870312156200031257620003116200016c565b5b600085015167ffffffffffffffff81111562000333576200033262000171565b5b6200034187828801620002c2565b945050602085015167ffffffffffffffff81111562000365576200036462000171565b5b6200037387828801620002c2565b935050604085015167ffffffffffffffff81111562000397576200039662000171565b5b620003a587828801620002c2565b925050606085015167ffffffffffffffff811115620003c957620003c862000171565b5b620003d787828801620002c2565b91505092959194509250565b600081519050919050565b7f4e487b7100000000000000000000000000000000000000000000000000000000600052602260045260246000fd5b600060028204905060018216806200043657607f821691505b6020821081036200044c576200044b620003ee565b5b50919050565b60008190508160005260206000209050919050565b60006020601f8301049050919050565b600082821b905092915050565b600060088302620004b67fffffffffffffffffffffffffffffffffffffffffffffffffffffffffffffffff8262000477565b620004c2868362000477565b95508019841693508086168417925050509392505050565b6000819050919050565b6000819050919050565b60006200050f620005096200050384620004da565b620004e4565b620004da565b9050919050565b6000819050919050565b6200052b83620004ee565b620005436200053a8262000516565b84845462000484565b825550505050565b600090565b6200055a6200054b565b6200056781848462000520565b505050565b5b818110156200058f576200058360008262000550565b6001810190506200056d565b5050565b601f821115620005de57620005a88162000452565b620005b38462000467565b81016020851015620005c3578190505b620005db620005d28562000467565b8301826200056c565b50505b505050565b600082821c905092915050565b60006200060360001984600802620005e3565b1980831691505092915050565b60006200061e8383620005f0565b9150826002028217905092915050565b6200063982620003e3565b67ffffffffffffffff81111562000655576200065462000191565b5b6200066182546200041d565b6200066e82828562000593565b600060209050601f831160018114620006a6576000841562000691578287015190505b6200069d858262000610565b8655506200070d565b601f198416620006b68662000452565b60005b82811015620006e057848901518255600182019150602085019450602081019050620006b9565b86831015620007005784890151620006fc601f891682620005f0565b8355505b6001600288020188555050505b505050505050565b6000819050919050565b6200072a8162000715565b82525050565b6200073b81620004da565b82525050565b600073ffffffffffffffffffffffffffffffffffffffff82169050919050565b60006200076e8262000741565b9050919050565b620007808162000761565b82525050565b600060a0820190506200079d60008301886200071f565b620007ac60208301876200071f565b620007bb60408301866200071f565b620007ca606083018562000730565b620007d9608083018462000775565b9695505050505050565b60805160a05160c05160e0516101005161012051613abf620008336000396000611f0801526000611f4a01526000611f2901526000611e5e01526000611eb401526000611edd0152613abf6000f3fe608060405234801561001057600080fd5b50600436106101165760003560e01c806373f2d272116100a2578063b88d4fde11610071578063b88d4fde146102f1578063c87b56dd1461030d578063da08e7221461033d578063db5890ee14610359578063e985e9c51461037757610116565b806373f2d272146102695780638483de561461028757806395d89b41146102b7578063a22cb465146102d557610116565b806323b872dd116100e957806323b872dd146101b557806342842e0e146101d157806358bd72dc146101ed5780636352211e1461020957806370a082311461023957610116565b806301ffc9a71461011b57806306fdde031461014b578063081812fc14610169578063095ea7b314610199575b600080fd5b61013560048036038101906101309190612373565b6103a7565b60405161014291906123bb565b60405180910390f35b610153610489565b6040516101609190612466565b60405180910390f35b610183600480360381019061017e91906124be565b61051b565b604051610190919061252c565b60405180910390f35b6101b360048036038101906101ae9190612573565b610561565b005b6101cf60048036038101906101ca91906125b3565b610678565b005b6101eb60048036038101906101e691906125b3565b6106d8565b005b6102076004803603810190610202919061266b565b6106f8565b005b610223600480360381019061021e91906124be565b610884565b604051610230919061252c565b60405180910390f35b610253600480360381019061024e91906126b8565b61090a565b60405161026091906126f4565b60405180910390f35b6102716109c1565b60405161027e9190612728565b60405180910390f35b6102a1600480360381019061029c9190612767565b6109e4565b6040516102ae919061252c565b60405180910390f35b6102bf610a56565b6040516102cc9190612466565b60405180910390f35b6102ef60048036038101906102ea91906127dc565b610ae8565b005b61030b6004803603810190610306919061294c565b610afe565b005b610327600480360381019061032291906124be565b610b60565b6040516103349190612466565b60405180910390f35b61035760048036038101906103529190612767565b610b72565b005b610361610c4a565b60405161036e91906126f4565b60405180910390f35b610391600480360381019061038c91906129cf565b610c5b565b60405161039e91906123bb565b60405180910390f35b60007f80ac58cd000000000000000000000000000000000000000000000000000000007bffffffffffffffffffffffffffffffffffffffffffffffffffffffff1916827bffffffffffffffffffffffffffffffffffffffffffffffffffffffff1916148061047257507f5b5e139f000000000000000000000000000000000000000000000000000000007bffffffffffffffffffffffffffffffffffffffffffffffffffffffff1916827bffffffffffffffffffffffffffffffffffffffffffffffffffffffff1916145b80610482575061048182610cef565b5b9050919050565b60606000805461049890612a3e565b80601f01602080910402602001604051908101604052809291908181526020018280546104c490612a3e565b80156105115780601f106104e657610100808354040283529160200191610511565b820191906000526020600020905b8154815290600101906020018083116104f457829003601f168201915b5050505050905090565b600061052682610d59565b6004600083815260200190815260200160002060009054906101000a900473ffffffffffffffffffffffffffffffffffffffff169050919050565b600061056c82610884565b90508073ffffffffffffffffffffffffffffffffffffffff168373ffffffffffffffffffffffffffffffffffffffff16036105dc576040517f08c379a00000000000000000000000000000000000000000000000000000000081526004016105d390612ae1565b60405180910390fd5b8073ffffffffffffffffffffffffffffffffffffffff166105fb610da4565b73ffffffffffffffffffffffffffffffffffffffff16148061062a575061062981610624610da4565b610c5b565b5b610669576040517f08c379a000000000000000000000000000000000000000000000000000000000815260040161066090612b73565b60405180910390fd5b6106738383610dac565b505050565b610689610683610da4565b82610e65565b6106c8576040517f08c379a00000000000000000000000000000000000000000000000000000000081526004016106bf90612c05565b60405180910390fd5b6106d3838383610efa565b505050565b6106f383838360405180602001604052806000815250610afe565b505050565b6107006111f3565b60005b828290508163ffffffff16101561084057600061074984848463ffffffff1681811061073257610731612c25565b5b90506020028101906107449190612c63565b6109e4565b90506107556008611242565b60006107616008611258565b905061076d3382611266565b6107f38186868663ffffffff1681811061078a57610789612c25565b5b905060200281019061079c9190612c63565b80600001906107ab9190612c8b565b8080601f016020809104026020016040519081016040528093929190818152602001838380828437600081840152601f19601f82011690508083019250505050505050611483565b807f2fdf319518046f7b4ebc04a5ca363b42da5e87f5e8150935b3e4ef1ee4509e1a83604051610823919061252c565b60405180910390a25050808061083890612d2d565b915050610703565b507fd1b5ea7fe0f1c2fa09d49c2aa9b2200664ba57a734f1d95481d95b7f99af991c33604051610870919061252c565b60405180910390a16108806114f0565b5050565b600080610890836114fa565b9050600073ffffffffffffffffffffffffffffffffffffffff168173ffffffffffffffffffffffffffffffffffffffff1603610901576040517f08c379a00000000000000000000000000000000000000000000000000000000081526004016108f890612da5565b60405180910390fd5b80915050919050565b60008073ffffffffffffffffffffffffffffffffffffffff168273ffffffffffffffffffffffffffffffffffffffff160361097a576040517f08c379a000000000000000000000000000000000000000000000000000000000815260040161097190612e37565b60405180910390fd5b600360008373ffffffffffffffffffffffffffffffffffffffff1673ffffffffffffffffffffffffffffffffffffffff168152602001908152602001600020549050919050565b7e5165dbde6c98ff3dd217e399994c50c9b2dcb0e924050ef97159c4f0f162a681565b6000806109f083611537565b9050610a4e81848060600190610a069190612e57565b8080601f016020809104026020016040519081016040528093929190818152602001838380828437600081840152601f19601f82011690508083019250505050505050611603565b915050919050565b606060018054610a6590612a3e565b80601f0160208091040260200160405190810160405280929190818152602001828054610a9190612a3e565b8015610ade5780601f10610ab357610100808354040283529160200191610ade565b820191906000526020600020905b815481529060010190602001808311610ac157829003601f168201915b5050505050905090565b610afa610af3610da4565b838361162a565b5050565b610b0f610b09610da4565b83610e65565b610b4e576040517f08c379a0000000000000000000000000000000000000000000000000000000008152600401610b4590612c05565b60405180910390fd5b610b5a84848484611796565b50505050565b6060610b6b826117f2565b9050919050565b610b7a6111f3565b6000610b85826109e4565b9050610b916008611242565b6000610b9d6008611258565b9050610ba98282611266565b610c0581848060000190610bbd9190612c8b565b8080601f016020809104026020016040519081016040528093929190818152602001838380828437600081840152601f19601f82011690508083019250505050505050611483565b807f2fdf319518046f7b4ebc04a5ca363b42da5e87f5e8150935b3e4ef1ee4509e1a83604051610c35919061252c565b60405180910390a25050610c476114f0565b50565b6000610c566008611258565b905090565b6000600560008473ffffffffffffffffffffffffffffffffffffffff1673ffffffffffffffffffffffffffffffffffffffff16815260200190815260200160002060008373ffffffffffffffffffffffffffffffffffffffff1673ffffffffffffffffffffffffffffffffffffffff16815260200190815260200160002060009054906101000a900460ff16905092915050565b60007f01ffc9a7000000000000000000000000000000000000000000000000000000007bffffffffffffffffffffffffffffffffffffffffffffffffffffffff1916827bffffffffffffffffffffffffffffffffffffffffffffffffffffffff1916149050919050565b610d6281611904565b610da1576040517f08c379a0000000000000000000000000000000000000000000000000000000008152600401610d9890612da5565b60405180910390fd5b50565b600033905090565b816004600083815260200190815260200160002060006101000a81548173ffffffffffffffffffffffffffffffffffffffff021916908373ffffffffffffffffffffffffffffffffffffffff160217905550808273ffffffffffffffffffffffffffffffffffffffff16610e1f83610884565b73ffffffffffffffffffffffffffffffffffffffff167f8c5be1e5ebec7d5bd14f71427d1e84f3dd0314c0f7b2291e5b200ac8c7c3b92560405160405180910390a45050565b600080610e7183610884565b90508073ffffffffffffffffffffffffffffffffffffffff168473ffffffffffffffffffffffffffffffffffffffff161480610eb35750610eb28185610c5b565b5b80610ef157508373ffffffffffffffffffffffffffffffffffffffff16610ed98461051b565b73ffffffffffffffffffffffffffffffffffffffff16145b91505092915050565b8273ffffffffffffffffffffffffffffffffffffffff16610f1a82610884565b73ffffffffffffffffffffffffffffffffffffffff1614610f70576040517f08c379a0000000000000000000000000000000000000000000000000000000008152600401610f6790612f2c565b60405180910390fd5b600073ffffffffffffffffffffffffffffffffffffffff168273ffffffffffffffffffffffffffffffffffffffff1603610fdf576040517f08c379a0000000000000000000000000000000000000000000000000000000008152600401610fd690612fbe565b60405180910390fd5b610fec8383836001611945565b8273ffffffffffffffffffffffffffffffffffffffff1661100c82610884565b73ffffffffffffffffffffffffffffffffffffffff1614611062576040517f08c379a000000000000000000000000000000000000000000000000000000000815260040161105990612f2c565b60405180910390fd5b6004600082815260200190815260200160002060006101000a81549073ffffffffffffffffffffffffffffffffffffffff02191690556001600360008573ffffffffffffffffffffffffffffffffffffffff1673ffffffffffffffffffffffffffffffffffffffff168152602001908152602001600020600082825403925050819055506001600360008473ffffffffffffffffffffffffffffffffffffffff1673ffffffffffffffffffffffffffffffffffffffff16815260200190815260200160002060008282540192505081905550816002600083815260200190815260200160002060006101000a81548173ffffffffffffffffffffffffffffffffffffffff021916908373ffffffffffffffffffffffffffffffffffffffff160217905550808273ffffffffffffffffffffffffffffffffffffffff168473ffffffffffffffffffffffffffffffffffffffff167fddf252ad1be2c89b69c2b068fc378daa952ba7f163c4a11628f55a4df523b3ef60405160405180910390a46111ee8383836001611a6b565b505050565b600260075403611238576040517f08c379a000000000000000000000000000000000000000000000000000000000815260040161122f9061302a565b60405180910390fd5b6002600781905550565b6001816000016000828254019250508190555050565b600081600001549050919050565b600073ffffffffffffffffffffffffffffffffffffffff168273ffffffffffffffffffffffffffffffffffffffff16036112d5576040517f08c379a00000000000000000000000000000000000000000000000000000000081526004016112cc90613096565b60405180910390fd5b6112de81611904565b1561131e576040517f08c379a000000000000000000000000000000000000000000000000000000000815260040161131590613102565b60405180910390fd5b61132c600083836001611945565b61133581611904565b15611375576040517f08c379a000000000000000000000000000000000000000000000000000000000815260040161136c90613102565b60405180910390fd5b6001600360008473ffffffffffffffffffffffffffffffffffffffff1673ffffffffffffffffffffffffffffffffffffffff16815260200190815260200160002060008282540192505081905550816002600083815260200190815260200160002060006101000a81548173ffffffffffffffffffffffffffffffffffffffff021916908373ffffffffffffffffffffffffffffffffffffffff160217905550808273ffffffffffffffffffffffffffffffffffffffff16600073ffffffffffffffffffffffffffffffffffffffff167fddf252ad1be2c89b69c2b068fc378daa952ba7f163c4a11628f55a4df523b3ef60405160405180910390a461147f600083836001611a6b565b5050565b61148c82611904565b6114cb576040517f08c379a00000000000000000000000000000000000000000000000000000000081526004016114c290613194565b60405180910390fd5b806006600084815260200190815260200160002090816114eb9190613360565b505050565b6001600781905550565b60006002600083815260200190815260200160002060009054906101000a900473ffffffffffffffffffffffffffffffffffffffff169050919050565b60006115fc7e5165dbde6c98ff3dd217e399994c50c9b2dcb0e924050ef97159c4f0f162a683806000019061156c9190612c8b565b60405161157a929190613462565b60405180910390208480602001906115929190612e57565b6040516115a0929190613462565b60405180910390208580604001906115b89190612e57565b6040516115c6929190613462565b60405180910390206040516020016115e1949392919061347b565b60405160208183030381529060405280519060200120611a7d565b9050919050565b60008060006116128585611a97565b9150915061161f81611ae8565b819250505092915050565b8173ffffffffffffffffffffffffffffffffffffffff168373ffffffffffffffffffffffffffffffffffffffff1603611698576040517f08c379a000000000000000000000000000000000000000000000000000000000815260040161168f9061350c565b60405180910390fd5b80600560008573ffffffffffffffffffffffffffffffffffffffff1673ffffffffffffffffffffffffffffffffffffffff16815260200190815260200160002060008473ffffffffffffffffffffffffffffffffffffffff1673ffffffffffffffffffffffffffffffffffffffff16815260200190815260200160002060006101000a81548160ff0219169083151502179055508173ffffffffffffffffffffffffffffffffffffffff168373ffffffffffffffffffffffffffffffffffffffff167f17307eab39ab6107e8899845ad3d59bd9653f200f220920489ca2b5937696c318360405161178991906123bb565b60405180910390a3505050565b6117a1848484610efa565b6117ad84848484611c4e565b6117ec576040517f08c379a00000000000000000000000000000000000000000000000000000000081526004016117e39061359e565b60405180910390fd5b50505050565b60606117fd82610d59565b600060066000848152602001908152602001600020805461181d90612a3e565b80601f016020809104026020016040519081016040528092919081815260200182805461184990612a3e565b80156118965780601f1061186b57610100808354040283529160200191611896565b820191906000526020600020905b81548152906001019060200180831161187957829003601f168201915b5050505050905060006118a7611dd5565b905060008151036118bc5781925050506118ff565b6000825111156118f15780826040516020016118d99291906135fa565b604051602081830303815290604052925050506118ff565b6118fa84611dec565b925050505b919050565b60008073ffffffffffffffffffffffffffffffffffffffff16611926836114fa565b73ffffffffffffffffffffffffffffffffffffffff1614159050919050565b6001811115611a6557600073ffffffffffffffffffffffffffffffffffffffff168473ffffffffffffffffffffffffffffffffffffffff16146119d95780600360008673ffffffffffffffffffffffffffffffffffffffff1673ffffffffffffffffffffffffffffffffffffffff16815260200190815260200160002060008282546119d1919061361e565b925050819055505b600073ffffffffffffffffffffffffffffffffffffffff168373ffffffffffffffffffffffffffffffffffffffff1614611a645780600360008573ffffffffffffffffffffffffffffffffffffffff1673ffffffffffffffffffffffffffffffffffffffff1681526020019081526020016000206000828254611a5c9190613652565b925050819055505b5b50505050565b611a7784848484611e54565b50505050565b6000611a90611a8a611e5a565b83611f74565b9050919050565b6000806041835103611ad85760008060006020860151925060408601519150606086015160001a9050611acc87828585611fa7565b94509450505050611ae1565b60006002915091505b9250929050565b60006004811115611afc57611afb613686565b5b816004811115611b0f57611b0e613686565b5b0315611c4b5760016004811115611b2957611b28613686565b5b816004811115611b3c57611b3b613686565b5b03611b7c576040517f08c379a0000000000000000000000000000000000000000000000000000000008152600401611b7390613701565b60405180910390fd5b60026004811115611b9057611b8f613686565b5b816004811115611ba357611ba2613686565b5b03611be3576040517f08c379a0000000000000000000000000000000000000000000000000000000008152600401611bda9061376d565b60405180910390fd5b60036004811115611bf757611bf6613686565b5b816004811115611c0a57611c09613686565b5b03611c4a576040517f08c379a0000000000000000000000000000000000000000000000000000000008152600401611c41906137ff565b60405180910390fd5b5b50565b6000611c6f8473ffffffffffffffffffffffffffffffffffffffff16612089565b15611dc8578373ffffffffffffffffffffffffffffffffffffffff1663150b7a02611c98610da4565b8786866040518563ffffffff1660e01b8152600401611cba9493929190613874565b6020604051808303816000875af1925050508015611cf657506040513d601f19601f82011682018060405250810190611cf391906138d5565b60015b611d78573d8060008114611d26576040519150601f19603f3d011682016040523d82523d6000602084013e611d2b565b606091505b506000815103611d70576040517f08c379a0000000000000000000000000000000000000000000000000000000008152600401611d679061359e565b60405180910390fd5b805181602001fd5b63150b7a0260e01b7bffffffffffffffffffffffffffffffffffffffffffffffffffffffff1916817bffffffffffffffffffffffffffffffffffffffffffffffffffffffff191614915050611dcd565b600190505b949350505050565b606060405180602001604052806000815250905090565b6060611df782610d59565b6000611e01611dd5565b90506000815111611e215760405180602001604052806000815250611e4c565b80611e2b846120ac565b604051602001611e3c9291906135fa565b6040516020818303038152906040525b915050919050565b50505050565b60007f000000000000000000000000000000000000000000000000000000000000000073ffffffffffffffffffffffffffffffffffffffff163073ffffffffffffffffffffffffffffffffffffffff16148015611ed657507f000000000000000000000000000000000000000000000000000000000000000046145b15611f03577f00000000000000000000000000000000000000000000000000000000000000009050611f71565b611f6e7f00000000000000000000000000000000000000000000000000000000000000007f00000000000000000000000000000000000000000000000000000000000000007f000000000000000000000000000000000000000000000000000000000000000061217a565b90505b90565b60008282604051602001611f8992919061396f565b60405160208183030381529060405280519060200120905092915050565b6000807f7fffffffffffffffffffffffffffffff5d576e7357a4501ddfe92f46681b20a08360001c1115611fe2576000600391509150612080565b60006001878787876040516000815260200160405260405161200794939291906139c2565b6020604051602081039080840390855afa158015612029573d6000803e3d6000fd5b505050602060405103519050600073ffffffffffffffffffffffffffffffffffffffff168173ffffffffffffffffffffffffffffffffffffffff160361207757600060019250925050612080565b80600092509250505b94509492505050565b6000808273ffffffffffffffffffffffffffffffffffffffff163b119050919050565b6060600060016120bb846121b4565b01905060008167ffffffffffffffff8111156120da576120d9612821565b5b6040519080825280601f01601f19166020018201604052801561210c5781602001600182028036833780820191505090505b509050600082602001820190505b60011561216f578080600190039150507f3031323334353637383961626364656600000000000000000000000000000000600a86061a8153600a858161216357612162613a07565b5b0494506000850361211a575b819350505050919050565b60008383834630604051602001612195959493929190613a36565b6040516020818303038152906040528051906020012090509392505050565b600080600090507a184f03e93ff9f4daa797ed6e38ed64bf6a1f0100000000000000008310612212577a184f03e93ff9f4daa797ed6e38ed64bf6a1f010000000000000000838161220857612207613a07565b5b0492506040810190505b6d04ee2d6d415b85acef8100000000831061224f576d04ee2d6d415b85acef8100000000838161224557612244613a07565b5b0492506020810190505b662386f26fc10000831061227e57662386f26fc10000838161227457612273613a07565b5b0492506010810190505b6305f5e10083106122a7576305f5e100838161229d5761229c613a07565b5b0492506008810190505b61271083106122cc5761271083816122c2576122c1613a07565b5b0492506004810190505b606483106122ef57606483816122e5576122e4613a07565b5b0492506002810190505b600a83106122fe576001810190505b80915050919050565b6000604051905090565b600080fd5b600080fd5b60007fffffffff0000000000000000000000000000000000000000000000000000000082169050919050565b6123508161231b565b811461235b57600080fd5b50565b60008135905061236d81612347565b92915050565b60006020828403121561238957612388612311565b5b60006123978482850161235e565b91505092915050565b60008115159050919050565b6123b5816123a0565b82525050565b60006020820190506123d060008301846123ac565b92915050565b600081519050919050565b600082825260208201905092915050565b60005b838110156124105780820151818401526020810190506123f5565b60008484015250505050565b6000601f19601f8301169050919050565b6000612438826123d6565b61244281856123e1565b93506124528185602086016123f2565b61245b8161241c565b840191505092915050565b60006020820190508181036000830152612480818461242d565b905092915050565b6000819050919050565b61249b81612488565b81146124a657600080fd5b50565b6000813590506124b881612492565b92915050565b6000602082840312156124d4576124d3612311565b5b60006124e2848285016124a9565b91505092915050565b600073ffffffffffffffffffffffffffffffffffffffff82169050919050565b6000612516826124eb565b9050919050565b6125268161250b565b82525050565b6000602082019050612541600083018461251d565b92915050565b6125508161250b565b811461255b57600080fd5b50565b60008135905061256d81612547565b92915050565b6000806040838503121561258a57612589612311565b5b60006125988582860161255e565b92505060206125a9858286016124a9565b9150509250929050565b6000806000606084860312156125cc576125cb612311565b5b60006125da8682870161255e565b93505060206125eb8682870161255e565b92505060406125fc868287016124a9565b9150509250925092565b600080fd5b600080fd5b600080fd5b60008083601f84011261262b5761262a612606565b5b8235905067ffffffffffffffff8111156126485761264761260b565b5b60208301915083602082028301111561266457612663612610565b5b9250929050565b6000806020838503121561268257612681612311565b5b600083013567ffffffffffffffff8111156126a05761269f612316565b5b6126ac85828601612615565b92509250509250929050565b6000602082840312156126ce576126cd612311565b5b60006126dc8482850161255e565b91505092915050565b6126ee81612488565b82525050565b600060208201905061270960008301846126e5565b92915050565b6000819050919050565b6127228161270f565b82525050565b600060208201905061273d6000830184612719565b92915050565b600080fd5b60006080828403121561275e5761275d612743565b5b81905092915050565b60006020828403121561277d5761277c612311565b5b600082013567ffffffffffffffff81111561279b5761279a612316565b5b6127a784828501612748565b91505092915050565b6127b9816123a0565b81146127c457600080fd5b50565b6000813590506127d6816127b0565b92915050565b600080604083850312156127f3576127f2612311565b5b60006128018582860161255e565b9250506020612812858286016127c7565b9150509250929050565b600080fd5b7f4e487b7100000000000000000000000000000000000000000000000000000000600052604160045260246000fd5b6128598261241c565b810181811067ffffffffffffffff8211171561287857612877612821565b5b80604052505050565b600061288b612307565b90506128978282612850565b919050565b600067ffffffffffffffff8211156128b7576128b6612821565b5b6128c08261241c565b9050602081019050919050565b82818337600083830152505050565b60006128ef6128ea8461289c565b612881565b90508281526020810184848401111561290b5761290a61281c565b5b6129168482856128cd565b509392505050565b600082601f83011261293357612932612606565b5b81356129438482602086016128dc565b91505092915050565b6000806000806080858703121561296657612965612311565b5b60006129748782880161255e565b94505060206129858782880161255e565b9350506040612996878288016124a9565b925050606085013567ffffffffffffffff8111156129b7576129b6612316565b5b6129c38782880161291e565b91505092959194509250565b600080604083850312156129e6576129e5612311565b5b60006129f48582860161255e565b9250506020612a058582860161255e565b9150509250929050565b7f4e487b7100000000000000000000000000000000000000000000000000000000600052602260045260246000fd5b60006002820490506001821680612a5657607f821691505b602082108103612a6957612a68612a0f565b5b50919050565b7f4552433732313a20617070726f76616c20746f2063757272656e74206f776e6560008201527f7200000000000000000000000000000000000000000000000000000000000000602082015250565b6000612acb6021836123e1565b9150612ad682612a6f565b604082019050919050565b60006020820190508181036000830152612afa81612abe565b9050919050565b7f4552433732313a20617070726f76652063616c6c6572206973206e6f7420746f60008201527f6b656e206f776e6572206f7220617070726f76656420666f7220616c6c000000602082015250565b6000612b5d603d836123e1565b9150612b6882612b01565b604082019050919050565b60006020820190508181036000830152612b8c81612b50565b9050919050565b7f4552433732313a2063616c6c6572206973206e6f7420746f6b656e206f776e6560008201527f72206f7220617070726f76656400000000000000000000000000000000000000602082015250565b6000612bef602d836123e1565b9150612bfa82612b93565b604082019050919050565b60006020820190508181036000830152612c1e81612be2565b9050919050565b7f4e487b7100000000000000000000000000000000000000000000000000000000600052603260045260246000fd5b600080fd5b600080fd5b600080fd5b600082356001608003833603038112612c7f57612c7e612c54565b5b80830191505092915050565b60008083356001602003843603038112612ca857612ca7612c54565b5b80840192508235915067ffffffffffffffff821115612cca57612cc9612c59565b5b602083019250600182023603831315612ce657612ce5612c5e565b5b509250929050565b7f4e487b7100000000000000000000000000000000000000000000000000000000600052601160045260246000fd5b600063ffffffff82169050919050565b6000612d3882612d1d565b915063ffffffff8203612d4e57612d4d612cee565b5b600182019050919050565b7f4552433732313a20696e76616c696420746f6b656e2049440000000000000000600082015250565b6000612d8f6018836123e1565b9150612d9a82612d59565b602082019050919050565b60006020820190508181036000830152612dbe81612d82565b9050919050565b7f4552433732313a2061646472657373207a65726f206973206e6f74206120766160008201527f6c6964206f776e65720000000000000000000000000000000000000000000000602082015250565b6000612e216029836123e1565b9150612e2c82612dc5565b604082019050919050565b60006020820190508181036000830152612e5081612e14565b9050919050565b60008083356001602003843603038112612e7457612e73612c54565b5b80840192508235915067ffffffffffffffff821115612e9657612e95612c59565b5b602083019250600182023603831315612eb257612eb1612c5e565b5b509250929050565b7f4552433732313a207472616e736665722066726f6d20696e636f72726563742060008201527f6f776e6572000000000000000000000000000000000000000000000000000000602082015250565b6000612f166025836123e1565b9150612f2182612eba565b604082019050919050565b60006020820190508181036000830152612f4581612f09565b9050919050565b7f4552433732313a207472616e7366657220746f20746865207a65726f2061646460008201527f7265737300000000000000000000000000000000000000000000000000000000602082015250565b6000612fa86024836123e1565b9150612fb382612f4c565b604082019050919050565b60006020820190508181036000830152612fd781612f9b565b9050919050565b7f5265656e7472616e637947756172643a207265656e7472616e742063616c6c00600082015250565b6000613014601f836123e1565b915061301f82612fde565b602082019050919050565b6000602082019050818103600083015261304381613007565b9050919050565b7f4552433732313a206d696e7420746f20746865207a65726f2061646472657373600082015250565b60006130806020836123e1565b915061308b8261304a565b602082019050919050565b600060208201905081810360008301526130af81613073565b9050919050565b7f4552433732313a20746f6b656e20616c7265616479206d696e74656400000000600082015250565b60006130ec601c836123e1565b91506130f7826130b6565b602082019050919050565b6000602082019050818103600083015261311b816130df565b9050919050565b7f45524337323155524953746f726167653a2055524920736574206f66206e6f6e60008201527f6578697374656e7420746f6b656e000000000000000000000000000000000000602082015250565b600061317e602e836123e1565b915061318982613122565b604082019050919050565b600060208201905081810360008301526131ad81613171565b9050919050565b60008190508160005260206000209050919050565b60006020601f8301049050919050565b600082821b905092915050565b6000600883026132167fffffffffffffffffffffffffffffffffffffffffffffffffffffffffffffffff826131d9565b61322086836131d9565b95508019841693508086168417925050509392505050565b6000819050919050565b600061325d61325861325384612488565b613238565b612488565b9050919050565b6000819050919050565b61327783613242565b61328b61328382613264565b8484546131e6565b825550505050565b600090565b6132a0613293565b6132ab81848461326e565b505050565b5b818110156132cf576132c4600082613298565b6001810190506132b1565b5050565b601f821115613314576132e5816131b4565b6132ee846131c9565b810160208510156132fd578190505b613311613309856131c9565b8301826132b0565b50505b505050565b600082821c905092915050565b600061333760001984600802613319565b1980831691505092915050565b60006133508383613326565b9150826002028217905092915050565b613369826123d6565b67ffffffffffffffff81111561338257613381612821565b5b61338c8254612a3e565b6133978282856132d3565b600060209050601f8311600181146133ca57600084156133b8578287015190505b6133c28582613344565b86555061342a565b601f1984166133d8866131b4565b60005b82811015613400578489015182556001820191506020850194506020810190506133db565b8683101561341d5784890151613419601f891682613326565b8355505b6001600288020188555050505b505050505050565b600081905092915050565b60006134498385613432565b93506134568385846128cd565b82840190509392505050565b600061346f82848661343d565b91508190509392505050565b60006080820190506134906000830187612719565b61349d6020830186612719565b6134aa6040830185612719565b6134b76060830184612719565b95945050505050565b7f4552433732313a20617070726f766520746f2063616c6c657200000000000000600082015250565b60006134f66019836123e1565b9150613501826134c0565b602082019050919050565b60006020820190508181036000830152613525816134e9565b9050919050565b7f4552433732313a207472616e7366657220746f206e6f6e20455243373231526560008201527f63656976657220696d706c656d656e7465720000000000000000000000000000602082015250565b60006135886032836123e1565b91506135938261352c565b604082019050919050565b600060208201905081810360008301526135b78161357b565b9050919050565b600081905092915050565b60006135d4826123d6565b6135de81856135be565b93506135ee8185602086016123f2565b80840191505092915050565b600061360682856135c9565b915061361282846135c9565b91508190509392505050565b600061362982612488565b915061363483612488565b925082820390508181111561364c5761364b612cee565b5b92915050565b600061365d82612488565b915061366883612488565b92508282019050808211156136805761367f612cee565b5b92915050565b7f4e487b7100000000000000000000000000000000000000000000000000000000600052602160045260246000fd5b7f45434453413a20696e76616c6964207369676e61747572650000000000000000600082015250565b60006136eb6018836123e1565b91506136f6826136b5565b602082019050919050565b6000602082019050818103600083015261371a816136de565b9050919050565b7f45434453413a20696e76616c6964207369676e6174757265206c656e67746800600082015250565b6000613757601f836123e1565b915061376282613721565b602082019050919050565b600060208201905081810360008301526137868161374a565b9050919050565b7f45434453413a20696e76616c6964207369676e6174757265202773272076616c60008201527f7565000000000000000000000000000000000000000000000000000000000000602082015250565b60006137e96022836123e1565b91506137f48261378d565b604082019050919050565b60006020820190508181036000830152613818816137dc565b9050919050565b600081519050919050565b600082825260208201905092915050565b60006138468261381f565b613850818561382a565b93506138608185602086016123f2565b6138698161241c565b840191505092915050565b6000608082019050613889600083018761251d565b613896602083018661251d565b6138a360408301856126e5565b81810360608301526138b5818461383b565b905095945050505050565b6000815190506138cf81612347565b92915050565b6000602082840312156138eb576138ea612311565b5b60006138f9848285016138c0565b91505092915050565b7f1901000000000000000000000000000000000000000000000000000000000000600082015250565b60006139386002836135be565b915061394382613902565b600282019050919050565b6000819050919050565b6139696139648261270f565b61394e565b82525050565b600061397a8261392b565b91506139868285613958565b6020820191506139968284613958565b6020820191508190509392505050565b600060ff82169050919050565b6139bc816139a6565b82525050565b60006080820190506139d76000830187612719565b6139e460208301866139b3565b6139f16040830185612719565b6139fe6060830184612719565b95945050505050565b7f4e487b7100000000000000000000000000000000000000000000000000000000600052601260045260246000fd5b600060a082019050613a4b6000830188612719565b613a586020830187612719565b613a656040830186612719565b613a7260608301856126e5565b613a7f608083018461251d565b969550505050505056fea264697066735822122078a673665e6c115802201ed0d3acc76561c5e7bd1cc12e8f73f1a2aebbcbabd164736f6c63430008110033","opcodes":"PUSH2 0x140 PUSH1 0x40 MSTORE CALLVALUE DUP1 ISZERO PUSH3 0x12 JUMPI PUSH1 0x0 DUP1 REVERT JUMPDEST POP PUSH1 0x40 MLOAD PUSH3 0x42F2 CODESIZE SUB DUP1 PUSH3 0x42F2 DUP4 CODECOPY DUP2 DUP2 ADD PUSH1 0x40 MSTORE DUP2 ADD SWAP1 PUSH3 0x38 SWAP2 SWAP1 PUSH3 0x2F5 JUMP JUMPDEST DUP2 DUP2 DUP6 DUP6 DUP2 PUSH1 0x0 SWAP1 DUP2 PUSH3 0x4D SWAP2 SWAP1 PUSH3 0x62E JUMP JUMPDEST POP DUP1 PUSH1 0x1 SWAP1 DUP2 PUSH3 0x5F SWAP2 SWAP1 PUSH3 0x62E JUMP JUMPDEST POP POP POP PUSH1 0x1 PUSH1 0x7 DUP2 SWAP1 SSTORE POP PUSH1 0x0 DUP3 DUP1 MLOAD SWAP1 PUSH1 0x20 ADD KECCAK256 SWAP1 POP PUSH1 0x0 DUP3 DUP1 MLOAD SWAP1 PUSH1 0x20 ADD KECCAK256 SWAP1 POP PUSH1 0x0 PUSH32 0x8B73C3C69BB8FE3D512ECC4CF759CC79239F7B179B0FFACAA9A75D522B39400F SWAP1 POP DUP3 PUSH1 0xE0 DUP2 DUP2 MSTORE POP POP DUP2 PUSH2 0x100 DUP2 DUP2 MSTORE POP POP CHAINID PUSH1 0xA0 DUP2 DUP2 MSTORE POP POP PUSH3 0xD3 DUP2 DUP5 DUP5 PUSH3 0x126 PUSH1 0x20 SHL PUSH1 0x20 SHR JUMP JUMPDEST PUSH1 0x80 DUP2 DUP2 MSTORE POP POP ADDRESS PUSH20 0xFFFFFFFFFFFFFFFFFFFFFFFFFFFFFFFFFFFFFFFF AND PUSH1 0xC0 DUP2 PUSH20 0xFFFFFFFFFFFFFFFFFFFFFFFFFFFFFFFFFFFFFFFF AND DUP2 MSTORE POP POP DUP1 PUSH2 0x120 DUP2 DUP2 MSTORE POP POP POP POP POP POP POP POP POP POP POP PUSH3 0x7E3 JUMP JUMPDEST PUSH1 0x0 DUP4 DUP4 DUP4 CHAINID ADDRESS PUSH1 0x40 MLOAD PUSH1 0x20 ADD PUSH3 0x143 SWAP6 SWAP5 SWAP4 SWAP3 SWAP2 SWAP1 PUSH3 0x786 JUMP JUMPDEST PUSH1 0x40 MLOAD PUSH1 0x20 DUP2 DUP4 SUB SUB DUP2 MSTORE SWAP1 PUSH1 0x40 MSTORE DUP1 MLOAD SWAP1 PUSH1 0x20 ADD KECCAK256 SWAP1 POP SWAP4 SWAP3 POP POP POP JUMP JUMPDEST PUSH1 0x0 PUSH1 0x40 MLOAD SWAP1 POP SWAP1 JUMP JUMPDEST PUSH1 0x0 DUP1 REVERT JUMPDEST PUSH1 0x0 DUP1 REVERT JUMPDEST PUSH1 0x0 DUP1 REVERT JUMPDEST PUSH1 0x0 DUP1 REVERT JUMPDEST PUSH1 0x0 PUSH1 0x1F NOT PUSH1 0x1F DUP4 ADD AND SWAP1 POP SWAP2 SWAP1 POP JUMP JUMPDEST PUSH32 0x4E487B7100000000000000000000000000000000000000000000000000000000 PUSH1 0x0 MSTORE PUSH1 0x41 PUSH1 0x4 MSTORE PUSH1 0x24 PUSH1 0x0 REVERT JUMPDEST PUSH3 0x1CB DUP3 PUSH3 0x180 JUMP JUMPDEST DUP2 ADD DUP2 DUP2 LT PUSH8 0xFFFFFFFFFFFFFFFF DUP3 GT OR ISZERO PUSH3 0x1ED JUMPI PUSH3 0x1EC PUSH3 0x191 JUMP JUMPDEST JUMPDEST DUP1 PUSH1 0x40 MSTORE POP POP POP JUMP JUMPDEST PUSH1 0x0 PUSH3 0x202 PUSH3 0x162 JUMP JUMPDEST SWAP1 POP PUSH3 0x210 DUP3 DUP3 PUSH3 0x1C0 JUMP JUMPDEST SWAP2 SWAP1 POP JUMP JUMPDEST PUSH1 0x0 PUSH8 0xFFFFFFFFFFFFFFFF DUP3 GT ISZERO PUSH3 0x233 JUMPI PUSH3 0x232 PUSH3 0x191 JUMP JUMPDEST JUMPDEST PUSH3 0x23E DUP3 PUSH3 0x180 JUMP JUMPDEST SWAP1 POP PUSH1 0x20 DUP2 ADD SWAP1 POP SWAP2 SWAP1 POP JUMP JUMPDEST PUSH1 0x0 JUMPDEST DUP4 DUP2 LT ISZERO PUSH3 0x26B JUMPI DUP1 DUP3 ADD MLOAD DUP2 DUP5 ADD MSTORE PUSH1 0x20 DUP2 ADD SWAP1 POP PUSH3 0x24E JUMP JUMPDEST PUSH1 0x0 DUP5 DUP5 ADD MSTORE POP POP POP POP JUMP JUMPDEST PUSH1 0x0 PUSH3 0x28E PUSH3 0x288 DUP5 PUSH3 0x215 JUMP JUMPDEST PUSH3 0x1F6 JUMP JUMPDEST SWAP1 POP DUP3 DUP2 MSTORE PUSH1 0x20 DUP2 ADD DUP5 DUP5 DUP5 ADD GT ISZERO PUSH3 0x2AD JUMPI PUSH3 0x2AC PUSH3 0x17B JUMP JUMPDEST JUMPDEST PUSH3 0x2BA DUP5 DUP3 DUP6 PUSH3 0x24B JUMP JUMPDEST POP SWAP4 SWAP3 POP POP POP JUMP JUMPDEST PUSH1 0x0 DUP3 PUSH1 0x1F DUP4 ADD SLT PUSH3 0x2DA JUMPI PUSH3 0x2D9 PUSH3 0x176 JUMP JUMPDEST JUMPDEST DUP2 MLOAD PUSH3 0x2EC DUP5 DUP3 PUSH1 0x20 DUP7 ADD PUSH3 0x277 JUMP JUMPDEST SWAP2 POP POP SWAP3 SWAP2 POP POP JUMP JUMPDEST PUSH1 0x0 DUP1 PUSH1 0x0 DUP1 PUSH1 0x80 DUP6 DUP8 SUB SLT ISZERO PUSH3 0x312 JUMPI PUSH3 0x311 PUSH3 0x16C JUMP JUMPDEST JUMPDEST PUSH1 0x0 DUP6 ADD MLOAD PUSH8 0xFFFFFFFFFFFFFFFF DUP2 GT ISZERO PUSH3 0x333 JUMPI PUSH3 0x332 PUSH3 0x171 JUMP JUMPDEST JUMPDEST PUSH3 0x341 DUP8 DUP3 DUP9 ADD PUSH3 0x2C2 JUMP JUMPDEST SWAP5 POP POP PUSH1 0x20 DUP6 ADD MLOAD PUSH8 0xFFFFFFFFFFFFFFFF DUP2 GT ISZERO PUSH3 0x365 JUMPI PUSH3 0x364 PUSH3 0x171 JUMP JUMPDEST JUMPDEST PUSH3 0x373 DUP8 DUP3 DUP9 ADD PUSH3 0x2C2 JUMP JUMPDEST SWAP4 POP POP PUSH1 0x40 DUP6 ADD MLOAD PUSH8 0xFFFFFFFFFFFFFFFF DUP2 GT ISZERO PUSH3 0x397 JUMPI PUSH3 0x396 PUSH3 0x171 JUMP JUMPDEST JUMPDEST PUSH3 0x3A5 DUP8 DUP3 DUP9 ADD PUSH3 0x2C2 JUMP JUMPDEST SWAP3 POP POP PUSH1 0x60 DUP6 ADD MLOAD PUSH8 0xFFFFFFFFFFFFFFFF DUP2 GT ISZERO PUSH3 0x3C9 JUMPI PUSH3 0x3C8 PUSH3 0x171 JUMP JUMPDEST JUMPDEST PUSH3 0x3D7 DUP8 DUP3 DUP9 ADD PUSH3 0x2C2 JUMP JUMPDEST SWAP2 POP POP SWAP3 SWAP6 SWAP2 SWAP5 POP SWAP3 POP JUMP JUMPDEST PUSH1 0x0 DUP2 MLOAD SWAP1 POP SWAP2 SWAP1 POP JUMP JUMPDEST PUSH32 0x4E487B7100000000000000000000000000000000000000000000000000000000 PUSH1 0x0 MSTORE PUSH1 0x22 PUSH1 0x4 MSTORE PUSH1 0x24 PUSH1 0x0 REVERT JUMPDEST PUSH1 0x0 PUSH1 0x2 DUP3 DIV SWAP1 POP PUSH1 0x1 DUP3 AND DUP1 PUSH3 0x436 JUMPI PUSH1 0x7F DUP3 AND SWAP2 POP JUMPDEST PUSH1 0x20 DUP3 LT DUP2 SUB PUSH3 0x44C JUMPI PUSH3 0x44B PUSH3 0x3EE JUMP JUMPDEST JUMPDEST POP SWAP2 SWAP1 POP JUMP JUMPDEST PUSH1 0x0 DUP2 SWAP1 POP DUP2 PUSH1 0x0 MSTORE PUSH1 0x20 PUSH1 0x0 KECCAK256 SWAP1 POP SWAP2 SWAP1 POP JUMP JUMPDEST PUSH1 0x0 PUSH1 0x20 PUSH1 0x1F DUP4 ADD DIV SWAP1 POP SWAP2 SWAP1 POP JUMP JUMPDEST PUSH1 0x0 DUP3 DUP3 SHL SWAP1 POP SWAP3 SWAP2 POP POP JUMP JUMPDEST PUSH1 0x0 PUSH1 0x8 DUP4 MUL PUSH3 0x4B6 PUSH32 0xFFFFFFFFFFFFFFFFFFFFFFFFFFFFFFFFFFFFFFFFFFFFFFFFFFFFFFFFFFFFFFFF DUP3 PUSH3 0x477 JUMP JUMPDEST PUSH3 0x4C2 DUP7 DUP4 PUSH3 0x477 JUMP JUMPDEST SWAP6 POP DUP1 NOT DUP5 AND SWAP4 POP DUP1 DUP7 AND DUP5 OR SWAP3 POP POP POP SWAP4 SWAP3 POP POP POP JUMP JUMPDEST PUSH1 0x0 DUP2 SWAP1 POP SWAP2 SWAP1 POP JUMP JUMPDEST PUSH1 0x0 DUP2 SWAP1 POP SWAP2 SWAP1 POP JUMP JUMPDEST PUSH1 0x0 PUSH3 0x50F PUSH3 0x509 PUSH3 0x503 DUP5 PUSH3 0x4DA JUMP JUMPDEST PUSH3 0x4E4 JUMP JUMPDEST PUSH3 0x4DA JUMP JUMPDEST SWAP1 POP SWAP2 SWAP1 POP JUMP JUMPDEST PUSH1 0x0 DUP2 SWAP1 POP SWAP2 SWAP1 POP JUMP JUMPDEST PUSH3 0x52B DUP4 PUSH3 0x4EE JUMP JUMPDEST PUSH3 0x543 PUSH3 0x53A DUP3 PUSH3 0x516 JUMP JUMPDEST DUP5 DUP5 SLOAD PUSH3 0x484 JUMP JUMPDEST DUP3 SSTORE POP POP POP POP JUMP JUMPDEST PUSH1 0x0 SWAP1 JUMP JUMPDEST PUSH3 0x55A PUSH3 0x54B JUMP JUMPDEST PUSH3 0x567 DUP2 DUP5 DUP5 PUSH3 0x520 JUMP JUMPDEST POP POP POP JUMP JUMPDEST JUMPDEST DUP2 DUP2 LT ISZERO PUSH3 0x58F JUMPI PUSH3 0x583 PUSH1 0x0 DUP3 PUSH3 0x550 JUMP JUMPDEST PUSH1 0x1 DUP2 ADD SWAP1 POP PUSH3 0x56D JUMP JUMPDEST POP POP JUMP JUMPDEST PUSH1 0x1F DUP3 GT ISZERO PUSH3 0x5DE JUMPI PUSH3 0x5A8 DUP2 PUSH3 0x452 JUMP JUMPDEST PUSH3 0x5B3 DUP5 PUSH3 0x467 JUMP JUMPDEST DUP2 ADD PUSH1 0x20 DUP6 LT ISZERO PUSH3 0x5C3 JUMPI DUP2 SWAP1 POP JUMPDEST PUSH3 0x5DB PUSH3 0x5D2 DUP6 PUSH3 0x467 JUMP JUMPDEST DUP4 ADD DUP3 PUSH3 0x56C JUMP JUMPDEST POP POP JUMPDEST POP POP POP JUMP JUMPDEST PUSH1 0x0 DUP3 DUP3 SHR SWAP1 POP SWAP3 SWAP2 POP POP JUMP JUMPDEST PUSH1 0x0 PUSH3 0x603 PUSH1 0x0 NOT DUP5 PUSH1 0x8 MUL PUSH3 0x5E3 JUMP JUMPDEST NOT DUP1 DUP4 AND SWAP2 POP POP SWAP3 SWAP2 POP POP JUMP JUMPDEST PUSH1 0x0 PUSH3 0x61E DUP4 DUP4 PUSH3 0x5F0 JUMP JUMPDEST SWAP2 POP DUP3 PUSH1 0x2 MUL DUP3 OR SWAP1 POP SWAP3 SWAP2 POP POP JUMP JUMPDEST PUSH3 0x639 DUP3 PUSH3 0x3E3 JUMP JUMPDEST PUSH8 0xFFFFFFFFFFFFFFFF DUP2 GT ISZERO PUSH3 0x655 JUMPI PUSH3 0x654 PUSH3 0x191 JUMP JUMPDEST JUMPDEST PUSH3 0x661 DUP3 SLOAD PUSH3 0x41D JUMP JUMPDEST PUSH3 0x66E DUP3 DUP3 DUP6 PUSH3 0x593 JUMP JUMPDEST PUSH1 0x0 PUSH1 0x20 SWAP1 POP PUSH1 0x1F DUP4 GT PUSH1 0x1 DUP2 EQ PUSH3 0x6A6 JUMPI PUSH1 0x0 DUP5 ISZERO PUSH3 0x691 JUMPI DUP3 DUP8 ADD MLOAD SWAP1 POP JUMPDEST PUSH3 0x69D DUP6 DUP3 PUSH3 0x610 JUMP JUMPDEST DUP7 SSTORE POP PUSH3 0x70D JUMP JUMPDEST PUSH1 0x1F NOT DUP5 AND PUSH3 0x6B6 DUP7 PUSH3 0x452 JUMP JUMPDEST PUSH1 0x0 JUMPDEST DUP3 DUP2 LT ISZERO PUSH3 0x6E0 JUMPI DUP5 DUP10 ADD MLOAD DUP3 SSTORE PUSH1 0x1 DUP3 ADD SWAP2 POP PUSH1 0x20 DUP6 ADD SWAP5 POP PUSH1 0x20 DUP2 ADD SWAP1 POP PUSH3 0x6B9 JUMP JUMPDEST DUP7 DUP4 LT ISZERO PUSH3 0x700 JUMPI DUP5 DUP10 ADD MLOAD PUSH3 0x6FC PUSH1 0x1F DUP10 AND DUP3 PUSH3 0x5F0 JUMP JUMPDEST DUP4 SSTORE POP JUMPDEST PUSH1 0x1 PUSH1 0x2 DUP9 MUL ADD DUP9 SSTORE POP POP POP JUMPDEST POP POP POP POP POP POP JUMP JUMPDEST PUSH1 0x0 DUP2 SWAP1 POP SWAP2 SWAP1 POP JUMP JUMPDEST PUSH3 0x72A DUP2 PUSH3 0x715 JUMP JUMPDEST DUP3 MSTORE POP POP JUMP JUMPDEST PUSH3 0x73B DUP2 PUSH3 0x4DA JUMP JUMPDEST DUP3 MSTORE POP POP JUMP JUMPDEST PUSH1 0x0 PUSH20 0xFFFFFFFFFFFFFFFFFFFFFFFFFFFFFFFFFFFFFFFF DUP3 AND SWAP1 POP SWAP2 SWAP1 POP JUMP JUMPDEST PUSH1 0x0 PUSH3 0x76E DUP3 PUSH3 0x741 JUMP JUMPDEST SWAP1 POP SWAP2 SWAP1 POP JUMP JUMPDEST PUSH3 0x780 DUP2 PUSH3 0x761 JUMP JUMPDEST DUP3 MSTORE POP POP JUMP JUMPDEST PUSH1 0x0 PUSH1 0xA0 DUP3 ADD SWAP1 POP PUSH3 0x79D PUSH1 0x0 DUP4 ADD DUP9 PUSH3 0x71F JUMP JUMPDEST PUSH3 0x7AC PUSH1 0x20 DUP4 ADD DUP8 PUSH3 0x71F JUMP JUMPDEST PUSH3 0x7BB PUSH1 0x40 DUP4 ADD DUP7 PUSH3 0x71F JUMP JUMPDEST PUSH3 0x7CA PUSH1 0x60 DUP4 ADD DUP6 PUSH3 0x730 JUMP JUMPDEST PUSH3 0x7D9 PUSH1 0x80 DUP4 ADD DUP5 PUSH3 0x775 JUMP JUMPDEST SWAP7 SWAP6 POP POP POP POP POP POP JUMP JUMPDEST PUSH1 0x80 MLOAD PUSH1 0xA0 MLOAD PUSH1 0xC0 MLOAD PUSH1 0xE0 MLOAD PUSH2 0x100 MLOAD PUSH2 0x120 MLOAD PUSH2 0x3ABF PUSH3 0x833 PUSH1 0x0 CODECOPY PUSH1 0x0 PUSH2 0x1F08 ADD MSTORE PUSH1 0x0 PUSH2 0x1F4A ADD MSTORE PUSH1 0x0 PUSH2 0x1F29 ADD MSTORE PUSH1 0x0 PUSH2 0x1E5E ADD MSTORE PUSH1 0x0 PUSH2 0x1EB4 ADD MSTORE PUSH1 0x0 PUSH2 0x1EDD ADD MSTORE PUSH2 0x3ABF PUSH1 0x0 RETURN INVALID PUSH1 0x80 PUSH1 0x40 MSTORE CALLVALUE DUP1 ISZERO PUSH2 0x10 JUMPI PUSH1 0x0 DUP1 REVERT JUMPDEST POP PUSH1 0x4 CALLDATASIZE LT PUSH2 0x116 JUMPI PUSH1 0x0 CALLDATALOAD PUSH1 0xE0 SHR DUP1 PUSH4 0x73F2D272 GT PUSH2 0xA2 JUMPI DUP1 PUSH4 0xB88D4FDE GT PUSH2 0x71 JUMPI DUP1 PUSH4 0xB88D4FDE EQ PUSH2 0x2F1 JUMPI DUP1 PUSH4 0xC87B56DD EQ PUSH2 0x30D JUMPI DUP1 PUSH4 0xDA08E722 EQ PUSH2 0x33D JUMPI DUP1 PUSH4 0xDB5890EE EQ PUSH2 0x359 JUMPI DUP1 PUSH4 0xE985E9C5 EQ PUSH2 0x377 JUMPI PUSH2 0x116 JUMP JUMPDEST DUP1 PUSH4 0x73F2D272 EQ PUSH2 0x269 JUMPI DUP1 PUSH4 0x8483DE56 EQ PUSH2 0x287 JUMPI DUP1 PUSH4 0x95D89B41 EQ PUSH2 0x2B7 JUMPI DUP1 PUSH4 0xA22CB465 EQ PUSH2 0x2D5 JUMPI PUSH2 0x116 JUMP JUMPDEST DUP1 PUSH4 0x23B872DD GT PUSH2 0xE9 JUMPI DUP1 PUSH4 0x23B872DD EQ PUSH2 0x1B5 JUMPI DUP1 PUSH4 0x42842E0E EQ PUSH2 0x1D1 JUMPI DUP1 PUSH4 0x58BD72DC EQ PUSH2 0x1ED JUMPI DUP1 PUSH4 0x6352211E EQ PUSH2 0x209 JUMPI DUP1 PUSH4 0x70A08231 EQ PUSH2 0x239 JUMPI PUSH2 0x116 JUMP JUMPDEST DUP1 PUSH4 0x1FFC9A7 EQ PUSH2 0x11B JUMPI DUP1 PUSH4 0x6FDDE03 EQ PUSH2 0x14B JUMPI DUP1 PUSH4 0x81812FC EQ PUSH2 0x169 JUMPI DUP1 PUSH4 0x95EA7B3 EQ PUSH2 0x199 JUMPI JUMPDEST PUSH1 0x0 DUP1 REVERT JUMPDEST PUSH2 0x135 PUSH1 0x4 DUP1 CALLDATASIZE SUB DUP2 ADD SWAP1 PUSH2 0x130 SWAP2 SWAP1 PUSH2 0x2373 JUMP JUMPDEST PUSH2 0x3A7 JUMP JUMPDEST PUSH1 0x40 MLOAD PUSH2 0x142 SWAP2 SWAP1 PUSH2 0x23BB JUMP JUMPDEST PUSH1 0x40 MLOAD DUP1 SWAP2 SUB SWAP1 RETURN JUMPDEST PUSH2 0x153 PUSH2 0x489 JUMP JUMPDEST PUSH1 0x40 MLOAD PUSH2 0x160 SWAP2 SWAP1 PUSH2 0x2466 JUMP JUMPDEST PUSH1 0x40 MLOAD DUP1 SWAP2 SUB SWAP1 RETURN JUMPDEST PUSH2 0x183 PUSH1 0x4 DUP1 CALLDATASIZE SUB DUP2 ADD SWAP1 PUSH2 0x17E SWAP2 SWAP1 PUSH2 0x24BE JUMP JUMPDEST PUSH2 0x51B JUMP JUMPDEST PUSH1 0x40 MLOAD PUSH2 0x190 SWAP2 SWAP1 PUSH2 0x252C JUMP JUMPDEST PUSH1 0x40 MLOAD DUP1 SWAP2 SUB SWAP1 RETURN JUMPDEST PUSH2 0x1B3 PUSH1 0x4 DUP1 CALLDATASIZE SUB DUP2 ADD SWAP1 PUSH2 0x1AE SWAP2 SWAP1 PUSH2 0x2573 JUMP JUMPDEST PUSH2 0x561 JUMP JUMPDEST STOP JUMPDEST PUSH2 0x1CF PUSH1 0x4 DUP1 CALLDATASIZE SUB DUP2 ADD SWAP1 PUSH2 0x1CA SWAP2 SWAP1 PUSH2 0x25B3 JUMP JUMPDEST PUSH2 0x678 JUMP JUMPDEST STOP JUMPDEST PUSH2 0x1EB PUSH1 0x4 DUP1 CALLDATASIZE SUB DUP2 ADD SWAP1 PUSH2 0x1E6 SWAP2 SWAP1 PUSH2 0x25B3 JUMP JUMPDEST PUSH2 0x6D8 JUMP JUMPDEST STOP JUMPDEST PUSH2 0x207 PUSH1 0x4 DUP1 CALLDATASIZE SUB DUP2 ADD SWAP1 PUSH2 0x202 SWAP2 SWAP1 PUSH2 0x266B JUMP JUMPDEST PUSH2 0x6F8 JUMP JUMPDEST STOP JUMPDEST PUSH2 0x223 PUSH1 0x4 DUP1 CALLDATASIZE SUB DUP2 ADD SWAP1 PUSH2 0x21E SWAP2 SWAP1 PUSH2 0x24BE JUMP JUMPDEST PUSH2 0x884 JUMP JUMPDEST PUSH1 0x40 MLOAD PUSH2 0x230 SWAP2 SWAP1 PUSH2 0x252C JUMP JUMPDEST PUSH1 0x40 MLOAD DUP1 SWAP2 SUB SWAP1 RETURN JUMPDEST PUSH2 0x253 PUSH1 0x4 DUP1 CALLDATASIZE SUB DUP2 ADD SWAP1 PUSH2 0x24E SWAP2 SWAP1 PUSH2 0x26B8 JUMP JUMPDEST PUSH2 0x90A JUMP JUMPDEST PUSH1 0x40 MLOAD PUSH2 0x260 SWAP2 SWAP1 PUSH2 0x26F4 JUMP JUMPDEST PUSH1 0x40 MLOAD DUP1 SWAP2 SUB SWAP1 RETURN JUMPDEST PUSH2 0x271 PUSH2 0x9C1 JUMP JUMPDEST PUSH1 0x40 MLOAD PUSH2 0x27E SWAP2 SWAP1 PUSH2 0x2728 JUMP JUMPDEST PUSH1 0x40 MLOAD DUP1 SWAP2 SUB SWAP1 RETURN JUMPDEST PUSH2 0x2A1 PUSH1 0x4 DUP1 CALLDATASIZE SUB DUP2 ADD SWAP1 PUSH2 0x29C SWAP2 SWAP1 PUSH2 0x2767 JUMP JUMPDEST PUSH2 0x9E4 JUMP JUMPDEST PUSH1 0x40 MLOAD PUSH2 0x2AE SWAP2 SWAP1 PUSH2 0x252C JUMP JUMPDEST PUSH1 0x40 MLOAD DUP1 SWAP2 SUB SWAP1 RETURN JUMPDEST PUSH2 0x2BF PUSH2 0xA56 JUMP JUMPDEST PUSH1 0x40 MLOAD PUSH2 0x2CC SWAP2 SWAP1 PUSH2 0x2466 JUMP JUMPDEST PUSH1 0x40 MLOAD DUP1 SWAP2 SUB SWAP1 RETURN JUMPDEST PUSH2 0x2EF PUSH1 0x4 DUP1 CALLDATASIZE SUB DUP2 ADD SWAP1 PUSH2 0x2EA SWAP2 SWAP1 PUSH2 0x27DC JUMP JUMPDEST PUSH2 0xAE8 JUMP JUMPDEST STOP JUMPDEST PUSH2 0x30B PUSH1 0x4 DUP1 CALLDATASIZE SUB DUP2 ADD SWAP1 PUSH2 0x306 SWAP2 SWAP1 PUSH2 0x294C JUMP JUMPDEST PUSH2 0xAFE JUMP JUMPDEST STOP JUMPDEST PUSH2 0x327 PUSH1 0x4 DUP1 CALLDATASIZE SUB DUP2 ADD SWAP1 PUSH2 0x322 SWAP2 SWAP1 PUSH2 0x24BE JUMP JUMPDEST PUSH2 0xB60 JUMP JUMPDEST PUSH1 0x40 MLOAD PUSH2 0x334 SWAP2 SWAP1 PUSH2 0x2466 JUMP JUMPDEST PUSH1 0x40 MLOAD DUP1 SWAP2 SUB SWAP1 RETURN JUMPDEST PUSH2 0x357 PUSH1 0x4 DUP1 CALLDATASIZE SUB DUP2 ADD SWAP1 PUSH2 0x352 SWAP2 SWAP1 PUSH2 0x2767 JUMP JUMPDEST PUSH2 0xB72 JUMP JUMPDEST STOP JUMPDEST PUSH2 0x361 PUSH2 0xC4A JUMP JUMPDEST PUSH1 0x40 MLOAD PUSH2 0x36E SWAP2 SWAP1 PUSH2 0x26F4 JUMP JUMPDEST PUSH1 0x40 MLOAD DUP1 SWAP2 SUB SWAP1 RETURN JUMPDEST PUSH2 0x391 PUSH1 0x4 DUP1 CALLDATASIZE SUB DUP2 ADD SWAP1 PUSH2 0x38C SWAP2 SWAP1 PUSH2 0x29CF JUMP JUMPDEST PUSH2 0xC5B JUMP JUMPDEST PUSH1 0x40 MLOAD PUSH2 0x39E SWAP2 SWAP1 PUSH2 0x23BB JUMP JUMPDEST PUSH1 0x40 MLOAD DUP1 SWAP2 SUB SWAP1 RETURN JUMPDEST PUSH1 0x0 PUSH32 0x80AC58CD00000000000000000000000000000000000000000000000000000000 PUSH28 0xFFFFFFFFFFFFFFFFFFFFFFFFFFFFFFFFFFFFFFFFFFFFFFFFFFFFFFFF NOT AND DUP3 PUSH28 0xFFFFFFFFFFFFFFFFFFFFFFFFFFFFFFFFFFFFFFFFFFFFFFFFFFFFFFFF NOT AND EQ DUP1 PUSH2 0x472 JUMPI POP PUSH32 0x5B5E139F00000000000000000000000000000000000000000000000000000000 PUSH28 0xFFFFFFFFFFFFFFFFFFFFFFFFFFFFFFFFFFFFFFFFFFFFFFFFFFFFFFFF NOT AND DUP3 PUSH28 0xFFFFFFFFFFFFFFFFFFFFFFFFFFFFFFFFFFFFFFFFFFFFFFFFFFFFFFFF NOT AND EQ JUMPDEST DUP1 PUSH2 0x482 JUMPI POP PUSH2 0x481 DUP3 PUSH2 0xCEF JUMP JUMPDEST JUMPDEST SWAP1 POP SWAP2 SWAP1 POP JUMP JUMPDEST PUSH1 0x60 PUSH1 0x0 DUP1 SLOAD PUSH2 0x498 SWAP1 PUSH2 0x2A3E JUMP JUMPDEST DUP1 PUSH1 0x1F ADD PUSH1 0x20 DUP1 SWAP2 DIV MUL PUSH1 0x20 ADD PUSH1 0x40 MLOAD SWAP1 DUP2 ADD PUSH1 0x40 MSTORE DUP1 SWAP3 SWAP2 SWAP1 DUP2 DUP2 MSTORE PUSH1 0x20 ADD DUP3 DUP1 SLOAD PUSH2 0x4C4 SWAP1 PUSH2 0x2A3E JUMP JUMPDEST DUP1 ISZERO PUSH2 0x511 JUMPI DUP1 PUSH1 0x1F LT PUSH2 0x4E6 JUMPI PUSH2 0x100 DUP1 DUP4 SLOAD DIV MUL DUP4 MSTORE SWAP2 PUSH1 0x20 ADD SWAP2 PUSH2 0x511 JUMP JUMPDEST DUP3 ADD SWAP2 SWAP1 PUSH1 0x0 MSTORE PUSH1 0x20 PUSH1 0x0 KECCAK256 SWAP1 JUMPDEST DUP2 SLOAD DUP2 MSTORE SWAP1 PUSH1 0x1 ADD SWAP1 PUSH1 0x20 ADD DUP1 DUP4 GT PUSH2 0x4F4 JUMPI DUP3 SWAP1 SUB PUSH1 0x1F AND DUP3 ADD SWAP2 JUMPDEST POP POP POP POP POP SWAP1 POP SWAP1 JUMP JUMPDEST PUSH1 0x0 PUSH2 0x526 DUP3 PUSH2 0xD59 JUMP JUMPDEST PUSH1 0x4 PUSH1 0x0 DUP4 DUP2 MSTORE PUSH1 0x20 ADD SWAP1 DUP2 MSTORE PUSH1 0x20 ADD PUSH1 0x0 KECCAK256 PUSH1 0x0 SWAP1 SLOAD SWAP1 PUSH2 0x100 EXP SWAP1 DIV PUSH20 0xFFFFFFFFFFFFFFFFFFFFFFFFFFFFFFFFFFFFFFFF AND SWAP1 POP SWAP2 SWAP1 POP JUMP JUMPDEST PUSH1 0x0 PUSH2 0x56C DUP3 PUSH2 0x884 JUMP JUMPDEST SWAP1 POP DUP1 PUSH20 0xFFFFFFFFFFFFFFFFFFFFFFFFFFFFFFFFFFFFFFFF AND DUP4 PUSH20 0xFFFFFFFFFFFFFFFFFFFFFFFFFFFFFFFFFFFFFFFF AND SUB PUSH2 0x5DC JUMPI PUSH1 0x40 MLOAD PUSH32 0x8C379A000000000000000000000000000000000000000000000000000000000 DUP2 MSTORE PUSH1 0x4 ADD PUSH2 0x5D3 SWAP1 PUSH2 0x2AE1 JUMP JUMPDEST PUSH1 0x40 MLOAD DUP1 SWAP2 SUB SWAP1 REVERT JUMPDEST DUP1 PUSH20 0xFFFFFFFFFFFFFFFFFFFFFFFFFFFFFFFFFFFFFFFF AND PUSH2 0x5FB PUSH2 0xDA4 JUMP JUMPDEST PUSH20 0xFFFFFFFFFFFFFFFFFFFFFFFFFFFFFFFFFFFFFFFF AND EQ DUP1 PUSH2 0x62A JUMPI POP PUSH2 0x629 DUP2 PUSH2 0x624 PUSH2 0xDA4 JUMP JUMPDEST PUSH2 0xC5B JUMP JUMPDEST JUMPDEST PUSH2 0x669 JUMPI PUSH1 0x40 MLOAD PUSH32 0x8C379A000000000000000000000000000000000000000000000000000000000 DUP2 MSTORE PUSH1 0x4 ADD PUSH2 0x660 SWAP1 PUSH2 0x2B73 JUMP JUMPDEST PUSH1 0x40 MLOAD DUP1 SWAP2 SUB SWAP1 REVERT JUMPDEST PUSH2 0x673 DUP4 DUP4 PUSH2 0xDAC JUMP JUMPDEST POP POP POP JUMP JUMPDEST PUSH2 0x689 PUSH2 0x683 PUSH2 0xDA4 JUMP JUMPDEST DUP3 PUSH2 0xE65 JUMP JUMPDEST PUSH2 0x6C8 JUMPI PUSH1 0x40 MLOAD PUSH32 0x8C379A000000000000000000000000000000000000000000000000000000000 DUP2 MSTORE PUSH1 0x4 ADD PUSH2 0x6BF SWAP1 PUSH2 0x2C05 JUMP JUMPDEST PUSH1 0x40 MLOAD DUP1 SWAP2 SUB SWAP1 REVERT JUMPDEST PUSH2 0x6D3 DUP4 DUP4 DUP4 PUSH2 0xEFA JUMP JUMPDEST POP POP POP JUMP JUMPDEST PUSH2 0x6F3 DUP4 DUP4 DUP4 PUSH1 0x40 MLOAD DUP1 PUSH1 0x20 ADD PUSH1 0x40 MSTORE DUP1 PUSH1 0x0 DUP2 MSTORE POP PUSH2 0xAFE JUMP JUMPDEST POP POP POP JUMP JUMPDEST PUSH2 0x700 PUSH2 0x11F3 JUMP JUMPDEST PUSH1 0x0 JUMPDEST DUP3 DUP3 SWAP1 POP DUP2 PUSH4 0xFFFFFFFF AND LT ISZERO PUSH2 0x840 JUMPI PUSH1 0x0 PUSH2 0x749 DUP5 DUP5 DUP5 PUSH4 0xFFFFFFFF AND DUP2 DUP2 LT PUSH2 0x732 JUMPI PUSH2 0x731 PUSH2 0x2C25 JUMP JUMPDEST JUMPDEST SWAP1 POP PUSH1 0x20 MUL DUP2 ADD SWAP1 PUSH2 0x744 SWAP2 SWAP1 PUSH2 0x2C63 JUMP JUMPDEST PUSH2 0x9E4 JUMP JUMPDEST SWAP1 POP PUSH2 0x755 PUSH1 0x8 PUSH2 0x1242 JUMP JUMPDEST PUSH1 0x0 PUSH2 0x761 PUSH1 0x8 PUSH2 0x1258 JUMP JUMPDEST SWAP1 POP PUSH2 0x76D CALLER DUP3 PUSH2 0x1266 JUMP JUMPDEST PUSH2 0x7F3 DUP2 DUP7 DUP7 DUP7 PUSH4 0xFFFFFFFF AND DUP2 DUP2 LT PUSH2 0x78A JUMPI PUSH2 0x789 PUSH2 0x2C25 JUMP JUMPDEST JUMPDEST SWAP1 POP PUSH1 0x20 MUL DUP2 ADD SWAP1 PUSH2 0x79C SWAP2 SWAP1 PUSH2 0x2C63 JUMP JUMPDEST DUP1 PUSH1 0x0 ADD SWAP1 PUSH2 0x7AB SWAP2 SWAP1 PUSH2 0x2C8B JUMP JUMPDEST DUP1 DUP1 PUSH1 0x1F ADD PUSH1 0x20 DUP1 SWAP2 DIV MUL PUSH1 0x20 ADD PUSH1 0x40 MLOAD SWAP1 DUP2 ADD PUSH1 0x40 MSTORE DUP1 SWAP4 SWAP3 SWAP2 SWAP1 DUP2 DUP2 MSTORE PUSH1 0x20 ADD DUP4 DUP4 DUP1 DUP3 DUP5 CALLDATACOPY PUSH1 0x0 DUP2 DUP5 ADD MSTORE PUSH1 0x1F NOT PUSH1 0x1F DUP3 ADD AND SWAP1 POP DUP1 DUP4 ADD SWAP3 POP POP POP POP POP POP POP PUSH2 0x1483 JUMP JUMPDEST DUP1 PUSH32 0x2FDF319518046F7B4EBC04A5CA363B42DA5E87F5E8150935B3E4EF1EE4509E1A DUP4 PUSH1 0x40 MLOAD PUSH2 0x823 SWAP2 SWAP1 PUSH2 0x252C JUMP JUMPDEST PUSH1 0x40 MLOAD DUP1 SWAP2 SUB SWAP1 LOG2 POP POP DUP1 DUP1 PUSH2 0x838 SWAP1 PUSH2 0x2D2D JUMP JUMPDEST SWAP2 POP POP PUSH2 0x703 JUMP JUMPDEST POP PUSH32 0xD1B5EA7FE0F1C2FA09D49C2AA9B2200664BA57A734F1D95481D95B7F99AF991C CALLER PUSH1 0x40 MLOAD PUSH2 0x870 SWAP2 SWAP1 PUSH2 0x252C JUMP JUMPDEST PUSH1 0x40 MLOAD DUP1 SWAP2 SUB SWAP1 LOG1 PUSH2 0x880 PUSH2 0x14F0 JUMP JUMPDEST POP POP JUMP JUMPDEST PUSH1 0x0 DUP1 PUSH2 0x890 DUP4 PUSH2 0x14FA JUMP JUMPDEST SWAP1 POP PUSH1 0x0 PUSH20 0xFFFFFFFFFFFFFFFFFFFFFFFFFFFFFFFFFFFFFFFF AND DUP2 PUSH20 0xFFFFFFFFFFFFFFFFFFFFFFFFFFFFFFFFFFFFFFFF AND SUB PUSH2 0x901 JUMPI PUSH1 0x40 MLOAD PUSH32 0x8C379A000000000000000000000000000000000000000000000000000000000 DUP2 MSTORE PUSH1 0x4 ADD PUSH2 0x8F8 SWAP1 PUSH2 0x2DA5 JUMP JUMPDEST PUSH1 0x40 MLOAD DUP1 SWAP2 SUB SWAP1 REVERT JUMPDEST DUP1 SWAP2 POP POP SWAP2 SWAP1 POP JUMP JUMPDEST PUSH1 0x0 DUP1 PUSH20 0xFFFFFFFFFFFFFFFFFFFFFFFFFFFFFFFFFFFFFFFF AND DUP3 PUSH20 0xFFFFFFFFFFFFFFFFFFFFFFFFFFFFFFFFFFFFFFFF AND SUB PUSH2 0x97A JUMPI PUSH1 0x40 MLOAD PUSH32 0x8C379A000000000000000000000000000000000000000000000000000000000 DUP2 MSTORE PUSH1 0x4 ADD PUSH2 0x971 SWAP1 PUSH2 0x2E37 JUMP JUMPDEST PUSH1 0x40 MLOAD DUP1 SWAP2 SUB SWAP1 REVERT JUMPDEST PUSH1 0x3 PUSH1 0x0 DUP4 PUSH20 0xFFFFFFFFFFFFFFFFFFFFFFFFFFFFFFFFFFFFFFFF AND PUSH20 0xFFFFFFFFFFFFFFFFFFFFFFFFFFFFFFFFFFFFFFFF AND DUP2 MSTORE PUSH1 0x20 ADD SWAP1 DUP2 MSTORE PUSH1 0x20 ADD PUSH1 0x0 KECCAK256 SLOAD SWAP1 POP SWAP2 SWAP1 POP JUMP JUMPDEST PUSH31 0x5165DBDE6C98FF3DD217E399994C50C9B2DCB0E924050EF97159C4F0F162A6 DUP2 JUMP JUMPDEST PUSH1 0x0 DUP1 PUSH2 0x9F0 DUP4 PUSH2 0x1537 JUMP JUMPDEST SWAP1 POP PUSH2 0xA4E DUP2 DUP5 DUP1 PUSH1 0x60 ADD SWAP1 PUSH2 0xA06 SWAP2 SWAP1 PUSH2 0x2E57 JUMP JUMPDEST DUP1 DUP1 PUSH1 0x1F ADD PUSH1 0x20 DUP1 SWAP2 DIV MUL PUSH1 0x20 ADD PUSH1 0x40 MLOAD SWAP1 DUP2 ADD PUSH1 0x40 MSTORE DUP1 SWAP4 SWAP3 SWAP2 SWAP1 DUP2 DUP2 MSTORE PUSH1 0x20 ADD DUP4 DUP4 DUP1 DUP3 DUP5 CALLDATACOPY PUSH1 0x0 DUP2 DUP5 ADD MSTORE PUSH1 0x1F NOT PUSH1 0x1F DUP3 ADD AND SWAP1 POP DUP1 DUP4 ADD SWAP3 POP POP POP POP POP POP POP PUSH2 0x1603 JUMP JUMPDEST SWAP2 POP POP SWAP2 SWAP1 POP JUMP JUMPDEST PUSH1 0x60 PUSH1 0x1 DUP1 SLOAD PUSH2 0xA65 SWAP1 PUSH2 0x2A3E JUMP JUMPDEST DUP1 PUSH1 0x1F ADD PUSH1 0x20 DUP1 SWAP2 DIV MUL PUSH1 0x20 ADD PUSH1 0x40 MLOAD SWAP1 DUP2 ADD PUSH1 0x40 MSTORE DUP1 SWAP3 SWAP2 SWAP1 DUP2 DUP2 MSTORE PUSH1 0x20 ADD DUP3 DUP1 SLOAD PUSH2 0xA91 SWAP1 PUSH2 0x2A3E JUMP JUMPDEST DUP1 ISZERO PUSH2 0xADE JUMPI DUP1 PUSH1 0x1F LT PUSH2 0xAB3 JUMPI PUSH2 0x100 DUP1 DUP4 SLOAD DIV MUL DUP4 MSTORE SWAP2 PUSH1 0x20 ADD SWAP2 PUSH2 0xADE JUMP JUMPDEST DUP3 ADD SWAP2 SWAP1 PUSH1 0x0 MSTORE PUSH1 0x20 PUSH1 0x0 KECCAK256 SWAP1 JUMPDEST DUP2 SLOAD DUP2 MSTORE SWAP1 PUSH1 0x1 ADD SWAP1 PUSH1 0x20 ADD DUP1 DUP4 GT PUSH2 0xAC1 JUMPI DUP3 SWAP1 SUB PUSH1 0x1F AND DUP3 ADD SWAP2 JUMPDEST POP POP POP POP POP SWAP1 POP SWAP1 JUMP JUMPDEST PUSH2 0xAFA PUSH2 0xAF3 PUSH2 0xDA4 JUMP JUMPDEST DUP4 DUP4 PUSH2 0x162A JUMP JUMPDEST POP POP JUMP JUMPDEST PUSH2 0xB0F PUSH2 0xB09 PUSH2 0xDA4 JUMP JUMPDEST DUP4 PUSH2 0xE65 JUMP JUMPDEST PUSH2 0xB4E JUMPI PUSH1 0x40 MLOAD PUSH32 0x8C379A000000000000000000000000000000000000000000000000000000000 DUP2 MSTORE PUSH1 0x4 ADD PUSH2 0xB45 SWAP1 PUSH2 0x2C05 JUMP JUMPDEST PUSH1 0x40 MLOAD DUP1 SWAP2 SUB SWAP1 REVERT JUMPDEST PUSH2 0xB5A DUP5 DUP5 DUP5 DUP5 PUSH2 0x1796 JUMP JUMPDEST POP POP POP POP JUMP JUMPDEST PUSH1 0x60 PUSH2 0xB6B DUP3 PUSH2 0x17F2 JUMP JUMPDEST SWAP1 POP SWAP2 SWAP1 POP JUMP JUMPDEST PUSH2 0xB7A PUSH2 0x11F3 JUMP JUMPDEST PUSH1 0x0 PUSH2 0xB85 DUP3 PUSH2 0x9E4 JUMP JUMPDEST SWAP1 POP PUSH2 0xB91 PUSH1 0x8 PUSH2 0x1242 JUMP JUMPDEST PUSH1 0x0 PUSH2 0xB9D PUSH1 0x8 PUSH2 0x1258 JUMP JUMPDEST SWAP1 POP PUSH2 0xBA9 DUP3 DUP3 PUSH2 0x1266 JUMP JUMPDEST PUSH2 0xC05 DUP2 DUP5 DUP1 PUSH1 0x0 ADD SWAP1 PUSH2 0xBBD SWAP2 SWAP1 PUSH2 0x2C8B JUMP JUMPDEST DUP1 DUP1 PUSH1 0x1F ADD PUSH1 0x20 DUP1 SWAP2 DIV MUL PUSH1 0x20 ADD PUSH1 0x40 MLOAD SWAP1 DUP2 ADD PUSH1 0x40 MSTORE DUP1 SWAP4 SWAP3 SWAP2 SWAP1 DUP2 DUP2 MSTORE PUSH1 0x20 ADD DUP4 DUP4 DUP1 DUP3 DUP5 CALLDATACOPY PUSH1 0x0 DUP2 DUP5 ADD MSTORE PUSH1 0x1F NOT PUSH1 0x1F DUP3 ADD AND SWAP1 POP DUP1 DUP4 ADD SWAP3 POP POP POP POP POP POP POP PUSH2 0x1483 JUMP JUMPDEST DUP1 PUSH32 0x2FDF319518046F7B4EBC04A5CA363B42DA5E87F5E8150935B3E4EF1EE4509E1A DUP4 PUSH1 0x40 MLOAD PUSH2 0xC35 SWAP2 SWAP1 PUSH2 0x252C JUMP JUMPDEST PUSH1 0x40 MLOAD DUP1 SWAP2 SUB SWAP1 LOG2 POP POP PUSH2 0xC47 PUSH2 0x14F0 JUMP JUMPDEST POP JUMP JUMPDEST PUSH1 0x0 PUSH2 0xC56 PUSH1 0x8 PUSH2 0x1258 JUMP JUMPDEST SWAP1 POP SWAP1 JUMP JUMPDEST PUSH1 0x0 PUSH1 0x5 PUSH1 0x0 DUP5 PUSH20 0xFFFFFFFFFFFFFFFFFFFFFFFFFFFFFFFFFFFFFFFF AND PUSH20 0xFFFFFFFFFFFFFFFFFFFFFFFFFFFFFFFFFFFFFFFF AND DUP2 MSTORE PUSH1 0x20 ADD SWAP1 DUP2 MSTORE PUSH1 0x20 ADD PUSH1 0x0 KECCAK256 PUSH1 0x0 DUP4 PUSH20 0xFFFFFFFFFFFFFFFFFFFFFFFFFFFFFFFFFFFFFFFF AND PUSH20 0xFFFFFFFFFFFFFFFFFFFFFFFFFFFFFFFFFFFFFFFF AND DUP2 MSTORE PUSH1 0x20 ADD SWAP1 DUP2 MSTORE PUSH1 0x20 ADD PUSH1 0x0 KECCAK256 PUSH1 0x0 SWAP1 SLOAD SWAP1 PUSH2 0x100 EXP SWAP1 DIV PUSH1 0xFF AND SWAP1 POP SWAP3 SWAP2 POP POP JUMP JUMPDEST PUSH1 0x0 PUSH32 0x1FFC9A700000000000000000000000000000000000000000000000000000000 PUSH28 0xFFFFFFFFFFFFFFFFFFFFFFFFFFFFFFFFFFFFFFFFFFFFFFFFFFFFFFFF NOT AND DUP3 PUSH28 0xFFFFFFFFFFFFFFFFFFFFFFFFFFFFFFFFFFFFFFFFFFFFFFFFFFFFFFFF NOT AND EQ SWAP1 POP SWAP2 SWAP1 POP JUMP JUMPDEST PUSH2 0xD62 DUP2 PUSH2 0x1904 JUMP JUMPDEST PUSH2 0xDA1 JUMPI PUSH1 0x40 MLOAD PUSH32 0x8C379A000000000000000000000000000000000000000000000000000000000 DUP2 MSTORE PUSH1 0x4 ADD PUSH2 0xD98 SWAP1 PUSH2 0x2DA5 JUMP JUMPDEST PUSH1 0x40 MLOAD DUP1 SWAP2 SUB SWAP1 REVERT JUMPDEST POP JUMP JUMPDEST PUSH1 0x0 CALLER SWAP1 POP SWAP1 JUMP JUMPDEST DUP2 PUSH1 0x4 PUSH1 0x0 DUP4 DUP2 MSTORE PUSH1 0x20 ADD SWAP1 DUP2 MSTORE PUSH1 0x20 ADD PUSH1 0x0 KECCAK256 PUSH1 0x0 PUSH2 0x100 EXP DUP2 SLOAD DUP2 PUSH20 0xFFFFFFFFFFFFFFFFFFFFFFFFFFFFFFFFFFFFFFFF MUL NOT AND SWAP1 DUP4 PUSH20 0xFFFFFFFFFFFFFFFFFFFFFFFFFFFFFFFFFFFFFFFF AND MUL OR SWAP1 SSTORE POP DUP1 DUP3 PUSH20 0xFFFFFFFFFFFFFFFFFFFFFFFFFFFFFFFFFFFFFFFF AND PUSH2 0xE1F DUP4 PUSH2 0x884 JUMP JUMPDEST PUSH20 0xFFFFFFFFFFFFFFFFFFFFFFFFFFFFFFFFFFFFFFFF AND PUSH32 0x8C5BE1E5EBEC7D5BD14F71427D1E84F3DD0314C0F7B2291E5B200AC8C7C3B925 PUSH1 0x40 MLOAD PUSH1 0x40 MLOAD DUP1 SWAP2 SUB SWAP1 LOG4 POP POP JUMP JUMPDEST PUSH1 0x0 DUP1 PUSH2 0xE71 DUP4 PUSH2 0x884 JUMP JUMPDEST SWAP1 POP DUP1 PUSH20 0xFFFFFFFFFFFFFFFFFFFFFFFFFFFFFFFFFFFFFFFF AND DUP5 PUSH20 0xFFFFFFFFFFFFFFFFFFFFFFFFFFFFFFFFFFFFFFFF AND EQ DUP1 PUSH2 0xEB3 JUMPI POP PUSH2 0xEB2 DUP2 DUP6 PUSH2 0xC5B JUMP JUMPDEST JUMPDEST DUP1 PUSH2 0xEF1 JUMPI POP DUP4 PUSH20 0xFFFFFFFFFFFFFFFFFFFFFFFFFFFFFFFFFFFFFFFF AND PUSH2 0xED9 DUP5 PUSH2 0x51B JUMP JUMPDEST PUSH20 0xFFFFFFFFFFFFFFFFFFFFFFFFFFFFFFFFFFFFFFFF AND EQ JUMPDEST SWAP2 POP POP SWAP3 SWAP2 POP POP JUMP JUMPDEST DUP3 PUSH20 0xFFFFFFFFFFFFFFFFFFFFFFFFFFFFFFFFFFFFFFFF AND PUSH2 0xF1A DUP3 PUSH2 0x884 JUMP JUMPDEST PUSH20 0xFFFFFFFFFFFFFFFFFFFFFFFFFFFFFFFFFFFFFFFF AND EQ PUSH2 0xF70 JUMPI PUSH1 0x40 MLOAD PUSH32 0x8C379A000000000000000000000000000000000000000000000000000000000 DUP2 MSTORE PUSH1 0x4 ADD PUSH2 0xF67 SWAP1 PUSH2 0x2F2C JUMP JUMPDEST PUSH1 0x40 MLOAD DUP1 SWAP2 SUB SWAP1 REVERT JUMPDEST PUSH1 0x0 PUSH20 0xFFFFFFFFFFFFFFFFFFFFFFFFFFFFFFFFFFFFFFFF AND DUP3 PUSH20 0xFFFFFFFFFFFFFFFFFFFFFFFFFFFFFFFFFFFFFFFF AND SUB PUSH2 0xFDF JUMPI PUSH1 0x40 MLOAD PUSH32 0x8C379A000000000000000000000000000000000000000000000000000000000 DUP2 MSTORE PUSH1 0x4 ADD PUSH2 0xFD6 SWAP1 PUSH2 0x2FBE JUMP JUMPDEST PUSH1 0x40 MLOAD DUP1 SWAP2 SUB SWAP1 REVERT JUMPDEST PUSH2 0xFEC DUP4 DUP4 DUP4 PUSH1 0x1 PUSH2 0x1945 JUMP JUMPDEST DUP3 PUSH20 0xFFFFFFFFFFFFFFFFFFFFFFFFFFFFFFFFFFFFFFFF AND PUSH2 0x100C DUP3 PUSH2 0x884 JUMP JUMPDEST PUSH20 0xFFFFFFFFFFFFFFFFFFFFFFFFFFFFFFFFFFFFFFFF AND EQ PUSH2 0x1062 JUMPI PUSH1 0x40 MLOAD PUSH32 0x8C379A000000000000000000000000000000000000000000000000000000000 DUP2 MSTORE PUSH1 0x4 ADD PUSH2 0x1059 SWAP1 PUSH2 0x2F2C JUMP JUMPDEST PUSH1 0x40 MLOAD DUP1 SWAP2 SUB SWAP1 REVERT JUMPDEST PUSH1 0x4 PUSH1 0x0 DUP3 DUP2 MSTORE PUSH1 0x20 ADD SWAP1 DUP2 MSTORE PUSH1 0x20 ADD PUSH1 0x0 KECCAK256 PUSH1 0x0 PUSH2 0x100 EXP DUP2 SLOAD SWAP1 PUSH20 0xFFFFFFFFFFFFFFFFFFFFFFFFFFFFFFFFFFFFFFFF MUL NOT AND SWAP1 SSTORE PUSH1 0x1 PUSH1 0x3 PUSH1 0x0 DUP6 PUSH20 0xFFFFFFFFFFFFFFFFFFFFFFFFFFFFFFFFFFFFFFFF AND PUSH20 0xFFFFFFFFFFFFFFFFFFFFFFFFFFFFFFFFFFFFFFFF AND DUP2 MSTORE PUSH1 0x20 ADD SWAP1 DUP2 MSTORE PUSH1 0x20 ADD PUSH1 0x0 KECCAK256 PUSH1 0x0 DUP3 DUP3 SLOAD SUB SWAP3 POP POP DUP2 SWAP1 SSTORE POP PUSH1 0x1 PUSH1 0x3 PUSH1 0x0 DUP5 PUSH20 0xFFFFFFFFFFFFFFFFFFFFFFFFFFFFFFFFFFFFFFFF AND PUSH20 0xFFFFFFFFFFFFFFFFFFFFFFFFFFFFFFFFFFFFFFFF AND DUP2 MSTORE PUSH1 0x20 ADD SWAP1 DUP2 MSTORE PUSH1 0x20 ADD PUSH1 0x0 KECCAK256 PUSH1 0x0 DUP3 DUP3 SLOAD ADD SWAP3 POP POP DUP2 SWAP1 SSTORE POP DUP2 PUSH1 0x2 PUSH1 0x0 DUP4 DUP2 MSTORE PUSH1 0x20 ADD SWAP1 DUP2 MSTORE PUSH1 0x20 ADD PUSH1 0x0 KECCAK256 PUSH1 0x0 PUSH2 0x100 EXP DUP2 SLOAD DUP2 PUSH20 0xFFFFFFFFFFFFFFFFFFFFFFFFFFFFFFFFFFFFFFFF MUL NOT AND SWAP1 DUP4 PUSH20 0xFFFFFFFFFFFFFFFFFFFFFFFFFFFFFFFFFFFFFFFF AND MUL OR SWAP1 SSTORE POP DUP1 DUP3 PUSH20 0xFFFFFFFFFFFFFFFFFFFFFFFFFFFFFFFFFFFFFFFF AND DUP5 PUSH20 0xFFFFFFFFFFFFFFFFFFFFFFFFFFFFFFFFFFFFFFFF AND PUSH32 0xDDF252AD1BE2C89B69C2B068FC378DAA952BA7F163C4A11628F55A4DF523B3EF PUSH1 0x40 MLOAD PUSH1 0x40 MLOAD DUP1 SWAP2 SUB SWAP1 LOG4 PUSH2 0x11EE DUP4 DUP4 DUP4 PUSH1 0x1 PUSH2 0x1A6B JUMP JUMPDEST POP POP POP JUMP JUMPDEST PUSH1 0x2 PUSH1 0x7 SLOAD SUB PUSH2 0x1238 JUMPI PUSH1 0x40 MLOAD PUSH32 0x8C379A000000000000000000000000000000000000000000000000000000000 DUP2 MSTORE PUSH1 0x4 ADD PUSH2 0x122F SWAP1 PUSH2 0x302A JUMP JUMPDEST PUSH1 0x40 MLOAD DUP1 SWAP2 SUB SWAP1 REVERT JUMPDEST PUSH1 0x2 PUSH1 0x7 DUP2 SWAP1 SSTORE POP JUMP JUMPDEST PUSH1 0x1 DUP2 PUSH1 0x0 ADD PUSH1 0x0 DUP3 DUP3 SLOAD ADD SWAP3 POP POP DUP2 SWAP1 SSTORE POP POP JUMP JUMPDEST PUSH1 0x0 DUP2 PUSH1 0x0 ADD SLOAD SWAP1 POP SWAP2 SWAP1 POP JUMP JUMPDEST PUSH1 0x0 PUSH20 0xFFFFFFFFFFFFFFFFFFFFFFFFFFFFFFFFFFFFFFFF AND DUP3 PUSH20 0xFFFFFFFFFFFFFFFFFFFFFFFFFFFFFFFFFFFFFFFF AND SUB PUSH2 0x12D5 JUMPI PUSH1 0x40 MLOAD PUSH32 0x8C379A000000000000000000000000000000000000000000000000000000000 DUP2 MSTORE PUSH1 0x4 ADD PUSH2 0x12CC SWAP1 PUSH2 0x3096 JUMP JUMPDEST PUSH1 0x40 MLOAD DUP1 SWAP2 SUB SWAP1 REVERT JUMPDEST PUSH2 0x12DE DUP2 PUSH2 0x1904 JUMP JUMPDEST ISZERO PUSH2 0x131E JUMPI PUSH1 0x40 MLOAD PUSH32 0x8C379A000000000000000000000000000000000000000000000000000000000 DUP2 MSTORE PUSH1 0x4 ADD PUSH2 0x1315 SWAP1 PUSH2 0x3102 JUMP JUMPDEST PUSH1 0x40 MLOAD DUP1 SWAP2 SUB SWAP1 REVERT JUMPDEST PUSH2 0x132C PUSH1 0x0 DUP4 DUP4 PUSH1 0x1 PUSH2 0x1945 JUMP JUMPDEST PUSH2 0x1335 DUP2 PUSH2 0x1904 JUMP JUMPDEST ISZERO PUSH2 0x1375 JUMPI PUSH1 0x40 MLOAD PUSH32 0x8C379A000000000000000000000000000000000000000000000000000000000 DUP2 MSTORE PUSH1 0x4 ADD PUSH2 0x136C SWAP1 PUSH2 0x3102 JUMP JUMPDEST PUSH1 0x40 MLOAD DUP1 SWAP2 SUB SWAP1 REVERT JUMPDEST PUSH1 0x1 PUSH1 0x3 PUSH1 0x0 DUP5 PUSH20 0xFFFFFFFFFFFFFFFFFFFFFFFFFFFFFFFFFFFFFFFF AND PUSH20 0xFFFFFFFFFFFFFFFFFFFFFFFFFFFFFFFFFFFFFFFF AND DUP2 MSTORE PUSH1 0x20 ADD SWAP1 DUP2 MSTORE PUSH1 0x20 ADD PUSH1 0x0 KECCAK256 PUSH1 0x0 DUP3 DUP3 SLOAD ADD SWAP3 POP POP DUP2 SWAP1 SSTORE POP DUP2 PUSH1 0x2 PUSH1 0x0 DUP4 DUP2 MSTORE PUSH1 0x20 ADD SWAP1 DUP2 MSTORE PUSH1 0x20 ADD PUSH1 0x0 KECCAK256 PUSH1 0x0 PUSH2 0x100 EXP DUP2 SLOAD DUP2 PUSH20 0xFFFFFFFFFFFFFFFFFFFFFFFFFFFFFFFFFFFFFFFF MUL NOT AND SWAP1 DUP4 PUSH20 0xFFFFFFFFFFFFFFFFFFFFFFFFFFFFFFFFFFFFFFFF AND MUL OR SWAP1 SSTORE POP DUP1 DUP3 PUSH20 0xFFFFFFFFFFFFFFFFFFFFFFFFFFFFFFFFFFFFFFFF AND PUSH1 0x0 PUSH20 0xFFFFFFFFFFFFFFFFFFFFFFFFFFFFFFFFFFFFFFFF AND PUSH32 0xDDF252AD1BE2C89B69C2B068FC378DAA952BA7F163C4A11628F55A4DF523B3EF PUSH1 0x40 MLOAD PUSH1 0x40 MLOAD DUP1 SWAP2 SUB SWAP1 LOG4 PUSH2 0x147F PUSH1 0x0 DUP4 DUP4 PUSH1 0x1 PUSH2 0x1A6B JUMP JUMPDEST POP POP JUMP JUMPDEST PUSH2 0x148C DUP3 PUSH2 0x1904 JUMP JUMPDEST PUSH2 0x14CB JUMPI PUSH1 0x40 MLOAD PUSH32 0x8C379A000000000000000000000000000000000000000000000000000000000 DUP2 MSTORE PUSH1 0x4 ADD PUSH2 0x14C2 SWAP1 PUSH2 0x3194 JUMP JUMPDEST PUSH1 0x40 MLOAD DUP1 SWAP2 SUB SWAP1 REVERT JUMPDEST DUP1 PUSH1 0x6 PUSH1 0x0 DUP5 DUP2 MSTORE PUSH1 0x20 ADD SWAP1 DUP2 MSTORE PUSH1 0x20 ADD PUSH1 0x0 KECCAK256 SWAP1 DUP2 PUSH2 0x14EB SWAP2 SWAP1 PUSH2 0x3360 JUMP JUMPDEST POP POP POP JUMP JUMPDEST PUSH1 0x1 PUSH1 0x7 DUP2 SWAP1 SSTORE POP JUMP JUMPDEST PUSH1 0x0 PUSH1 0x2 PUSH1 0x0 DUP4 DUP2 MSTORE PUSH1 0x20 ADD SWAP1 DUP2 MSTORE PUSH1 0x20 ADD PUSH1 0x0 KECCAK256 PUSH1 0x0 SWAP1 SLOAD SWAP1 PUSH2 0x100 EXP SWAP1 DIV PUSH20 0xFFFFFFFFFFFFFFFFFFFFFFFFFFFFFFFFFFFFFFFF AND SWAP1 POP SWAP2 SWAP1 POP JUMP JUMPDEST PUSH1 0x0 PUSH2 0x15FC PUSH31 0x5165DBDE6C98FF3DD217E399994C50C9B2DCB0E924050EF97159C4F0F162A6 DUP4 DUP1 PUSH1 0x0 ADD SWAP1 PUSH2 0x156C SWAP2 SWAP1 PUSH2 0x2C8B JUMP JUMPDEST PUSH1 0x40 MLOAD PUSH2 0x157A SWAP3 SWAP2 SWAP1 PUSH2 0x3462 JUMP JUMPDEST PUSH1 0x40 MLOAD DUP1 SWAP2 SUB SWAP1 KECCAK256 DUP5 DUP1 PUSH1 0x20 ADD SWAP1 PUSH2 0x1592 SWAP2 SWAP1 PUSH2 0x2E57 JUMP JUMPDEST PUSH1 0x40 MLOAD PUSH2 0x15A0 SWAP3 SWAP2 SWAP1 PUSH2 0x3462 JUMP JUMPDEST PUSH1 0x40 MLOAD DUP1 SWAP2 SUB SWAP1 KECCAK256 DUP6 DUP1 PUSH1 0x40 ADD SWAP1 PUSH2 0x15B8 SWAP2 SWAP1 PUSH2 0x2E57 JUMP JUMPDEST PUSH1 0x40 MLOAD PUSH2 0x15C6 SWAP3 SWAP2 SWAP1 PUSH2 0x3462 JUMP JUMPDEST PUSH1 0x40 MLOAD DUP1 SWAP2 SUB SWAP1 KECCAK256 PUSH1 0x40 MLOAD PUSH1 0x20 ADD PUSH2 0x15E1 SWAP5 SWAP4 SWAP3 SWAP2 SWAP1 PUSH2 0x347B JUMP JUMPDEST PUSH1 0x40 MLOAD PUSH1 0x20 DUP2 DUP4 SUB SUB DUP2 MSTORE SWAP1 PUSH1 0x40 MSTORE DUP1 MLOAD SWAP1 PUSH1 0x20 ADD KECCAK256 PUSH2 0x1A7D JUMP JUMPDEST SWAP1 POP SWAP2 SWAP1 POP JUMP JUMPDEST PUSH1 0x0 DUP1 PUSH1 0x0 PUSH2 0x1612 DUP6 DUP6 PUSH2 0x1A97 JUMP JUMPDEST SWAP2 POP SWAP2 POP PUSH2 0x161F DUP2 PUSH2 0x1AE8 JUMP JUMPDEST DUP2 SWAP3 POP POP POP SWAP3 SWAP2 POP POP JUMP JUMPDEST DUP2 PUSH20 0xFFFFFFFFFFFFFFFFFFFFFFFFFFFFFFFFFFFFFFFF AND DUP4 PUSH20 0xFFFFFFFFFFFFFFFFFFFFFFFFFFFFFFFFFFFFFFFF AND SUB PUSH2 0x1698 JUMPI PUSH1 0x40 MLOAD PUSH32 0x8C379A000000000000000000000000000000000000000000000000000000000 DUP2 MSTORE PUSH1 0x4 ADD PUSH2 0x168F SWAP1 PUSH2 0x350C JUMP JUMPDEST PUSH1 0x40 MLOAD DUP1 SWAP2 SUB SWAP1 REVERT JUMPDEST DUP1 PUSH1 0x5 PUSH1 0x0 DUP6 PUSH20 0xFFFFFFFFFFFFFFFFFFFFFFFFFFFFFFFFFFFFFFFF AND PUSH20 0xFFFFFFFFFFFFFFFFFFFFFFFFFFFFFFFFFFFFFFFF AND DUP2 MSTORE PUSH1 0x20 ADD SWAP1 DUP2 MSTORE PUSH1 0x20 ADD PUSH1 0x0 KECCAK256 PUSH1 0x0 DUP5 PUSH20 0xFFFFFFFFFFFFFFFFFFFFFFFFFFFFFFFFFFFFFFFF AND PUSH20 0xFFFFFFFFFFFFFFFFFFFFFFFFFFFFFFFFFFFFFFFF AND DUP2 MSTORE PUSH1 0x20 ADD SWAP1 DUP2 MSTORE PUSH1 0x20 ADD PUSH1 0x0 KECCAK256 PUSH1 0x0 PUSH2 0x100 EXP DUP2 SLOAD DUP2 PUSH1 0xFF MUL NOT AND SWAP1 DUP4 ISZERO ISZERO MUL OR SWAP1 SSTORE POP DUP2 PUSH20 0xFFFFFFFFFFFFFFFFFFFFFFFFFFFFFFFFFFFFFFFF AND DUP4 PUSH20 0xFFFFFFFFFFFFFFFFFFFFFFFFFFFFFFFFFFFFFFFF AND PUSH32 0x17307EAB39AB6107E8899845AD3D59BD9653F200F220920489CA2B5937696C31 DUP4 PUSH1 0x40 MLOAD PUSH2 0x1789 SWAP2 SWAP1 PUSH2 0x23BB JUMP JUMPDEST PUSH1 0x40 MLOAD DUP1 SWAP2 SUB SWAP1 LOG3 POP POP POP JUMP JUMPDEST PUSH2 0x17A1 DUP5 DUP5 DUP5 PUSH2 0xEFA JUMP JUMPDEST PUSH2 0x17AD DUP5 DUP5 DUP5 DUP5 PUSH2 0x1C4E JUMP JUMPDEST PUSH2 0x17EC JUMPI PUSH1 0x40 MLOAD PUSH32 0x8C379A000000000000000000000000000000000000000000000000000000000 DUP2 MSTORE PUSH1 0x4 ADD PUSH2 0x17E3 SWAP1 PUSH2 0x359E JUMP JUMPDEST PUSH1 0x40 MLOAD DUP1 SWAP2 SUB SWAP1 REVERT JUMPDEST POP POP POP POP JUMP JUMPDEST PUSH1 0x60 PUSH2 0x17FD DUP3 PUSH2 0xD59 JUMP JUMPDEST PUSH1 0x0 PUSH1 0x6 PUSH1 0x0 DUP5 DUP2 MSTORE PUSH1 0x20 ADD SWAP1 DUP2 MSTORE PUSH1 0x20 ADD PUSH1 0x0 KECCAK256 DUP1 SLOAD PUSH2 0x181D SWAP1 PUSH2 0x2A3E JUMP JUMPDEST DUP1 PUSH1 0x1F ADD PUSH1 0x20 DUP1 SWAP2 DIV MUL PUSH1 0x20 ADD PUSH1 0x40 MLOAD SWAP1 DUP2 ADD PUSH1 0x40 MSTORE DUP1 SWAP3 SWAP2 SWAP1 DUP2 DUP2 MSTORE PUSH1 0x20 ADD DUP3 DUP1 SLOAD PUSH2 0x1849 SWAP1 PUSH2 0x2A3E JUMP JUMPDEST DUP1 ISZERO PUSH2 0x1896 JUMPI DUP1 PUSH1 0x1F LT PUSH2 0x186B JUMPI PUSH2 0x100 DUP1 DUP4 SLOAD DIV MUL DUP4 MSTORE SWAP2 PUSH1 0x20 ADD SWAP2 PUSH2 0x1896 JUMP JUMPDEST DUP3 ADD SWAP2 SWAP1 PUSH1 0x0 MSTORE PUSH1 0x20 PUSH1 0x0 KECCAK256 SWAP1 JUMPDEST DUP2 SLOAD DUP2 MSTORE SWAP1 PUSH1 0x1 ADD SWAP1 PUSH1 0x20 ADD DUP1 DUP4 GT PUSH2 0x1879 JUMPI DUP3 SWAP1 SUB PUSH1 0x1F AND DUP3 ADD SWAP2 JUMPDEST POP POP POP POP POP SWAP1 POP PUSH1 0x0 PUSH2 0x18A7 PUSH2 0x1DD5 JUMP JUMPDEST SWAP1 POP PUSH1 0x0 DUP2 MLOAD SUB PUSH2 0x18BC JUMPI DUP2 SWAP3 POP POP POP PUSH2 0x18FF JUMP JUMPDEST PUSH1 0x0 DUP3 MLOAD GT ISZERO PUSH2 0x18F1 JUMPI DUP1 DUP3 PUSH1 0x40 MLOAD PUSH1 0x20 ADD PUSH2 0x18D9 SWAP3 SWAP2 SWAP1 PUSH2 0x35FA JUMP JUMPDEST PUSH1 0x40 MLOAD PUSH1 0x20 DUP2 DUP4 SUB SUB DUP2 MSTORE SWAP1 PUSH1 0x40 MSTORE SWAP3 POP POP POP PUSH2 0x18FF JUMP JUMPDEST PUSH2 0x18FA DUP5 PUSH2 0x1DEC JUMP JUMPDEST SWAP3 POP POP POP JUMPDEST SWAP2 SWAP1 POP JUMP JUMPDEST PUSH1 0x0 DUP1 PUSH20 0xFFFFFFFFFFFFFFFFFFFFFFFFFFFFFFFFFFFFFFFF AND PUSH2 0x1926 DUP4 PUSH2 0x14FA JUMP JUMPDEST PUSH20 0xFFFFFFFFFFFFFFFFFFFFFFFFFFFFFFFFFFFFFFFF AND EQ ISZERO SWAP1 POP SWAP2 SWAP1 POP JUMP JUMPDEST PUSH1 0x1 DUP2 GT ISZERO PUSH2 0x1A65 JUMPI PUSH1 0x0 PUSH20 0xFFFFFFFFFFFFFFFFFFFFFFFFFFFFFFFFFFFFFFFF AND DUP5 PUSH20 0xFFFFFFFFFFFFFFFFFFFFFFFFFFFFFFFFFFFFFFFF AND EQ PUSH2 0x19D9 JUMPI DUP1 PUSH1 0x3 PUSH1 0x0 DUP7 PUSH20 0xFFFFFFFFFFFFFFFFFFFFFFFFFFFFFFFFFFFFFFFF AND PUSH20 0xFFFFFFFFFFFFFFFFFFFFFFFFFFFFFFFFFFFFFFFF AND DUP2 MSTORE PUSH1 0x20 ADD SWAP1 DUP2 MSTORE PUSH1 0x20 ADD PUSH1 0x0 KECCAK256 PUSH1 0x0 DUP3 DUP3 SLOAD PUSH2 0x19D1 SWAP2 SWAP1 PUSH2 0x361E JUMP JUMPDEST SWAP3 POP POP DUP2 SWAP1 SSTORE POP JUMPDEST PUSH1 0x0 PUSH20 0xFFFFFFFFFFFFFFFFFFFFFFFFFFFFFFFFFFFFFFFF AND DUP4 PUSH20 0xFFFFFFFFFFFFFFFFFFFFFFFFFFFFFFFFFFFFFFFF AND EQ PUSH2 0x1A64 JUMPI DUP1 PUSH1 0x3 PUSH1 0x0 DUP6 PUSH20 0xFFFFFFFFFFFFFFFFFFFFFFFFFFFFFFFFFFFFFFFF AND PUSH20 0xFFFFFFFFFFFFFFFFFFFFFFFFFFFFFFFFFFFFFFFF AND DUP2 MSTORE PUSH1 0x20 ADD SWAP1 DUP2 MSTORE PUSH1 0x20 ADD PUSH1 0x0 KECCAK256 PUSH1 0x0 DUP3 DUP3 SLOAD PUSH2 0x1A5C SWAP2 SWAP1 PUSH2 0x3652 JUMP JUMPDEST SWAP3 POP POP DUP2 SWAP1 SSTORE POP JUMPDEST JUMPDEST POP POP POP POP JUMP JUMPDEST PUSH2 0x1A77 DUP5 DUP5 DUP5 DUP5 PUSH2 0x1E54 JUMP JUMPDEST POP POP POP POP JUMP JUMPDEST PUSH1 0x0 PUSH2 0x1A90 PUSH2 0x1A8A PUSH2 0x1E5A JUMP JUMPDEST DUP4 PUSH2 0x1F74 JUMP JUMPDEST SWAP1 POP SWAP2 SWAP1 POP JUMP JUMPDEST PUSH1 0x0 DUP1 PUSH1 0x41 DUP4 MLOAD SUB PUSH2 0x1AD8 JUMPI PUSH1 0x0 DUP1 PUSH1 0x0 PUSH1 0x20 DUP7 ADD MLOAD SWAP3 POP PUSH1 0x40 DUP7 ADD MLOAD SWAP2 POP PUSH1 0x60 DUP7 ADD MLOAD PUSH1 0x0 BYTE SWAP1 POP PUSH2 0x1ACC DUP8 DUP3 DUP6 DUP6 PUSH2 0x1FA7 JUMP JUMPDEST SWAP5 POP SWAP5 POP POP POP POP PUSH2 0x1AE1 JUMP JUMPDEST PUSH1 0x0 PUSH1 0x2 SWAP2 POP SWAP2 POP JUMPDEST SWAP3 POP SWAP3 SWAP1 POP JUMP JUMPDEST PUSH1 0x0 PUSH1 0x4 DUP2 GT ISZERO PUSH2 0x1AFC JUMPI PUSH2 0x1AFB PUSH2 0x3686 JUMP JUMPDEST JUMPDEST DUP2 PUSH1 0x4 DUP2 GT ISZERO PUSH2 0x1B0F JUMPI PUSH2 0x1B0E PUSH2 0x3686 JUMP JUMPDEST JUMPDEST SUB ISZERO PUSH2 0x1C4B JUMPI PUSH1 0x1 PUSH1 0x4 DUP2 GT ISZERO PUSH2 0x1B29 JUMPI PUSH2 0x1B28 PUSH2 0x3686 JUMP JUMPDEST JUMPDEST DUP2 PUSH1 0x4 DUP2 GT ISZERO PUSH2 0x1B3C JUMPI PUSH2 0x1B3B PUSH2 0x3686 JUMP JUMPDEST JUMPDEST SUB PUSH2 0x1B7C JUMPI PUSH1 0x40 MLOAD PUSH32 0x8C379A000000000000000000000000000000000000000000000000000000000 DUP2 MSTORE PUSH1 0x4 ADD PUSH2 0x1B73 SWAP1 PUSH2 0x3701 JUMP JUMPDEST PUSH1 0x40 MLOAD DUP1 SWAP2 SUB SWAP1 REVERT JUMPDEST PUSH1 0x2 PUSH1 0x4 DUP2 GT ISZERO PUSH2 0x1B90 JUMPI PUSH2 0x1B8F PUSH2 0x3686 JUMP JUMPDEST JUMPDEST DUP2 PUSH1 0x4 DUP2 GT ISZERO PUSH2 0x1BA3 JUMPI PUSH2 0x1BA2 PUSH2 0x3686 JUMP JUMPDEST JUMPDEST SUB PUSH2 0x1BE3 JUMPI PUSH1 0x40 MLOAD PUSH32 0x8C379A000000000000000000000000000000000000000000000000000000000 DUP2 MSTORE PUSH1 0x4 ADD PUSH2 0x1BDA SWAP1 PUSH2 0x376D JUMP JUMPDEST PUSH1 0x40 MLOAD DUP1 SWAP2 SUB SWAP1 REVERT JUMPDEST PUSH1 0x3 PUSH1 0x4 DUP2 GT ISZERO PUSH2 0x1BF7 JUMPI PUSH2 0x1BF6 PUSH2 0x3686 JUMP JUMPDEST JUMPDEST DUP2 PUSH1 0x4 DUP2 GT ISZERO PUSH2 0x1C0A JUMPI PUSH2 0x1C09 PUSH2 0x3686 JUMP JUMPDEST JUMPDEST SUB PUSH2 0x1C4A JUMPI PUSH1 0x40 MLOAD PUSH32 0x8C379A000000000000000000000000000000000000000000000000000000000 DUP2 MSTORE PUSH1 0x4 ADD PUSH2 0x1C41 SWAP1 PUSH2 0x37FF JUMP JUMPDEST PUSH1 0x40 MLOAD DUP1 SWAP2 SUB SWAP1 REVERT JUMPDEST JUMPDEST POP JUMP JUMPDEST PUSH1 0x0 PUSH2 0x1C6F DUP5 PUSH20 0xFFFFFFFFFFFFFFFFFFFFFFFFFFFFFFFFFFFFFFFF AND PUSH2 0x2089 JUMP JUMPDEST ISZERO PUSH2 0x1DC8 JUMPI DUP4 PUSH20 0xFFFFFFFFFFFFFFFFFFFFFFFFFFFFFFFFFFFFFFFF AND PUSH4 0x150B7A02 PUSH2 0x1C98 PUSH2 0xDA4 JUMP JUMPDEST DUP8 DUP7 DUP7 PUSH1 0x40 MLOAD DUP6 PUSH4 0xFFFFFFFF AND PUSH1 0xE0 SHL DUP2 MSTORE PUSH1 0x4 ADD PUSH2 0x1CBA SWAP5 SWAP4 SWAP3 SWAP2 SWAP1 PUSH2 0x3874 JUMP JUMPDEST PUSH1 0x20 PUSH1 0x40 MLOAD DUP1 DUP4 SUB DUP2 PUSH1 0x0 DUP8 GAS CALL SWAP3 POP POP POP DUP1 ISZERO PUSH2 0x1CF6 JUMPI POP PUSH1 0x40 MLOAD RETURNDATASIZE PUSH1 0x1F NOT PUSH1 0x1F DUP3 ADD AND DUP3 ADD DUP1 PUSH1 0x40 MSTORE POP DUP2 ADD SWAP1 PUSH2 0x1CF3 SWAP2 SWAP1 PUSH2 0x38D5 JUMP JUMPDEST PUSH1 0x1 JUMPDEST PUSH2 0x1D78 JUMPI RETURNDATASIZE DUP1 PUSH1 0x0 DUP2 EQ PUSH2 0x1D26 JUMPI PUSH1 0x40 MLOAD SWAP2 POP PUSH1 0x1F NOT PUSH1 0x3F RETURNDATASIZE ADD AND DUP3 ADD PUSH1 0x40 MSTORE RETURNDATASIZE DUP3 MSTORE RETURNDATASIZE PUSH1 0x0 PUSH1 0x20 DUP5 ADD RETURNDATACOPY PUSH2 0x1D2B JUMP JUMPDEST PUSH1 0x60 SWAP2 POP JUMPDEST POP PUSH1 0x0 DUP2 MLOAD SUB PUSH2 0x1D70 JUMPI PUSH1 0x40 MLOAD PUSH32 0x8C379A000000000000000000000000000000000000000000000000000000000 DUP2 MSTORE PUSH1 0x4 ADD PUSH2 0x1D67 SWAP1 PUSH2 0x359E JUMP JUMPDEST PUSH1 0x40 MLOAD DUP1 SWAP2 SUB SWAP1 REVERT JUMPDEST DUP1 MLOAD DUP2 PUSH1 0x20 ADD REVERT JUMPDEST PUSH4 0x150B7A02 PUSH1 0xE0 SHL PUSH28 0xFFFFFFFFFFFFFFFFFFFFFFFFFFFFFFFFFFFFFFFFFFFFFFFFFFFFFFFF NOT AND DUP2 PUSH28 0xFFFFFFFFFFFFFFFFFFFFFFFFFFFFFFFFFFFFFFFFFFFFFFFFFFFFFFFF NOT AND EQ SWAP2 POP POP PUSH2 0x1DCD JUMP JUMPDEST PUSH1 0x1 SWAP1 POP JUMPDEST SWAP5 SWAP4 POP POP POP POP JUMP JUMPDEST PUSH1 0x60 PUSH1 0x40 MLOAD DUP1 PUSH1 0x20 ADD PUSH1 0x40 MSTORE DUP1 PUSH1 0x0 DUP2 MSTORE POP SWAP1 POP SWAP1 JUMP JUMPDEST PUSH1 0x60 PUSH2 0x1DF7 DUP3 PUSH2 0xD59 JUMP JUMPDEST PUSH1 0x0 PUSH2 0x1E01 PUSH2 0x1DD5 JUMP JUMPDEST SWAP1 POP PUSH1 0x0 DUP2 MLOAD GT PUSH2 0x1E21 JUMPI PUSH1 0x40 MLOAD DUP1 PUSH1 0x20 ADD PUSH1 0x40 MSTORE DUP1 PUSH1 0x0 DUP2 MSTORE POP PUSH2 0x1E4C JUMP JUMPDEST DUP1 PUSH2 0x1E2B DUP5 PUSH2 0x20AC JUMP JUMPDEST PUSH1 0x40 MLOAD PUSH1 0x20 ADD PUSH2 0x1E3C SWAP3 SWAP2 SWAP1 PUSH2 0x35FA JUMP JUMPDEST PUSH1 0x40 MLOAD PUSH1 0x20 DUP2 DUP4 SUB SUB DUP2 MSTORE SWAP1 PUSH1 0x40 MSTORE JUMPDEST SWAP2 POP POP SWAP2 SWAP1 POP JUMP JUMPDEST POP POP POP POP JUMP JUMPDEST PUSH1 0x0 PUSH32 0x0 PUSH20 0xFFFFFFFFFFFFFFFFFFFFFFFFFFFFFFFFFFFFFFFF AND ADDRESS PUSH20 0xFFFFFFFFFFFFFFFFFFFFFFFFFFFFFFFFFFFFFFFF AND EQ DUP1 ISZERO PUSH2 0x1ED6 JUMPI POP PUSH32 0x0 CHAINID EQ JUMPDEST ISZERO PUSH2 0x1F03 JUMPI PUSH32 0x0 SWAP1 POP PUSH2 0x1F71 JUMP JUMPDEST PUSH2 0x1F6E PUSH32 0x0 PUSH32 0x0 PUSH32 0x0 PUSH2 0x217A JUMP JUMPDEST SWAP1 POP JUMPDEST SWAP1 JUMP JUMPDEST PUSH1 0x0 DUP3 DUP3 PUSH1 0x40 MLOAD PUSH1 0x20 ADD PUSH2 0x1F89 SWAP3 SWAP2 SWAP1 PUSH2 0x396F JUMP JUMPDEST PUSH1 0x40 MLOAD PUSH1 0x20 DUP2 DUP4 SUB SUB DUP2 MSTORE SWAP1 PUSH1 0x40 MSTORE DUP1 MLOAD SWAP1 PUSH1 0x20 ADD KECCAK256 SWAP1 POP SWAP3 SWAP2 POP POP JUMP JUMPDEST PUSH1 0x0 DUP1 PUSH32 0x7FFFFFFFFFFFFFFFFFFFFFFFFFFFFFFF5D576E7357A4501DDFE92F46681B20A0 DUP4 PUSH1 0x0 SHR GT ISZERO PUSH2 0x1FE2 JUMPI PUSH1 0x0 PUSH1 0x3 SWAP2 POP SWAP2 POP PUSH2 0x2080 JUMP JUMPDEST PUSH1 0x0 PUSH1 0x1 DUP8 DUP8 DUP8 DUP8 PUSH1 0x40 MLOAD PUSH1 0x0 DUP2 MSTORE PUSH1 0x20 ADD PUSH1 0x40 MSTORE PUSH1 0x40 MLOAD PUSH2 0x2007 SWAP5 SWAP4 SWAP3 SWAP2 SWAP1 PUSH2 0x39C2 JUMP JUMPDEST PUSH1 0x20 PUSH1 0x40 MLOAD PUSH1 0x20 DUP2 SUB SWAP1 DUP1 DUP5 SUB SWAP1 DUP6 GAS STATICCALL ISZERO DUP1 ISZERO PUSH2 0x2029 JUMPI RETURNDATASIZE PUSH1 0x0 DUP1 RETURNDATACOPY RETURNDATASIZE PUSH1 0x0 REVERT JUMPDEST POP POP POP PUSH1 0x20 PUSH1 0x40 MLOAD SUB MLOAD SWAP1 POP PUSH1 0x0 PUSH20 0xFFFFFFFFFFFFFFFFFFFFFFFFFFFFFFFFFFFFFFFF AND DUP2 PUSH20 0xFFFFFFFFFFFFFFFFFFFFFFFFFFFFFFFFFFFFFFFF AND SUB PUSH2 0x2077 JUMPI PUSH1 0x0 PUSH1 0x1 SWAP3 POP SWAP3 POP POP PUSH2 0x2080 JUMP JUMPDEST DUP1 PUSH1 0x0 SWAP3 POP SWAP3 POP POP JUMPDEST SWAP5 POP SWAP5 SWAP3 POP POP POP JUMP JUMPDEST PUSH1 0x0 DUP1 DUP3 PUSH20 0xFFFFFFFFFFFFFFFFFFFFFFFFFFFFFFFFFFFFFFFF AND EXTCODESIZE GT SWAP1 POP SWAP2 SWAP1 POP JUMP JUMPDEST PUSH1 0x60 PUSH1 0x0 PUSH1 0x1 PUSH2 0x20BB DUP5 PUSH2 0x21B4 JUMP JUMPDEST ADD SWAP1 POP PUSH1 0x0 DUP2 PUSH8 0xFFFFFFFFFFFFFFFF DUP2 GT ISZERO PUSH2 0x20DA JUMPI PUSH2 0x20D9 PUSH2 0x2821 JUMP JUMPDEST JUMPDEST PUSH1 0x40 MLOAD SWAP1 DUP1 DUP3 MSTORE DUP1 PUSH1 0x1F ADD PUSH1 0x1F NOT AND PUSH1 0x20 ADD DUP3 ADD PUSH1 0x40 MSTORE DUP1 ISZERO PUSH2 0x210C JUMPI DUP2 PUSH1 0x20 ADD PUSH1 0x1 DUP3 MUL DUP1 CALLDATASIZE DUP4 CALLDATACOPY DUP1 DUP3 ADD SWAP2 POP POP SWAP1 POP JUMPDEST POP SWAP1 POP PUSH1 0x0 DUP3 PUSH1 0x20 ADD DUP3 ADD SWAP1 POP JUMPDEST PUSH1 0x1 ISZERO PUSH2 0x216F JUMPI DUP1 DUP1 PUSH1 0x1 SWAP1 SUB SWAP2 POP POP PUSH32 0x3031323334353637383961626364656600000000000000000000000000000000 PUSH1 0xA DUP7 MOD BYTE DUP2 MSTORE8 PUSH1 0xA DUP6 DUP2 PUSH2 0x2163 JUMPI PUSH2 0x2162 PUSH2 0x3A07 JUMP JUMPDEST JUMPDEST DIV SWAP5 POP PUSH1 0x0 DUP6 SUB PUSH2 0x211A JUMPI JUMPDEST DUP2 SWAP4 POP POP POP POP SWAP2 SWAP1 POP JUMP JUMPDEST PUSH1 0x0 DUP4 DUP4 DUP4 CHAINID ADDRESS PUSH1 0x40 MLOAD PUSH1 0x20 ADD PUSH2 0x2195 SWAP6 SWAP5 SWAP4 SWAP3 SWAP2 SWAP1 PUSH2 0x3A36 JUMP JUMPDEST PUSH1 0x40 MLOAD PUSH1 0x20 DUP2 DUP4 SUB SUB DUP2 MSTORE SWAP1 PUSH1 0x40 MSTORE DUP1 MLOAD SWAP1 PUSH1 0x20 ADD KECCAK256 SWAP1 POP SWAP4 SWAP3 POP POP POP JUMP JUMPDEST PUSH1 0x0 DUP1 PUSH1 0x0 SWAP1 POP PUSH27 0x184F03E93FF9F4DAA797ED6E38ED64BF6A1F010000000000000000 DUP4 LT PUSH2 0x2212 JUMPI PUSH27 0x184F03E93FF9F4DAA797ED6E38ED64BF6A1F010000000000000000 DUP4 DUP2 PUSH2 0x2208 JUMPI PUSH2 0x2207 PUSH2 0x3A07 JUMP JUMPDEST JUMPDEST DIV SWAP3 POP PUSH1 0x40 DUP2 ADD SWAP1 POP JUMPDEST PUSH14 0x4EE2D6D415B85ACEF8100000000 DUP4 LT PUSH2 0x224F JUMPI PUSH14 0x4EE2D6D415B85ACEF8100000000 DUP4 DUP2 PUSH2 0x2245 JUMPI PUSH2 0x2244 PUSH2 0x3A07 JUMP JUMPDEST JUMPDEST DIV SWAP3 POP PUSH1 0x20 DUP2 ADD SWAP1 POP JUMPDEST PUSH7 0x2386F26FC10000 DUP4 LT PUSH2 0x227E JUMPI PUSH7 0x2386F26FC10000 DUP4 DUP2 PUSH2 0x2274 JUMPI PUSH2 0x2273 PUSH2 0x3A07 JUMP JUMPDEST JUMPDEST DIV SWAP3 POP PUSH1 0x10 DUP2 ADD SWAP1 POP JUMPDEST PUSH4 0x5F5E100 DUP4 LT PUSH2 0x22A7 JUMPI PUSH4 0x5F5E100 DUP4 DUP2 PUSH2 0x229D JUMPI PUSH2 0x229C PUSH2 0x3A07 JUMP JUMPDEST JUMPDEST DIV SWAP3 POP PUSH1 0x8 DUP2 ADD SWAP1 POP JUMPDEST PUSH2 0x2710 DUP4 LT PUSH2 0x22CC JUMPI PUSH2 0x2710 DUP4 DUP2 PUSH2 0x22C2 JUMPI PUSH2 0x22C1 PUSH2 0x3A07 JUMP JUMPDEST JUMPDEST DIV SWAP3 POP PUSH1 0x4 DUP2 ADD SWAP1 POP JUMPDEST PUSH1 0x64 DUP4 LT PUSH2 0x22EF JUMPI PUSH1 0x64 DUP4 DUP2 PUSH2 0x22E5 JUMPI PUSH2 0x22E4 PUSH2 0x3A07 JUMP JUMPDEST JUMPDEST DIV SWAP3 POP PUSH1 0x2 DUP2 ADD SWAP1 POP JUMPDEST PUSH1 0xA DUP4 LT PUSH2 0x22FE JUMPI PUSH1 0x1 DUP2 ADD SWAP1 POP JUMPDEST DUP1 SWAP2 POP POP SWAP2 SWAP1 POP JUMP JUMPDEST PUSH1 0x0 PUSH1 0x40 MLOAD SWAP1 POP SWAP1 JUMP JUMPDEST PUSH1 0x0 DUP1 REVERT JUMPDEST PUSH1 0x0 DUP1 REVERT JUMPDEST PUSH1 0x0 PUSH32 0xFFFFFFFF00000000000000000000000000000000000000000000000000000000 DUP3 AND SWAP1 POP SWAP2 SWAP1 POP JUMP JUMPDEST PUSH2 0x2350 DUP2 PUSH2 0x231B JUMP JUMPDEST DUP2 EQ PUSH2 0x235B JUMPI PUSH1 0x0 DUP1 REVERT JUMPDEST POP JUMP JUMPDEST PUSH1 0x0 DUP2 CALLDATALOAD SWAP1 POP PUSH2 0x236D DUP2 PUSH2 0x2347 JUMP JUMPDEST SWAP3 SWAP2 POP POP JUMP JUMPDEST PUSH1 0x0 PUSH1 0x20 DUP3 DUP5 SUB SLT ISZERO PUSH2 0x2389 JUMPI PUSH2 0x2388 PUSH2 0x2311 JUMP JUMPDEST JUMPDEST PUSH1 0x0 PUSH2 0x2397 DUP5 DUP3 DUP6 ADD PUSH2 0x235E JUMP JUMPDEST SWAP2 POP POP SWAP3 SWAP2 POP POP JUMP JUMPDEST PUSH1 0x0 DUP2 ISZERO ISZERO SWAP1 POP SWAP2 SWAP1 POP JUMP JUMPDEST PUSH2 0x23B5 DUP2 PUSH2 0x23A0 JUMP JUMPDEST DUP3 MSTORE POP POP JUMP JUMPDEST PUSH1 0x0 PUSH1 0x20 DUP3 ADD SWAP1 POP PUSH2 0x23D0 PUSH1 0x0 DUP4 ADD DUP5 PUSH2 0x23AC JUMP JUMPDEST SWAP3 SWAP2 POP POP JUMP JUMPDEST PUSH1 0x0 DUP2 MLOAD SWAP1 POP SWAP2 SWAP1 POP JUMP JUMPDEST PUSH1 0x0 DUP3 DUP3 MSTORE PUSH1 0x20 DUP3 ADD SWAP1 POP SWAP3 SWAP2 POP POP JUMP JUMPDEST PUSH1 0x0 JUMPDEST DUP4 DUP2 LT ISZERO PUSH2 0x2410 JUMPI DUP1 DUP3 ADD MLOAD DUP2 DUP5 ADD MSTORE PUSH1 0x20 DUP2 ADD SWAP1 POP PUSH2 0x23F5 JUMP JUMPDEST PUSH1 0x0 DUP5 DUP5 ADD MSTORE POP POP POP POP JUMP JUMPDEST PUSH1 0x0 PUSH1 0x1F NOT PUSH1 0x1F DUP4 ADD AND SWAP1 POP SWAP2 SWAP1 POP JUMP JUMPDEST PUSH1 0x0 PUSH2 0x2438 DUP3 PUSH2 0x23D6 JUMP JUMPDEST PUSH2 0x2442 DUP2 DUP6 PUSH2 0x23E1 JUMP JUMPDEST SWAP4 POP PUSH2 0x2452 DUP2 DUP6 PUSH1 0x20 DUP7 ADD PUSH2 0x23F2 JUMP JUMPDEST PUSH2 0x245B DUP2 PUSH2 0x241C JUMP JUMPDEST DUP5 ADD SWAP2 POP POP SWAP3 SWAP2 POP POP JUMP JUMPDEST PUSH1 0x0 PUSH1 0x20 DUP3 ADD SWAP1 POP DUP2 DUP2 SUB PUSH1 0x0 DUP4 ADD MSTORE PUSH2 0x2480 DUP2 DUP5 PUSH2 0x242D JUMP JUMPDEST SWAP1 POP SWAP3 SWAP2 POP POP JUMP JUMPDEST PUSH1 0x0 DUP2 SWAP1 POP SWAP2 SWAP1 POP JUMP JUMPDEST PUSH2 0x249B DUP2 PUSH2 0x2488 JUMP JUMPDEST DUP2 EQ PUSH2 0x24A6 JUMPI PUSH1 0x0 DUP1 REVERT JUMPDEST POP JUMP JUMPDEST PUSH1 0x0 DUP2 CALLDATALOAD SWAP1 POP PUSH2 0x24B8 DUP2 PUSH2 0x2492 JUMP JUMPDEST SWAP3 SWAP2 POP POP JUMP JUMPDEST PUSH1 0x0 PUSH1 0x20 DUP3 DUP5 SUB SLT ISZERO PUSH2 0x24D4 JUMPI PUSH2 0x24D3 PUSH2 0x2311 JUMP JUMPDEST JUMPDEST PUSH1 0x0 PUSH2 0x24E2 DUP5 DUP3 DUP6 ADD PUSH2 0x24A9 JUMP JUMPDEST SWAP2 POP POP SWAP3 SWAP2 POP POP JUMP JUMPDEST PUSH1 0x0 PUSH20 0xFFFFFFFFFFFFFFFFFFFFFFFFFFFFFFFFFFFFFFFF DUP3 AND SWAP1 POP SWAP2 SWAP1 POP JUMP JUMPDEST PUSH1 0x0 PUSH2 0x2516 DUP3 PUSH2 0x24EB JUMP JUMPDEST SWAP1 POP SWAP2 SWAP1 POP JUMP JUMPDEST PUSH2 0x2526 DUP2 PUSH2 0x250B JUMP JUMPDEST DUP3 MSTORE POP POP JUMP JUMPDEST PUSH1 0x0 PUSH1 0x20 DUP3 ADD SWAP1 POP PUSH2 0x2541 PUSH1 0x0 DUP4 ADD DUP5 PUSH2 0x251D JUMP JUMPDEST SWAP3 SWAP2 POP POP JUMP JUMPDEST PUSH2 0x2550 DUP2 PUSH2 0x250B JUMP JUMPDEST DUP2 EQ PUSH2 0x255B JUMPI PUSH1 0x0 DUP1 REVERT JUMPDEST POP JUMP JUMPDEST PUSH1 0x0 DUP2 CALLDATALOAD SWAP1 POP PUSH2 0x256D DUP2 PUSH2 0x2547 JUMP JUMPDEST SWAP3 SWAP2 POP POP JUMP JUMPDEST PUSH1 0x0 DUP1 PUSH1 0x40 DUP4 DUP6 SUB SLT ISZERO PUSH2 0x258A JUMPI PUSH2 0x2589 PUSH2 0x2311 JUMP JUMPDEST JUMPDEST PUSH1 0x0 PUSH2 0x2598 DUP6 DUP3 DUP7 ADD PUSH2 0x255E JUMP JUMPDEST SWAP3 POP POP PUSH1 0x20 PUSH2 0x25A9 DUP6 DUP3 DUP7 ADD PUSH2 0x24A9 JUMP JUMPDEST SWAP2 POP POP SWAP3 POP SWAP3 SWAP1 POP JUMP JUMPDEST PUSH1 0x0 DUP1 PUSH1 0x0 PUSH1 0x60 DUP5 DUP7 SUB SLT ISZERO PUSH2 0x25CC JUMPI PUSH2 0x25CB PUSH2 0x2311 JUMP JUMPDEST JUMPDEST PUSH1 0x0 PUSH2 0x25DA DUP7 DUP3 DUP8 ADD PUSH2 0x255E JUMP JUMPDEST SWAP4 POP POP PUSH1 0x20 PUSH2 0x25EB DUP7 DUP3 DUP8 ADD PUSH2 0x255E JUMP JUMPDEST SWAP3 POP POP PUSH1 0x40 PUSH2 0x25FC DUP7 DUP3 DUP8 ADD PUSH2 0x24A9 JUMP JUMPDEST SWAP2 POP POP SWAP3 POP SWAP3 POP SWAP3 JUMP JUMPDEST PUSH1 0x0 DUP1 REVERT JUMPDEST PUSH1 0x0 DUP1 REVERT JUMPDEST PUSH1 0x0 DUP1 REVERT JUMPDEST PUSH1 0x0 DUP1 DUP4 PUSH1 0x1F DUP5 ADD SLT PUSH2 0x262B JUMPI PUSH2 0x262A PUSH2 0x2606 JUMP JUMPDEST JUMPDEST DUP3 CALLDATALOAD SWAP1 POP PUSH8 0xFFFFFFFFFFFFFFFF DUP2 GT ISZERO PUSH2 0x2648 JUMPI PUSH2 0x2647 PUSH2 0x260B JUMP JUMPDEST JUMPDEST PUSH1 0x20 DUP4 ADD SWAP2 POP DUP4 PUSH1 0x20 DUP3 MUL DUP4 ADD GT ISZERO PUSH2 0x2664 JUMPI PUSH2 0x2663 PUSH2 0x2610 JUMP JUMPDEST JUMPDEST SWAP3 POP SWAP3 SWAP1 POP JUMP JUMPDEST PUSH1 0x0 DUP1 PUSH1 0x20 DUP4 DUP6 SUB SLT ISZERO PUSH2 0x2682 JUMPI PUSH2 0x2681 PUSH2 0x2311 JUMP JUMPDEST JUMPDEST PUSH1 0x0 DUP4 ADD CALLDATALOAD PUSH8 0xFFFFFFFFFFFFFFFF DUP2 GT ISZERO PUSH2 0x26A0 JUMPI PUSH2 0x269F PUSH2 0x2316 JUMP JUMPDEST JUMPDEST PUSH2 0x26AC DUP6 DUP3 DUP7 ADD PUSH2 0x2615 JUMP JUMPDEST SWAP3 POP SWAP3 POP POP SWAP3 POP SWAP3 SWAP1 POP JUMP JUMPDEST PUSH1 0x0 PUSH1 0x20 DUP3 DUP5 SUB SLT ISZERO PUSH2 0x26CE JUMPI PUSH2 0x26CD PUSH2 0x2311 JUMP JUMPDEST JUMPDEST PUSH1 0x0 PUSH2 0x26DC DUP5 DUP3 DUP6 ADD PUSH2 0x255E JUMP JUMPDEST SWAP2 POP POP SWAP3 SWAP2 POP POP JUMP JUMPDEST PUSH2 0x26EE DUP2 PUSH2 0x2488 JUMP JUMPDEST DUP3 MSTORE POP POP JUMP JUMPDEST PUSH1 0x0 PUSH1 0x20 DUP3 ADD SWAP1 POP PUSH2 0x2709 PUSH1 0x0 DUP4 ADD DUP5 PUSH2 0x26E5 JUMP JUMPDEST SWAP3 SWAP2 POP POP JUMP JUMPDEST PUSH1 0x0 DUP2 SWAP1 POP SWAP2 SWAP1 POP JUMP JUMPDEST PUSH2 0x2722 DUP2 PUSH2 0x270F JUMP JUMPDEST DUP3 MSTORE POP POP JUMP JUMPDEST PUSH1 0x0 PUSH1 0x20 DUP3 ADD SWAP1 POP PUSH2 0x273D PUSH1 0x0 DUP4 ADD DUP5 PUSH2 0x2719 JUMP JUMPDEST SWAP3 SWAP2 POP POP JUMP JUMPDEST PUSH1 0x0 DUP1 REVERT JUMPDEST PUSH1 0x0 PUSH1 0x80 DUP3 DUP5 SUB SLT ISZERO PUSH2 0x275E JUMPI PUSH2 0x275D PUSH2 0x2743 JUMP JUMPDEST JUMPDEST DUP2 SWAP1 POP SWAP3 SWAP2 POP POP JUMP JUMPDEST PUSH1 0x0 PUSH1 0x20 DUP3 DUP5 SUB SLT ISZERO PUSH2 0x277D JUMPI PUSH2 0x277C PUSH2 0x2311 JUMP JUMPDEST JUMPDEST PUSH1 0x0 DUP3 ADD CALLDATALOAD PUSH8 0xFFFFFFFFFFFFFFFF DUP2 GT ISZERO PUSH2 0x279B JUMPI PUSH2 0x279A PUSH2 0x2316 JUMP JUMPDEST JUMPDEST PUSH2 0x27A7 DUP5 DUP3 DUP6 ADD PUSH2 0x2748 JUMP JUMPDEST SWAP2 POP POP SWAP3 SWAP2 POP POP JUMP JUMPDEST PUSH2 0x27B9 DUP2 PUSH2 0x23A0 JUMP JUMPDEST DUP2 EQ PUSH2 0x27C4 JUMPI PUSH1 0x0 DUP1 REVERT JUMPDEST POP JUMP JUMPDEST PUSH1 0x0 DUP2 CALLDATALOAD SWAP1 POP PUSH2 0x27D6 DUP2 PUSH2 0x27B0 JUMP JUMPDEST SWAP3 SWAP2 POP POP JUMP JUMPDEST PUSH1 0x0 DUP1 PUSH1 0x40 DUP4 DUP6 SUB SLT ISZERO PUSH2 0x27F3 JUMPI PUSH2 0x27F2 PUSH2 0x2311 JUMP JUMPDEST JUMPDEST PUSH1 0x0 PUSH2 0x2801 DUP6 DUP3 DUP7 ADD PUSH2 0x255E JUMP JUMPDEST SWAP3 POP POP PUSH1 0x20 PUSH2 0x2812 DUP6 DUP3 DUP7 ADD PUSH2 0x27C7 JUMP JUMPDEST SWAP2 POP POP SWAP3 POP SWAP3 SWAP1 POP JUMP JUMPDEST PUSH1 0x0 DUP1 REVERT JUMPDEST PUSH32 0x4E487B7100000000000000000000000000000000000000000000000000000000 PUSH1 0x0 MSTORE PUSH1 0x41 PUSH1 0x4 MSTORE PUSH1 0x24 PUSH1 0x0 REVERT JUMPDEST PUSH2 0x2859 DUP3 PUSH2 0x241C JUMP JUMPDEST DUP2 ADD DUP2 DUP2 LT PUSH8 0xFFFFFFFFFFFFFFFF DUP3 GT OR ISZERO PUSH2 0x2878 JUMPI PUSH2 0x2877 PUSH2 0x2821 JUMP JUMPDEST JUMPDEST DUP1 PUSH1 0x40 MSTORE POP POP POP JUMP JUMPDEST PUSH1 0x0 PUSH2 0x288B PUSH2 0x2307 JUMP JUMPDEST SWAP1 POP PUSH2 0x2897 DUP3 DUP3 PUSH2 0x2850 JUMP JUMPDEST SWAP2 SWAP1 POP JUMP JUMPDEST PUSH1 0x0 PUSH8 0xFFFFFFFFFFFFFFFF DUP3 GT ISZERO PUSH2 0x28B7 JUMPI PUSH2 0x28B6 PUSH2 0x2821 JUMP JUMPDEST JUMPDEST PUSH2 0x28C0 DUP3 PUSH2 0x241C JUMP JUMPDEST SWAP1 POP PUSH1 0x20 DUP2 ADD SWAP1 POP SWAP2 SWAP1 POP JUMP JUMPDEST DUP3 DUP2 DUP4 CALLDATACOPY PUSH1 0x0 DUP4 DUP4 ADD MSTORE POP POP POP JUMP JUMPDEST PUSH1 0x0 PUSH2 0x28EF PUSH2 0x28EA DUP5 PUSH2 0x289C JUMP JUMPDEST PUSH2 0x2881 JUMP JUMPDEST SWAP1 POP DUP3 DUP2 MSTORE PUSH1 0x20 DUP2 ADD DUP5 DUP5 DUP5 ADD GT ISZERO PUSH2 0x290B JUMPI PUSH2 0x290A PUSH2 0x281C JUMP JUMPDEST JUMPDEST PUSH2 0x2916 DUP5 DUP3 DUP6 PUSH2 0x28CD JUMP JUMPDEST POP SWAP4 SWAP3 POP POP POP JUMP JUMPDEST PUSH1 0x0 DUP3 PUSH1 0x1F DUP4 ADD SLT PUSH2 0x2933 JUMPI PUSH2 0x2932 PUSH2 0x2606 JUMP JUMPDEST JUMPDEST DUP2 CALLDATALOAD PUSH2 0x2943 DUP5 DUP3 PUSH1 0x20 DUP7 ADD PUSH2 0x28DC JUMP JUMPDEST SWAP2 POP POP SWAP3 SWAP2 POP POP JUMP JUMPDEST PUSH1 0x0 DUP1 PUSH1 0x0 DUP1 PUSH1 0x80 DUP6 DUP8 SUB SLT ISZERO PUSH2 0x2966 JUMPI PUSH2 0x2965 PUSH2 0x2311 JUMP JUMPDEST JUMPDEST PUSH1 0x0 PUSH2 0x2974 DUP8 DUP3 DUP9 ADD PUSH2 0x255E JUMP JUMPDEST SWAP5 POP POP PUSH1 0x20 PUSH2 0x2985 DUP8 DUP3 DUP9 ADD PUSH2 0x255E JUMP JUMPDEST SWAP4 POP POP PUSH1 0x40 PUSH2 0x2996 DUP8 DUP3 DUP9 ADD PUSH2 0x24A9 JUMP JUMPDEST SWAP3 POP POP PUSH1 0x60 DUP6 ADD CALLDATALOAD PUSH8 0xFFFFFFFFFFFFFFFF DUP2 GT ISZERO PUSH2 0x29B7 JUMPI PUSH2 0x29B6 PUSH2 0x2316 JUMP JUMPDEST JUMPDEST PUSH2 0x29C3 DUP8 DUP3 DUP9 ADD PUSH2 0x291E JUMP JUMPDEST SWAP2 POP POP SWAP3 SWAP6 SWAP2 SWAP5 POP SWAP3 POP JUMP JUMPDEST PUSH1 0x0 DUP1 PUSH1 0x40 DUP4 DUP6 SUB SLT ISZERO PUSH2 0x29E6 JUMPI PUSH2 0x29E5 PUSH2 0x2311 JUMP JUMPDEST JUMPDEST PUSH1 0x0 PUSH2 0x29F4 DUP6 DUP3 DUP7 ADD PUSH2 0x255E JUMP JUMPDEST SWAP3 POP POP PUSH1 0x20 PUSH2 0x2A05 DUP6 DUP3 DUP7 ADD PUSH2 0x255E JUMP JUMPDEST SWAP2 POP POP SWAP3 POP SWAP3 SWAP1 POP JUMP JUMPDEST PUSH32 0x4E487B7100000000000000000000000000000000000000000000000000000000 PUSH1 0x0 MSTORE PUSH1 0x22 PUSH1 0x4 MSTORE PUSH1 0x24 PUSH1 0x0 REVERT JUMPDEST PUSH1 0x0 PUSH1 0x2 DUP3 DIV SWAP1 POP PUSH1 0x1 DUP3 AND DUP1 PUSH2 0x2A56 JUMPI PUSH1 0x7F DUP3 AND SWAP2 POP JUMPDEST PUSH1 0x20 DUP3 LT DUP2 SUB PUSH2 0x2A69 JUMPI PUSH2 0x2A68 PUSH2 0x2A0F JUMP JUMPDEST JUMPDEST POP SWAP2 SWAP1 POP JUMP JUMPDEST PUSH32 0x4552433732313A20617070726F76616C20746F2063757272656E74206F776E65 PUSH1 0x0 DUP3 ADD MSTORE PUSH32 0x7200000000000000000000000000000000000000000000000000000000000000 PUSH1 0x20 DUP3 ADD MSTORE POP JUMP JUMPDEST PUSH1 0x0 PUSH2 0x2ACB PUSH1 0x21 DUP4 PUSH2 0x23E1 JUMP JUMPDEST SWAP2 POP PUSH2 0x2AD6 DUP3 PUSH2 0x2A6F JUMP JUMPDEST PUSH1 0x40 DUP3 ADD SWAP1 POP SWAP2 SWAP1 POP JUMP JUMPDEST PUSH1 0x0 PUSH1 0x20 DUP3 ADD SWAP1 POP DUP2 DUP2 SUB PUSH1 0x0 DUP4 ADD MSTORE PUSH2 0x2AFA DUP2 PUSH2 0x2ABE JUMP JUMPDEST SWAP1 POP SWAP2 SWAP1 POP JUMP JUMPDEST PUSH32 0x4552433732313A20617070726F76652063616C6C6572206973206E6F7420746F PUSH1 0x0 DUP3 ADD MSTORE PUSH32 0x6B656E206F776E6572206F7220617070726F76656420666F7220616C6C000000 PUSH1 0x20 DUP3 ADD MSTORE POP JUMP JUMPDEST PUSH1 0x0 PUSH2 0x2B5D PUSH1 0x3D DUP4 PUSH2 0x23E1 JUMP JUMPDEST SWAP2 POP PUSH2 0x2B68 DUP3 PUSH2 0x2B01 JUMP JUMPDEST PUSH1 0x40 DUP3 ADD SWAP1 POP SWAP2 SWAP1 POP JUMP JUMPDEST PUSH1 0x0 PUSH1 0x20 DUP3 ADD SWAP1 POP DUP2 DUP2 SUB PUSH1 0x0 DUP4 ADD MSTORE PUSH2 0x2B8C DUP2 PUSH2 0x2B50 JUMP JUMPDEST SWAP1 POP SWAP2 SWAP1 POP JUMP JUMPDEST PUSH32 0x4552433732313A2063616C6C6572206973206E6F7420746F6B656E206F776E65 PUSH1 0x0 DUP3 ADD MSTORE PUSH32 0x72206F7220617070726F76656400000000000000000000000000000000000000 PUSH1 0x20 DUP3 ADD MSTORE POP JUMP JUMPDEST PUSH1 0x0 PUSH2 0x2BEF PUSH1 0x2D DUP4 PUSH2 0x23E1 JUMP JUMPDEST SWAP2 POP PUSH2 0x2BFA DUP3 PUSH2 0x2B93 JUMP JUMPDEST PUSH1 0x40 DUP3 ADD SWAP1 POP SWAP2 SWAP1 POP JUMP JUMPDEST PUSH1 0x0 PUSH1 0x20 DUP3 ADD SWAP1 POP DUP2 DUP2 SUB PUSH1 0x0 DUP4 ADD MSTORE PUSH2 0x2C1E DUP2 PUSH2 0x2BE2 JUMP JUMPDEST SWAP1 POP SWAP2 SWAP1 POP JUMP JUMPDEST PUSH32 0x4E487B7100000000000000000000000000000000000000000000000000000000 PUSH1 0x0 MSTORE PUSH1 0x32 PUSH1 0x4 MSTORE PUSH1 0x24 PUSH1 0x0 REVERT JUMPDEST PUSH1 0x0 DUP1 REVERT JUMPDEST PUSH1 0x0 DUP1 REVERT JUMPDEST PUSH1 0x0 DUP1 REVERT JUMPDEST PUSH1 0x0 DUP3 CALLDATALOAD PUSH1 0x1 PUSH1 0x80 SUB DUP4 CALLDATASIZE SUB SUB DUP2 SLT PUSH2 0x2C7F JUMPI PUSH2 0x2C7E PUSH2 0x2C54 JUMP JUMPDEST JUMPDEST DUP1 DUP4 ADD SWAP2 POP POP SWAP3 SWAP2 POP POP JUMP JUMPDEST PUSH1 0x0 DUP1 DUP4 CALLDATALOAD PUSH1 0x1 PUSH1 0x20 SUB DUP5 CALLDATASIZE SUB SUB DUP2 SLT PUSH2 0x2CA8 JUMPI PUSH2 0x2CA7 PUSH2 0x2C54 JUMP JUMPDEST JUMPDEST DUP1 DUP5 ADD SWAP3 POP DUP3 CALLDATALOAD SWAP2 POP PUSH8 0xFFFFFFFFFFFFFFFF DUP3 GT ISZERO PUSH2 0x2CCA JUMPI PUSH2 0x2CC9 PUSH2 0x2C59 JUMP JUMPDEST JUMPDEST PUSH1 0x20 DUP4 ADD SWAP3 POP PUSH1 0x1 DUP3 MUL CALLDATASIZE SUB DUP4 SGT ISZERO PUSH2 0x2CE6 JUMPI PUSH2 0x2CE5 PUSH2 0x2C5E JUMP JUMPDEST JUMPDEST POP SWAP3 POP SWAP3 SWAP1 POP JUMP JUMPDEST PUSH32 0x4E487B7100000000000000000000000000000000000000000000000000000000 PUSH1 0x0 MSTORE PUSH1 0x11 PUSH1 0x4 MSTORE PUSH1 0x24 PUSH1 0x0 REVERT JUMPDEST PUSH1 0x0 PUSH4 0xFFFFFFFF DUP3 AND SWAP1 POP SWAP2 SWAP1 POP JUMP JUMPDEST PUSH1 0x0 PUSH2 0x2D38 DUP3 PUSH2 0x2D1D JUMP JUMPDEST SWAP2 POP PUSH4 0xFFFFFFFF DUP3 SUB PUSH2 0x2D4E JUMPI PUSH2 0x2D4D PUSH2 0x2CEE JUMP JUMPDEST JUMPDEST PUSH1 0x1 DUP3 ADD SWAP1 POP SWAP2 SWAP1 POP JUMP JUMPDEST PUSH32 0x4552433732313A20696E76616C696420746F6B656E2049440000000000000000 PUSH1 0x0 DUP3 ADD MSTORE POP JUMP JUMPDEST PUSH1 0x0 PUSH2 0x2D8F PUSH1 0x18 DUP4 PUSH2 0x23E1 JUMP JUMPDEST SWAP2 POP PUSH2 0x2D9A DUP3 PUSH2 0x2D59 JUMP JUMPDEST PUSH1 0x20 DUP3 ADD SWAP1 POP SWAP2 SWAP1 POP JUMP JUMPDEST PUSH1 0x0 PUSH1 0x20 DUP3 ADD SWAP1 POP DUP2 DUP2 SUB PUSH1 0x0 DUP4 ADD MSTORE PUSH2 0x2DBE DUP2 PUSH2 0x2D82 JUMP JUMPDEST SWAP1 POP SWAP2 SWAP1 POP JUMP JUMPDEST PUSH32 0x4552433732313A2061646472657373207A65726F206973206E6F742061207661 PUSH1 0x0 DUP3 ADD MSTORE PUSH32 0x6C6964206F776E65720000000000000000000000000000000000000000000000 PUSH1 0x20 DUP3 ADD MSTORE POP JUMP JUMPDEST PUSH1 0x0 PUSH2 0x2E21 PUSH1 0x29 DUP4 PUSH2 0x23E1 JUMP JUMPDEST SWAP2 POP PUSH2 0x2E2C DUP3 PUSH2 0x2DC5 JUMP JUMPDEST PUSH1 0x40 DUP3 ADD SWAP1 POP SWAP2 SWAP1 POP JUMP JUMPDEST PUSH1 0x0 PUSH1 0x20 DUP3 ADD SWAP1 POP DUP2 DUP2 SUB PUSH1 0x0 DUP4 ADD MSTORE PUSH2 0x2E50 DUP2 PUSH2 0x2E14 JUMP JUMPDEST SWAP1 POP SWAP2 SWAP1 POP JUMP JUMPDEST PUSH1 0x0 DUP1 DUP4 CALLDATALOAD PUSH1 0x1 PUSH1 0x20 SUB DUP5 CALLDATASIZE SUB SUB DUP2 SLT PUSH2 0x2E74 JUMPI PUSH2 0x2E73 PUSH2 0x2C54 JUMP JUMPDEST JUMPDEST DUP1 DUP5 ADD SWAP3 POP DUP3 CALLDATALOAD SWAP2 POP PUSH8 0xFFFFFFFFFFFFFFFF DUP3 GT ISZERO PUSH2 0x2E96 JUMPI PUSH2 0x2E95 PUSH2 0x2C59 JUMP JUMPDEST JUMPDEST PUSH1 0x20 DUP4 ADD SWAP3 POP PUSH1 0x1 DUP3 MUL CALLDATASIZE SUB DUP4 SGT ISZERO PUSH2 0x2EB2 JUMPI PUSH2 0x2EB1 PUSH2 0x2C5E JUMP JUMPDEST JUMPDEST POP SWAP3 POP SWAP3 SWAP1 POP JUMP JUMPDEST PUSH32 0x4552433732313A207472616E736665722066726F6D20696E636F727265637420 PUSH1 0x0 DUP3 ADD MSTORE PUSH32 0x6F776E6572000000000000000000000000000000000000000000000000000000 PUSH1 0x20 DUP3 ADD MSTORE POP JUMP JUMPDEST PUSH1 0x0 PUSH2 0x2F16 PUSH1 0x25 DUP4 PUSH2 0x23E1 JUMP JUMPDEST SWAP2 POP PUSH2 0x2F21 DUP3 PUSH2 0x2EBA JUMP JUMPDEST PUSH1 0x40 DUP3 ADD SWAP1 POP SWAP2 SWAP1 POP JUMP JUMPDEST PUSH1 0x0 PUSH1 0x20 DUP3 ADD SWAP1 POP DUP2 DUP2 SUB PUSH1 0x0 DUP4 ADD MSTORE PUSH2 0x2F45 DUP2 PUSH2 0x2F09 JUMP JUMPDEST SWAP1 POP SWAP2 SWAP1 POP JUMP JUMPDEST PUSH32 0x4552433732313A207472616E7366657220746F20746865207A65726F20616464 PUSH1 0x0 DUP3 ADD MSTORE PUSH32 0x7265737300000000000000000000000000000000000000000000000000000000 PUSH1 0x20 DUP3 ADD MSTORE POP JUMP JUMPDEST PUSH1 0x0 PUSH2 0x2FA8 PUSH1 0x24 DUP4 PUSH2 0x23E1 JUMP JUMPDEST SWAP2 POP PUSH2 0x2FB3 DUP3 PUSH2 0x2F4C JUMP JUMPDEST PUSH1 0x40 DUP3 ADD SWAP1 POP SWAP2 SWAP1 POP JUMP JUMPDEST PUSH1 0x0 PUSH1 0x20 DUP3 ADD SWAP1 POP DUP2 DUP2 SUB PUSH1 0x0 DUP4 ADD MSTORE PUSH2 0x2FD7 DUP2 PUSH2 0x2F9B JUMP JUMPDEST SWAP1 POP SWAP2 SWAP1 POP JUMP JUMPDEST PUSH32 0x5265656E7472616E637947756172643A207265656E7472616E742063616C6C00 PUSH1 0x0 DUP3 ADD MSTORE POP JUMP JUMPDEST PUSH1 0x0 PUSH2 0x3014 PUSH1 0x1F DUP4 PUSH2 0x23E1 JUMP JUMPDEST SWAP2 POP PUSH2 0x301F DUP3 PUSH2 0x2FDE JUMP JUMPDEST PUSH1 0x20 DUP3 ADD SWAP1 POP SWAP2 SWAP1 POP JUMP JUMPDEST PUSH1 0x0 PUSH1 0x20 DUP3 ADD SWAP1 POP DUP2 DUP2 SUB PUSH1 0x0 DUP4 ADD MSTORE PUSH2 0x3043 DUP2 PUSH2 0x3007 JUMP JUMPDEST SWAP1 POP SWAP2 SWAP1 POP JUMP JUMPDEST PUSH32 0x4552433732313A206D696E7420746F20746865207A65726F2061646472657373 PUSH1 0x0 DUP3 ADD MSTORE POP JUMP JUMPDEST PUSH1 0x0 PUSH2 0x3080 PUSH1 0x20 DUP4 PUSH2 0x23E1 JUMP JUMPDEST SWAP2 POP PUSH2 0x308B DUP3 PUSH2 0x304A JUMP JUMPDEST PUSH1 0x20 DUP3 ADD SWAP1 POP SWAP2 SWAP1 POP JUMP JUMPDEST PUSH1 0x0 PUSH1 0x20 DUP3 ADD SWAP1 POP DUP2 DUP2 SUB PUSH1 0x0 DUP4 ADD MSTORE PUSH2 0x30AF DUP2 PUSH2 0x3073 JUMP JUMPDEST SWAP1 POP SWAP2 SWAP1 POP JUMP JUMPDEST PUSH32 0x4552433732313A20746F6B656E20616C7265616479206D696E74656400000000 PUSH1 0x0 DUP3 ADD MSTORE POP JUMP JUMPDEST PUSH1 0x0 PUSH2 0x30EC PUSH1 0x1C DUP4 PUSH2 0x23E1 JUMP JUMPDEST SWAP2 POP PUSH2 0x30F7 DUP3 PUSH2 0x30B6 JUMP JUMPDEST PUSH1 0x20 DUP3 ADD SWAP1 POP SWAP2 SWAP1 POP JUMP JUMPDEST PUSH1 0x0 PUSH1 0x20 DUP3 ADD SWAP1 POP DUP2 DUP2 SUB PUSH1 0x0 DUP4 ADD MSTORE PUSH2 0x311B DUP2 PUSH2 0x30DF JUMP JUMPDEST SWAP1 POP SWAP2 SWAP1 POP JUMP JUMPDEST PUSH32 0x45524337323155524953746F726167653A2055524920736574206F66206E6F6E PUSH1 0x0 DUP3 ADD MSTORE PUSH32 0x6578697374656E7420746F6B656E000000000000000000000000000000000000 PUSH1 0x20 DUP3 ADD MSTORE POP JUMP JUMPDEST PUSH1 0x0 PUSH2 0x317E PUSH1 0x2E DUP4 PUSH2 0x23E1 JUMP JUMPDEST SWAP2 POP PUSH2 0x3189 DUP3 PUSH2 0x3122 JUMP JUMPDEST PUSH1 0x40 DUP3 ADD SWAP1 POP SWAP2 SWAP1 POP JUMP JUMPDEST PUSH1 0x0 PUSH1 0x20 DUP3 ADD SWAP1 POP DUP2 DUP2 SUB PUSH1 0x0 DUP4 ADD MSTORE PUSH2 0x31AD DUP2 PUSH2 0x3171 JUMP JUMPDEST SWAP1 POP SWAP2 SWAP1 POP JUMP JUMPDEST PUSH1 0x0 DUP2 SWAP1 POP DUP2 PUSH1 0x0 MSTORE PUSH1 0x20 PUSH1 0x0 KECCAK256 SWAP1 POP SWAP2 SWAP1 POP JUMP JUMPDEST PUSH1 0x0 PUSH1 0x20 PUSH1 0x1F DUP4 ADD DIV SWAP1 POP SWAP2 SWAP1 POP JUMP JUMPDEST PUSH1 0x0 DUP3 DUP3 SHL SWAP1 POP SWAP3 SWAP2 POP POP JUMP JUMPDEST PUSH1 0x0 PUSH1 0x8 DUP4 MUL PUSH2 0x3216 PUSH32 0xFFFFFFFFFFFFFFFFFFFFFFFFFFFFFFFFFFFFFFFFFFFFFFFFFFFFFFFFFFFFFFFF DUP3 PUSH2 0x31D9 JUMP JUMPDEST PUSH2 0x3220 DUP7 DUP4 PUSH2 0x31D9 JUMP JUMPDEST SWAP6 POP DUP1 NOT DUP5 AND SWAP4 POP DUP1 DUP7 AND DUP5 OR SWAP3 POP POP POP SWAP4 SWAP3 POP POP POP JUMP JUMPDEST PUSH1 0x0 DUP2 SWAP1 POP SWAP2 SWAP1 POP JUMP JUMPDEST PUSH1 0x0 PUSH2 0x325D PUSH2 0x3258 PUSH2 0x3253 DUP5 PUSH2 0x2488 JUMP JUMPDEST PUSH2 0x3238 JUMP JUMPDEST PUSH2 0x2488 JUMP JUMPDEST SWAP1 POP SWAP2 SWAP1 POP JUMP JUMPDEST PUSH1 0x0 DUP2 SWAP1 POP SWAP2 SWAP1 POP JUMP JUMPDEST PUSH2 0x3277 DUP4 PUSH2 0x3242 JUMP JUMPDEST PUSH2 0x328B PUSH2 0x3283 DUP3 PUSH2 0x3264 JUMP JUMPDEST DUP5 DUP5 SLOAD PUSH2 0x31E6 JUMP JUMPDEST DUP3 SSTORE POP POP POP POP JUMP JUMPDEST PUSH1 0x0 SWAP1 JUMP JUMPDEST PUSH2 0x32A0 PUSH2 0x3293 JUMP JUMPDEST PUSH2 0x32AB DUP2 DUP5 DUP5 PUSH2 0x326E JUMP JUMPDEST POP POP POP JUMP JUMPDEST JUMPDEST DUP2 DUP2 LT ISZERO PUSH2 0x32CF JUMPI PUSH2 0x32C4 PUSH1 0x0 DUP3 PUSH2 0x3298 JUMP JUMPDEST PUSH1 0x1 DUP2 ADD SWAP1 POP PUSH2 0x32B1 JUMP JUMPDEST POP POP JUMP JUMPDEST PUSH1 0x1F DUP3 GT ISZERO PUSH2 0x3314 JUMPI PUSH2 0x32E5 DUP2 PUSH2 0x31B4 JUMP JUMPDEST PUSH2 0x32EE DUP5 PUSH2 0x31C9 JUMP JUMPDEST DUP2 ADD PUSH1 0x20 DUP6 LT ISZERO PUSH2 0x32FD JUMPI DUP2 SWAP1 POP JUMPDEST PUSH2 0x3311 PUSH2 0x3309 DUP6 PUSH2 0x31C9 JUMP JUMPDEST DUP4 ADD DUP3 PUSH2 0x32B0 JUMP JUMPDEST POP POP JUMPDEST POP POP POP JUMP JUMPDEST PUSH1 0x0 DUP3 DUP3 SHR SWAP1 POP SWAP3 SWAP2 POP POP JUMP JUMPDEST PUSH1 0x0 PUSH2 0x3337 PUSH1 0x0 NOT DUP5 PUSH1 0x8 MUL PUSH2 0x3319 JUMP JUMPDEST NOT DUP1 DUP4 AND SWAP2 POP POP SWAP3 SWAP2 POP POP JUMP JUMPDEST PUSH1 0x0 PUSH2 0x3350 DUP4 DUP4 PUSH2 0x3326 JUMP JUMPDEST SWAP2 POP DUP3 PUSH1 0x2 MUL DUP3 OR SWAP1 POP SWAP3 SWAP2 POP POP JUMP JUMPDEST PUSH2 0x3369 DUP3 PUSH2 0x23D6 JUMP JUMPDEST PUSH8 0xFFFFFFFFFFFFFFFF DUP2 GT ISZERO PUSH2 0x3382 JUMPI PUSH2 0x3381 PUSH2 0x2821 JUMP JUMPDEST JUMPDEST PUSH2 0x338C DUP3 SLOAD PUSH2 0x2A3E JUMP JUMPDEST PUSH2 0x3397 DUP3 DUP3 DUP6 PUSH2 0x32D3 JUMP JUMPDEST PUSH1 0x0 PUSH1 0x20 SWAP1 POP PUSH1 0x1F DUP4 GT PUSH1 0x1 DUP2 EQ PUSH2 0x33CA JUMPI PUSH1 0x0 DUP5 ISZERO PUSH2 0x33B8 JUMPI DUP3 DUP8 ADD MLOAD SWAP1 POP JUMPDEST PUSH2 0x33C2 DUP6 DUP3 PUSH2 0x3344 JUMP JUMPDEST DUP7 SSTORE POP PUSH2 0x342A JUMP JUMPDEST PUSH1 0x1F NOT DUP5 AND PUSH2 0x33D8 DUP7 PUSH2 0x31B4 JUMP JUMPDEST PUSH1 0x0 JUMPDEST DUP3 DUP2 LT ISZERO PUSH2 0x3400 JUMPI DUP5 DUP10 ADD MLOAD DUP3 SSTORE PUSH1 0x1 DUP3 ADD SWAP2 POP PUSH1 0x20 DUP6 ADD SWAP5 POP PUSH1 0x20 DUP2 ADD SWAP1 POP PUSH2 0x33DB JUMP JUMPDEST DUP7 DUP4 LT ISZERO PUSH2 0x341D JUMPI DUP5 DUP10 ADD MLOAD PUSH2 0x3419 PUSH1 0x1F DUP10 AND DUP3 PUSH2 0x3326 JUMP JUMPDEST DUP4 SSTORE POP JUMPDEST PUSH1 0x1 PUSH1 0x2 DUP9 MUL ADD DUP9 SSTORE POP POP POP JUMPDEST POP POP POP POP POP POP JUMP JUMPDEST PUSH1 0x0 DUP2 SWAP1 POP SWAP3 SWAP2 POP POP JUMP JUMPDEST PUSH1 0x0 PUSH2 0x3449 DUP4 DUP6 PUSH2 0x3432 JUMP JUMPDEST SWAP4 POP PUSH2 0x3456 DUP4 DUP6 DUP5 PUSH2 0x28CD JUMP JUMPDEST DUP3 DUP5 ADD SWAP1 POP SWAP4 SWAP3 POP POP POP JUMP JUMPDEST PUSH1 0x0 PUSH2 0x346F DUP3 DUP5 DUP7 PUSH2 0x343D JUMP JUMPDEST SWAP2 POP DUP2 SWAP1 POP SWAP4 SWAP3 POP POP POP JUMP JUMPDEST PUSH1 0x0 PUSH1 0x80 DUP3 ADD SWAP1 POP PUSH2 0x3490 PUSH1 0x0 DUP4 ADD DUP8 PUSH2 0x2719 JUMP JUMPDEST PUSH2 0x349D PUSH1 0x20 DUP4 ADD DUP7 PUSH2 0x2719 JUMP JUMPDEST PUSH2 0x34AA PUSH1 0x40 DUP4 ADD DUP6 PUSH2 0x2719 JUMP JUMPDEST PUSH2 0x34B7 PUSH1 0x60 DUP4 ADD DUP5 PUSH2 0x2719 JUMP JUMPDEST SWAP6 SWAP5 POP POP POP POP POP JUMP JUMPDEST PUSH32 0x4552433732313A20617070726F766520746F2063616C6C657200000000000000 PUSH1 0x0 DUP3 ADD MSTORE POP JUMP JUMPDEST PUSH1 0x0 PUSH2 0x34F6 PUSH1 0x19 DUP4 PUSH2 0x23E1 JUMP JUMPDEST SWAP2 POP PUSH2 0x3501 DUP3 PUSH2 0x34C0 JUMP JUMPDEST PUSH1 0x20 DUP3 ADD SWAP1 POP SWAP2 SWAP1 POP JUMP JUMPDEST PUSH1 0x0 PUSH1 0x20 DUP3 ADD SWAP1 POP DUP2 DUP2 SUB PUSH1 0x0 DUP4 ADD MSTORE PUSH2 0x3525 DUP2 PUSH2 0x34E9 JUMP JUMPDEST SWAP1 POP SWAP2 SWAP1 POP JUMP JUMPDEST PUSH32 0x4552433732313A207472616E7366657220746F206E6F6E204552433732315265 PUSH1 0x0 DUP3 ADD MSTORE PUSH32 0x63656976657220696D706C656D656E7465720000000000000000000000000000 PUSH1 0x20 DUP3 ADD MSTORE POP JUMP JUMPDEST PUSH1 0x0 PUSH2 0x3588 PUSH1 0x32 DUP4 PUSH2 0x23E1 JUMP JUMPDEST SWAP2 POP PUSH2 0x3593 DUP3 PUSH2 0x352C JUMP JUMPDEST PUSH1 0x40 DUP3 ADD SWAP1 POP SWAP2 SWAP1 POP JUMP JUMPDEST PUSH1 0x0 PUSH1 0x20 DUP3 ADD SWAP1 POP DUP2 DUP2 SUB PUSH1 0x0 DUP4 ADD MSTORE PUSH2 0x35B7 DUP2 PUSH2 0x357B JUMP JUMPDEST SWAP1 POP SWAP2 SWAP1 POP JUMP JUMPDEST PUSH1 0x0 DUP2 SWAP1 POP SWAP3 SWAP2 POP POP JUMP JUMPDEST PUSH1 0x0 PUSH2 0x35D4 DUP3 PUSH2 0x23D6 JUMP JUMPDEST PUSH2 0x35DE DUP2 DUP6 PUSH2 0x35BE JUMP JUMPDEST SWAP4 POP PUSH2 0x35EE DUP2 DUP6 PUSH1 0x20 DUP7 ADD PUSH2 0x23F2 JUMP JUMPDEST DUP1 DUP5 ADD SWAP2 POP POP SWAP3 SWAP2 POP POP JUMP JUMPDEST PUSH1 0x0 PUSH2 0x3606 DUP3 DUP6 PUSH2 0x35C9 JUMP JUMPDEST SWAP2 POP PUSH2 0x3612 DUP3 DUP5 PUSH2 0x35C9 JUMP JUMPDEST SWAP2 POP DUP2 SWAP1 POP SWAP4 SWAP3 POP POP POP JUMP JUMPDEST PUSH1 0x0 PUSH2 0x3629 DUP3 PUSH2 0x2488 JUMP JUMPDEST SWAP2 POP PUSH2 0x3634 DUP4 PUSH2 0x2488 JUMP JUMPDEST SWAP3 POP DUP3 DUP3 SUB SWAP1 POP DUP2 DUP2 GT ISZERO PUSH2 0x364C JUMPI PUSH2 0x364B PUSH2 0x2CEE JUMP JUMPDEST JUMPDEST SWAP3 SWAP2 POP POP JUMP JUMPDEST PUSH1 0x0 PUSH2 0x365D DUP3 PUSH2 0x2488 JUMP JUMPDEST SWAP2 POP PUSH2 0x3668 DUP4 PUSH2 0x2488 JUMP JUMPDEST SWAP3 POP DUP3 DUP3 ADD SWAP1 POP DUP1 DUP3 GT ISZERO PUSH2 0x3680 JUMPI PUSH2 0x367F PUSH2 0x2CEE JUMP JUMPDEST JUMPDEST SWAP3 SWAP2 POP POP JUMP JUMPDEST PUSH32 0x4E487B7100000000000000000000000000000000000000000000000000000000 PUSH1 0x0 MSTORE PUSH1 0x21 PUSH1 0x4 MSTORE PUSH1 0x24 PUSH1 0x0 REVERT JUMPDEST PUSH32 0x45434453413A20696E76616C6964207369676E61747572650000000000000000 PUSH1 0x0 DUP3 ADD MSTORE POP JUMP JUMPDEST PUSH1 0x0 PUSH2 0x36EB PUSH1 0x18 DUP4 PUSH2 0x23E1 JUMP JUMPDEST SWAP2 POP PUSH2 0x36F6 DUP3 PUSH2 0x36B5 JUMP JUMPDEST PUSH1 0x20 DUP3 ADD SWAP1 POP SWAP2 SWAP1 POP JUMP JUMPDEST PUSH1 0x0 PUSH1 0x20 DUP3 ADD SWAP1 POP DUP2 DUP2 SUB PUSH1 0x0 DUP4 ADD MSTORE PUSH2 0x371A DUP2 PUSH2 0x36DE JUMP JUMPDEST SWAP1 POP SWAP2 SWAP1 POP JUMP JUMPDEST PUSH32 0x45434453413A20696E76616C6964207369676E6174757265206C656E67746800 PUSH1 0x0 DUP3 ADD MSTORE POP JUMP JUMPDEST PUSH1 0x0 PUSH2 0x3757 PUSH1 0x1F DUP4 PUSH2 0x23E1 JUMP JUMPDEST SWAP2 POP PUSH2 0x3762 DUP3 PUSH2 0x3721 JUMP JUMPDEST PUSH1 0x20 DUP3 ADD SWAP1 POP SWAP2 SWAP1 POP JUMP JUMPDEST PUSH1 0x0 PUSH1 0x20 DUP3 ADD SWAP1 POP DUP2 DUP2 SUB PUSH1 0x0 DUP4 ADD MSTORE PUSH2 0x3786 DUP2 PUSH2 0x374A JUMP JUMPDEST SWAP1 POP SWAP2 SWAP1 POP JUMP JUMPDEST PUSH32 0x45434453413A20696E76616C6964207369676E6174757265202773272076616C PUSH1 0x0 DUP3 ADD MSTORE PUSH32 0x7565000000000000000000000000000000000000000000000000000000000000 PUSH1 0x20 DUP3 ADD MSTORE POP JUMP JUMPDEST PUSH1 0x0 PUSH2 0x37E9 PUSH1 0x22 DUP4 PUSH2 0x23E1 JUMP JUMPDEST SWAP2 POP PUSH2 0x37F4 DUP3 PUSH2 0x378D JUMP JUMPDEST PUSH1 0x40 DUP3 ADD SWAP1 POP SWAP2 SWAP1 POP JUMP JUMPDEST PUSH1 0x0 PUSH1 0x20 DUP3 ADD SWAP1 POP DUP2 DUP2 SUB PUSH1 0x0 DUP4 ADD MSTORE PUSH2 0x3818 DUP2 PUSH2 0x37DC JUMP JUMPDEST SWAP1 POP SWAP2 SWAP1 POP JUMP JUMPDEST PUSH1 0x0 DUP2 MLOAD SWAP1 POP SWAP2 SWAP1 POP JUMP JUMPDEST PUSH1 0x0 DUP3 DUP3 MSTORE PUSH1 0x20 DUP3 ADD SWAP1 POP SWAP3 SWAP2 POP POP JUMP JUMPDEST PUSH1 0x0 PUSH2 0x3846 DUP3 PUSH2 0x381F JUMP JUMPDEST PUSH2 0x3850 DUP2 DUP6 PUSH2 0x382A JUMP JUMPDEST SWAP4 POP PUSH2 0x3860 DUP2 DUP6 PUSH1 0x20 DUP7 ADD PUSH2 0x23F2 JUMP JUMPDEST PUSH2 0x3869 DUP2 PUSH2 0x241C JUMP JUMPDEST DUP5 ADD SWAP2 POP POP SWAP3 SWAP2 POP POP JUMP JUMPDEST PUSH1 0x0 PUSH1 0x80 DUP3 ADD SWAP1 POP PUSH2 0x3889 PUSH1 0x0 DUP4 ADD DUP8 PUSH2 0x251D JUMP JUMPDEST PUSH2 0x3896 PUSH1 0x20 DUP4 ADD DUP7 PUSH2 0x251D JUMP JUMPDEST PUSH2 0x38A3 PUSH1 0x40 DUP4 ADD DUP6 PUSH2 0x26E5 JUMP JUMPDEST DUP2 DUP2 SUB PUSH1 0x60 DUP4 ADD MSTORE PUSH2 0x38B5 DUP2 DUP5 PUSH2 0x383B JUMP JUMPDEST SWAP1 POP SWAP6 SWAP5 POP POP POP POP POP JUMP JUMPDEST PUSH1 0x0 DUP2 MLOAD SWAP1 POP PUSH2 0x38CF DUP2 PUSH2 0x2347 JUMP JUMPDEST SWAP3 SWAP2 POP POP JUMP JUMPDEST PUSH1 0x0 PUSH1 0x20 DUP3 DUP5 SUB SLT ISZERO PUSH2 0x38EB JUMPI PUSH2 0x38EA PUSH2 0x2311 JUMP JUMPDEST JUMPDEST PUSH1 0x0 PUSH2 0x38F9 DUP5 DUP3 DUP6 ADD PUSH2 0x38C0 JUMP JUMPDEST SWAP2 POP POP SWAP3 SWAP2 POP POP JUMP JUMPDEST PUSH32 0x1901000000000000000000000000000000000000000000000000000000000000 PUSH1 0x0 DUP3 ADD MSTORE POP JUMP JUMPDEST PUSH1 0x0 PUSH2 0x3938 PUSH1 0x2 DUP4 PUSH2 0x35BE JUMP JUMPDEST SWAP2 POP PUSH2 0x3943 DUP3 PUSH2 0x3902 JUMP JUMPDEST PUSH1 0x2 DUP3 ADD SWAP1 POP SWAP2 SWAP1 POP JUMP JUMPDEST PUSH1 0x0 DUP2 SWAP1 POP SWAP2 SWAP1 POP JUMP JUMPDEST PUSH2 0x3969 PUSH2 0x3964 DUP3 PUSH2 0x270F JUMP JUMPDEST PUSH2 0x394E JUMP JUMPDEST DUP3 MSTORE POP POP JUMP JUMPDEST PUSH1 0x0 PUSH2 0x397A DUP3 PUSH2 0x392B JUMP JUMPDEST SWAP2 POP PUSH2 0x3986 DUP3 DUP6 PUSH2 0x3958 JUMP JUMPDEST PUSH1 0x20 DUP3 ADD SWAP2 POP PUSH2 0x3996 DUP3 DUP5 PUSH2 0x3958 JUMP JUMPDEST PUSH1 0x20 DUP3 ADD SWAP2 POP DUP2 SWAP1 POP SWAP4 SWAP3 POP POP POP JUMP JUMPDEST PUSH1 0x0 PUSH1 0xFF DUP3 AND SWAP1 POP SWAP2 SWAP1 POP JUMP JUMPDEST PUSH2 0x39BC DUP2 PUSH2 0x39A6 JUMP JUMPDEST DUP3 MSTORE POP POP JUMP JUMPDEST PUSH1 0x0 PUSH1 0x80 DUP3 ADD SWAP1 POP PUSH2 0x39D7 PUSH1 0x0 DUP4 ADD DUP8 PUSH2 0x2719 JUMP JUMPDEST PUSH2 0x39E4 PUSH1 0x20 DUP4 ADD DUP7 PUSH2 0x39B3 JUMP JUMPDEST PUSH2 0x39F1 PUSH1 0x40 DUP4 ADD DUP6 PUSH2 0x2719 JUMP JUMPDEST PUSH2 0x39FE PUSH1 0x60 DUP4 ADD DUP5 PUSH2 0x2719 JUMP JUMPDEST SWAP6 SWAP5 POP POP POP POP POP JUMP JUMPDEST PUSH32 0x4E487B7100000000000000000000000000000000000000000000000000000000 PUSH1 0x0 MSTORE PUSH1 0x12 PUSH1 0x4 MSTORE PUSH1 0x24 PUSH1 0x0 REVERT JUMPDEST PUSH1 0x0 PUSH1 0xA0 DUP3 ADD SWAP1 POP PUSH2 0x3A4B PUSH1 0x0 DUP4 ADD DUP9 PUSH2 0x2719 JUMP JUMPDEST PUSH2 0x3A58 PUSH1 0x20 DUP4 ADD DUP8 PUSH2 0x2719 JUMP JUMPDEST PUSH2 0x3A65 PUSH1 0x40 DUP4 ADD DUP7 PUSH2 0x2719 JUMP JUMPDEST PUSH2 0x3A72 PUSH1 0x60 DUP4 ADD DUP6 PUSH2 0x26E5 JUMP JUMPDEST PUSH2 0x3A7F PUSH1 0x80 DUP4 ADD DUP5 PUSH2 0x251D JUMP JUMPDEST SWAP7 SWAP6 POP POP POP POP POP POP JUMP INVALID LOG2 PUSH5 0x6970667358 0x22 SLT KECCAK256 PUSH25 0xA673665E6C115802201ED0D3ACC76561C5E7BD1CC12E8F73F1 LOG2 0xAE 0xBB 0xCB 0xAB 0xD1 PUSH5 0x736F6C6343 STOP ADDMOD GT STOP CALLER "},"gasEstimates":{"creation":{"codeDepositCost":"3007800","executionCost":"infinite","totalCost":"infinite"},"external":{"CLAME_USERID_VOUCHER()":"352","approve(address,uint256)":"infinite","balanceOf(address)":"2987","createSingleNFT((string,bytes,bytes,bytes))":"infinite","getApproved(uint256)":"5300","getIdCount()":"2574","isApprovedForAll(address,address)":"infinite","name()":"infinite","ownerOf(uint256)":"3088","redeem((string,bytes,bytes,bytes)[])":"infinite","safeTransferFrom(address,address,uint256)":"infinite","safeTransferFrom(address,address,uint256,bytes)":"infinite","setApprovalForAll(address,bool)":"infinite","supportsInterface(bytes4)":"797","symbol()":"infinite","tokenURI(uint256)":"infinite","transferFrom(address,address,uint256)":"infinite","verifySignature((string,bytes,bytes,bytes))":"infinite"},"internal":{"_afterTokenTransfer(address,address,uint256,uint256)":"61","_hash(struct UserIdVoucher calldata)":"infinite"}},"methodIdentifiers":{"CLAME_USERID_VOUCHER()":"73f2d272","approve(address,uint256)":"095ea7b3","balanceOf(address)":"70a08231","createSingleNFT((string,bytes,bytes,bytes))":"da08e722","getApproved(uint256)":"081812fc","getIdCount()":"db5890ee","isApprovedForAll(address,address)":"e985e9c5","name()":"06fdde03","ownerOf(uint256)":"6352211e","redeem((string,bytes,bytes,bytes)[])":"58bd72dc","safeTransferFrom(address,address,uint256)":"42842e0e","safeTransferFrom(address,address,uint256,bytes)":"b88d4fde","setApprovalForAll(address,bool)":"a22cb465","supportsInterface(bytes4)":"01ffc9a7","symbol()":"95d89b41","tokenURI(uint256)":"c87b56dd","transferFrom(address,address,uint256)":"23b872dd","verifySignature((string,bytes,bytes,bytes))":"8483de56"}},"storageLayout":{"storage":[{"astId":79,"contract":"contracts/core/UserIdentityNFT.sol:UserIdentityNFT","label":"_name","offset":0,"slot":"0","type":"t_string_storage"},{"astId":81,"contract":"contracts/core/UserIdentityNFT.sol:UserIdentityNFT","label":"_symbol","offset":0,"slot":"1","type":"t_string_storage"},{"astId":85,"contract":"contracts/core/UserIdentityNFT.sol:UserIdentityNFT","label":"_owners","offset":0,"slot":"2","type":"t_mapping(t_uint256,t_address)"},{"astId":89,"contract":"contracts/core/UserIdentityNFT.sol:UserIdentityNFT","label":"_balances","offset":0,"slot":"3","type":"t_mapping(t_address,t_uint256)"},{"astId":93,"contract":"contracts/core/UserIdentityNFT.sol:UserIdentityNFT","label":"_tokenApprovals","offset":0,"slot":"4","type":"t_mapping(t_uint256,t_address)"},{"astId":99,"contract":"contracts/core/UserIdentityNFT.sol:UserIdentityNFT","label":"_operatorApprovals","offset":0,"slot":"5","type":"t_mapping(t_address,t_mapping(t_address,t_bool))"},{"astId":1145,"contract":"contracts/core/UserIdentityNFT.sol:UserIdentityNFT","label":"_tokenURIs","offset":0,"slot":"6","type":"t_mapping(t_uint256,t_string_storage)"},{"astId":10,"contract":"contracts/core/UserIdentityNFT.sol:UserIdentityNFT","label":"_status","offset":0,"slot":"7","type":"t_uint256"},{"astId":3330,"contract":"contracts/core/UserIdentityNFT.sol:UserIdentityNFT","label":"idCount","offset":0,"slot":"8","type":"t_struct(Counter)1642_storage"},{"astId":3332,"contract":"contracts/core/UserIdentityNFT.sol:UserIdentityNFT","label":"figureprintOracle","offset":0,"slot":"9","type":"t_address"}],"types":{"t_address":{"encoding":"inplace","label":"address","numberOfBytes":"20"},"t_bool":{"encoding":"inplace","label":"bool","numberOfBytes":"1"},"t_mapping(t_address,t_bool)":{"encoding":"mapping","key":"t_address","label":"mapping(address => bool)","numberOfBytes":"32","value":"t_bool"},"t_mapping(t_address,t_mapping(t_address,t_bool))":{"encoding":"mapping","key":"t_address","label":"mapping(address => mapping(address => bool))","numberOfBytes":"32","value":"t_mapping(t_address,t_bool)"},"t_mapping(t_address,t_uint256)":{"encoding":"mapping","key":"t_address","label":"mapping(address => uint256)","numberOfBytes":"32","value":"t_uint256"},"t_mapping(t_uint256,t_address)":{"encoding":"mapping","key":"t_uint256","label":"mapping(uint256 => address)","numberOfBytes":"32","value":"t_address"},"t_mapping(t_uint256,t_string_storage)":{"encoding":"mapping","key":"t_uint256","label":"mapping(uint256 => string)","numberOfBytes":"32","value":"t_string_storage"},"t_string_storage":{"encoding":"bytes","label":"string","numberOfBytes":"32"},"t_struct(Counter)1642_storage":{"encoding":"inplace","label":"struct Counters.Counter","members":[{"astId":1641,"contract":"contracts/core/UserIdentityNFT.sol:UserIdentityNFT","label":"_value","offset":0,"slot":"0","type":"t_uint256"}],"numberOfBytes":"32"},"t_uint256":{"encoding":"inplace","label":"uint256","numberOfBytes":"32"}}},"userdoc":{"kind":"user","methods":{"redeem((string,bytes,bytes,bytes)[])":{"notice":"Redeems an NFTVoucher for an actual NFT, creating it in the process."},"verifySignature((string,bytes,bytes,bytes))":{"notice":"Verifies the signature for a given NFTVoucher, returning the address of the signer."}},"version":1}}}}