{
  "address": "0x5FbDB2315678afecb367f032d93F642f64180aa3",
  "abi": [
    {
      "inputs": [
        {
          "internalType": "string",
          "name": "name",
          "type": "string"
        },
        {
          "internalType": "string",
          "name": "symbol",
          "type": "string"
        },
        {
          "internalType": "string",
          "name": "signingDomain",
          "type": "string"
        },
        {
          "internalType": "string",
          "name": "signatureVersion",
          "type": "string"
        }
      ],
      "stateMutability": "nonpayable",
      "type": "constructor"
    },
    {
      "anonymous": false,
      "inputs": [
        {
          "indexed": true,
          "internalType": "address",
          "name": "owner",
          "type": "address"
        },
        {
          "indexed": true,
          "internalType": "address",
          "name": "approved",
          "type": "address"
        },
        {
          "indexed": true,
          "internalType": "uint256",
          "name": "tokenId",
          "type": "uint256"
        }
      ],
      "name": "Approval",
      "type": "event"
    },
    {
      "anonymous": false,
      "inputs": [
        {
          "indexed": true,
          "internalType": "address",
          "name": "owner",
          "type": "address"
        },
        {
          "indexed": true,
          "internalType": "address",
          "name": "operator",
          "type": "address"
        },
        {
          "indexed": false,
          "internalType": "bool",
          "name": "approved",
          "type": "bool"
        }
      ],
      "name": "ApprovalForAll",
      "type": "event"
    },
    {
      "anonymous": false,
      "inputs": [
        {
          "indexed": false,
          "internalType": "address",
          "name": "userAddres",
          "type": "address"
        },
        {
          "indexed": true,
          "internalType": "uint256",
          "name": "tokenId",
          "type": "uint256"
        }
      ],
      "name": "MintNft",
      "type": "event"
    },
    {
      "anonymous": false,
      "inputs": [
        {
          "indexed": false,
          "internalType": "address",
          "name": "userAddres",
          "type": "address"
        }
      ],
      "name": "Redeem",
      "type": "event"
    },
    {
      "anonymous": false,
      "inputs": [
        {
          "indexed": true,
          "internalType": "address",
          "name": "from",
          "type": "address"
        },
        {
          "indexed": true,
          "internalType": "address",
          "name": "to",
          "type": "address"
        },
        {
          "indexed": true,
          "internalType": "uint256",
          "name": "tokenId",
          "type": "uint256"
        }
      ],
      "name": "Transfer",
      "type": "event"
    },
    {
      "inputs": [],
      "name": "CLAME_USERID_VOUCHER",
      "outputs": [
        {
          "internalType": "bytes32",
          "name": "",
          "type": "bytes32"
        }
      ],
      "stateMutability": "view",
      "type": "function"
    },
    {
      "inputs": [
        {
          "internalType": "address",
          "name": "to",
          "type": "address"
        },
        {
          "internalType": "uint256",
          "name": "tokenId",
          "type": "uint256"
        }
      ],
      "name": "approve",
      "outputs": [],
      "stateMutability": "nonpayable",
      "type": "function"
    },
    {
      "inputs": [
        {
          "internalType": "address",
          "name": "owner",
          "type": "address"
        }
      ],
      "name": "balanceOf",
      "outputs": [
        {
          "internalType": "uint256",
          "name": "",
          "type": "uint256"
        }
      ],
      "stateMutability": "view",
      "type": "function"
    },
    {
      "inputs": [
        {
          "components": [
            {
              "internalType": "string",
              "name": "uri",
              "type": "string"
            },
            {
              "internalType": "bytes",
              "name": "userId",
              "type": "bytes"
            },
            {
              "internalType": "bytes",
              "name": "fingerPrint",
              "type": "bytes"
            },
            {
              "internalType": "bytes",
              "name": "signature",
              "type": "bytes"
            }
          ],
          "internalType": "struct UserIdVoucher",
          "name": "voucher",
          "type": "tuple"
        }
      ],
      "name": "createSingleNFT",
      "outputs": [],
      "stateMutability": "nonpayable",
      "type": "function"
    },
    {
      "inputs": [
        {
          "internalType": "uint256",
          "name": "tokenId",
          "type": "uint256"
        }
      ],
      "name": "getApproved",
      "outputs": [
        {
          "internalType": "address",
          "name": "",
          "type": "address"
        }
      ],
      "stateMutability": "view",
      "type": "function"
    },
    {
      "inputs": [],
      "name": "getIdCount",
      "outputs": [
        {
          "internalType": "uint256",
          "name": "",
          "type": "uint256"
        }
      ],
      "stateMutability": "view",
      "type": "function"
    },
    {
      "inputs": [
        {
          "internalType": "address",
          "name": "owner",
          "type": "address"
        },
        {
          "internalType": "address",
          "name": "operator",
          "type": "address"
        }
      ],
      "name": "isApprovedForAll",
      "outputs": [
        {
          "internalType": "bool",
          "name": "",
          "type": "bool"
        }
      ],
      "stateMutability": "view",
      "type": "function"
    },
    {
      "inputs": [],
      "name": "name",
      "outputs": [
        {
          "internalType": "string",
          "name": "",
          "type": "string"
        }
      ],
      "stateMutability": "view",
      "type": "function"
    },
    {
      "inputs": [
        {
          "internalType": "uint256",
          "name": "tokenId",
          "type": "uint256"
        }
      ],
      "name": "ownerOf",
      "outputs": [
        {
          "internalType": "address",
          "name": "",
          "type": "address"
        }
      ],
      "stateMutability": "view",
      "type": "function"
    },
    {
      "inputs": [
        {
          "components": [
            {
              "internalType": "string",
              "name": "uri",
              "type": "string"
            },
            {
              "internalType": "bytes",
              "name": "userId",
              "type": "bytes"
            },
            {
              "internalType": "bytes",
              "name": "fingerPrint",
              "type": "bytes"
            },
            {
              "internalType": "bytes",
              "name": "signature",
              "type": "bytes"
            }
          ],
          "internalType": "struct UserIdVoucher[]",
          "name": "voucher",
          "type": "tuple[]"
        }
      ],
      "name": "redeem",
      "outputs": [],
      "stateMutability": "nonpayable",
      "type": "function"
    },
    {
      "inputs": [
        {
          "internalType": "address",
          "name": "from",
          "type": "address"
        },
        {
          "internalType": "address",
          "name": "to",
          "type": "address"
        },
        {
          "internalType": "uint256",
          "name": "tokenId",
          "type": "uint256"
        }
      ],
      "name": "safeTransferFrom",
      "outputs": [],
      "stateMutability": "nonpayable",
      "type": "function"
    },
    {
      "inputs": [
        {
          "internalType": "address",
          "name": "from",
          "type": "address"
        },
        {
          "internalType": "address",
          "name": "to",
          "type": "address"
        },
        {
          "internalType": "uint256",
          "name": "tokenId",
          "type": "uint256"
        },
        {
          "internalType": "bytes",
          "name": "data",
          "type": "bytes"
        }
      ],
      "name": "safeTransferFrom",
      "outputs": [],
      "stateMutability": "nonpayable",
      "type": "function"
    },
    {
      "inputs": [
        {
          "internalType": "address",
          "name": "operator",
          "type": "address"
        },
        {
          "internalType": "bool",
          "name": "approved",
          "type": "bool"
        }
      ],
      "name": "setApprovalForAll",
      "outputs": [],
      "stateMutability": "nonpayable",
      "type": "function"
    },
    {
      "inputs": [
        {
          "internalType": "bytes4",
          "name": "interfaceId",
          "type": "bytes4"
        }
      ],
      "name": "supportsInterface",
      "outputs": [
        {
          "internalType": "bool",
          "name": "",
          "type": "bool"
        }
      ],
      "stateMutability": "view",
      "type": "function"
    },
    {
      "inputs": [],
      "name": "symbol",
      "outputs": [
        {
          "internalType": "string",
          "name": "",
          "type": "string"
        }
      ],
      "stateMutability": "view",
      "type": "function"
    },
    {
      "inputs": [
        {
          "internalType": "uint256",
          "name": "tokenId",
          "type": "uint256"
        }
      ],
      "name": "tokenURI",
      "outputs": [
        {
          "internalType": "string",
          "name": "",
          "type": "string"
        }
      ],
      "stateMutability": "view",
      "type": "function"
    },
    {
      "inputs": [
        {
          "internalType": "address",
          "name": "from",
          "type": "address"
        },
        {
          "internalType": "address",
          "name": "to",
          "type": "address"
        },
        {
          "internalType": "uint256",
          "name": "tokenId",
          "type": "uint256"
        }
      ],
      "name": "transferFrom",
      "outputs": [],
      "stateMutability": "nonpayable",
      "type": "function"
    },
    {
      "inputs": [
        {
          "components": [
            {
              "internalType": "string",
              "name": "uri",
              "type": "string"
            },
            {
              "internalType": "bytes",
              "name": "userId",
              "type": "bytes"
            },
            {
              "internalType": "bytes",
              "name": "fingerPrint",
              "type": "bytes"
            },
            {
              "internalType": "bytes",
              "name": "signature",
              "type": "bytes"
            }
          ],
          "internalType": "struct UserIdVoucher",
          "name": "voucher",
          "type": "tuple"
        }
      ],
      "name": "verifySignature",
      "outputs": [
        {
          "internalType": "address",
          "name": "",
          "type": "address"
        }
      ],
      "stateMutability": "view",
      "type": "function"
    }
  ],
  "transactionHash": "0xb6cae659c7320b9719e42a94bb8a6ca2ca88bc9a42e6ea79130d58db3e8a42d3",
  "args": [
    "User-Identity",
    "786",
    "User-Identity",
    "1"
  ],
  "numDeployments": 1,
  "solcInputHash": "2ea73ffc1202c826239e48459837f8e2",
  "bytecode": "0x6101406040523480156200001257600080fd5b50604051620042f2380380620042f28339818101604052810190620000389190620002f5565b8181858581600090816200004d91906200062e565b5080600190816200005f91906200062e565b505050600160078190555060008280519060200120905060008280519060200120905060007f8b73c3c69bb8fe3d512ecc4cf759cc79239f7b179b0ffacaa9a75d522b39400f90508260e081815250508161010081815250504660a08181525050620000d38184846200012660201b60201c565b608081815250503073ffffffffffffffffffffffffffffffffffffffff1660c08173ffffffffffffffffffffffffffffffffffffffff1681525050806101208181525050505050505050505050620007e3565b600083838346306040516020016200014395949392919062000786565b6040516020818303038152906040528051906020012090509392505050565b6000604051905090565b600080fd5b600080fd5b600080fd5b600080fd5b6000601f19601f8301169050919050565b7f4e487b7100000000000000000000000000000000000000000000000000000000600052604160045260246000fd5b620001cb8262000180565b810181811067ffffffffffffffff82111715620001ed57620001ec62000191565b5b80604052505050565b60006200020262000162565b9050620002108282620001c0565b919050565b600067ffffffffffffffff82111562000233576200023262000191565b5b6200023e8262000180565b9050602081019050919050565b60005b838110156200026b5780820151818401526020810190506200024e565b60008484015250505050565b60006200028e620002888462000215565b620001f6565b905082815260208101848484011115620002ad57620002ac6200017b565b5b620002ba8482856200024b565b509392505050565b600082601f830112620002da57620002d962000176565b5b8151620002ec84826020860162000277565b91505092915050565b600080600080608085870312156200031257620003116200016c565b5b600085015167ffffffffffffffff81111562000333576200033262000171565b5b6200034187828801620002c2565b945050602085015167ffffffffffffffff81111562000365576200036462000171565b5b6200037387828801620002c2565b935050604085015167ffffffffffffffff81111562000397576200039662000171565b5b620003a587828801620002c2565b925050606085015167ffffffffffffffff811115620003c957620003c862000171565b5b620003d787828801620002c2565b91505092959194509250565b600081519050919050565b7f4e487b7100000000000000000000000000000000000000000000000000000000600052602260045260246000fd5b600060028204905060018216806200043657607f821691505b6020821081036200044c576200044b620003ee565b5b50919050565b60008190508160005260206000209050919050565b60006020601f8301049050919050565b600082821b905092915050565b600060088302620004b67fffffffffffffffffffffffffffffffffffffffffffffffffffffffffffffffff8262000477565b620004c2868362000477565b95508019841693508086168417925050509392505050565b6000819050919050565b6000819050919050565b60006200050f620005096200050384620004da565b620004e4565b620004da565b9050919050565b6000819050919050565b6200052b83620004ee565b620005436200053a8262000516565b84845462000484565b825550505050565b600090565b6200055a6200054b565b6200056781848462000520565b505050565b5b818110156200058f576200058360008262000550565b6001810190506200056d565b5050565b601f821115620005de57620005a88162000452565b620005b38462000467565b81016020851015620005c3578190505b620005db620005d28562000467565b8301826200056c565b50505b505050565b600082821c905092915050565b60006200060360001984600802620005e3565b1980831691505092915050565b60006200061e8383620005f0565b9150826002028217905092915050565b6200063982620003e3565b67ffffffffffffffff81111562000655576200065462000191565b5b6200066182546200041d565b6200066e82828562000593565b600060209050601f831160018114620006a6576000841562000691578287015190505b6200069d858262000610565b8655506200070d565b601f198416620006b68662000452565b60005b82811015620006e057848901518255600182019150602085019450602081019050620006b9565b86831015620007005784890151620006fc601f891682620005f0565b8355505b6001600288020188555050505b505050505050565b6000819050919050565b6200072a8162000715565b82525050565b6200073b81620004da565b82525050565b600073ffffffffffffffffffffffffffffffffffffffff82169050919050565b60006200076e8262000741565b9050919050565b620007808162000761565b82525050565b600060a0820190506200079d60008301886200071f565b620007ac60208301876200071f565b620007bb60408301866200071f565b620007ca606083018562000730565b620007d9608083018462000775565b9695505050505050565b60805160a05160c05160e0516101005161012051613abf620008336000396000611f0801526000611f4a01526000611f2901526000611e5e01526000611eb401526000611edd0152613abf6000f3fe608060405234801561001057600080fd5b50600436106101165760003560e01c806373f2d272116100a2578063b88d4fde11610071578063b88d4fde146102f1578063c87b56dd1461030d578063da08e7221461033d578063db5890ee14610359578063e985e9c51461037757610116565b806373f2d272146102695780638483de561461028757806395d89b41146102b7578063a22cb465146102d557610116565b806323b872dd116100e957806323b872dd146101b557806342842e0e146101d157806358bd72dc146101ed5780636352211e1461020957806370a082311461023957610116565b806301ffc9a71461011b57806306fdde031461014b578063081812fc14610169578063095ea7b314610199575b600080fd5b61013560048036038101906101309190612373565b6103a7565b60405161014291906123bb565b60405180910390f35b610153610489565b6040516101609190612466565b60405180910390f35b610183600480360381019061017e91906124be565b61051b565b604051610190919061252c565b60405180910390f35b6101b360048036038101906101ae9190612573565b610561565b005b6101cf60048036038101906101ca91906125b3565b610678565b005b6101eb60048036038101906101e691906125b3565b6106d8565b005b6102076004803603810190610202919061266b565b6106f8565b005b610223600480360381019061021e91906124be565b610884565b604051610230919061252c565b60405180910390f35b610253600480360381019061024e91906126b8565b61090a565b60405161026091906126f4565b60405180910390f35b6102716109c1565b60405161027e9190612728565b60405180910390f35b6102a1600480360381019061029c9190612767565b6109e4565b6040516102ae919061252c565b60405180910390f35b6102bf610a56565b6040516102cc9190612466565b60405180910390f35b6102ef60048036038101906102ea91906127dc565b610ae8565b005b61030b6004803603810190610306919061294c565b610afe565b005b610327600480360381019061032291906124be565b610b60565b6040516103349190612466565b60405180910390f35b61035760048036038101906103529190612767565b610b72565b005b610361610c4a565b60405161036e91906126f4565b60405180910390f35b610391600480360381019061038c91906129cf565b610c5b565b60405161039e91906123bb565b60405180910390f35b60007f80ac58cd000000000000000000000000000000000000000000000000000000007bffffffffffffffffffffffffffffffffffffffffffffffffffffffff1916827bffffffffffffffffffffffffffffffffffffffffffffffffffffffff1916148061047257507f5b5e139f000000000000000000000000000000000000000000000000000000007bffffffffffffffffffffffffffffffffffffffffffffffffffffffff1916827bffffffffffffffffffffffffffffffffffffffffffffffffffffffff1916145b80610482575061048182610cef565b5b9050919050565b60606000805461049890612a3e565b80601f01602080910402602001604051908101604052809291908181526020018280546104c490612a3e565b80156105115780601f106104e657610100808354040283529160200191610511565b820191906000526020600020905b8154815290600101906020018083116104f457829003601f168201915b5050505050905090565b600061052682610d59565b6004600083815260200190815260200160002060009054906101000a900473ffffffffffffffffffffffffffffffffffffffff169050919050565b600061056c82610884565b90508073ffffffffffffffffffffffffffffffffffffffff168373ffffffffffffffffffffffffffffffffffffffff16036105dc576040517f08c379a00000000000000000000000000000000000000000000000000000000081526004016105d390612ae1565b60405180910390fd5b8073ffffffffffffffffffffffffffffffffffffffff166105fb610da4565b73ffffffffffffffffffffffffffffffffffffffff16148061062a575061062981610624610da4565b610c5b565b5b610669576040517f08c379a000000000000000000000000000000000000000000000000000000000815260040161066090612b73565b60405180910390fd5b6106738383610dac565b505050565b610689610683610da4565b82610e65565b6106c8576040517f08c379a00000000000000000000000000000000000000000000000000000000081526004016106bf90612c05565b60405180910390fd5b6106d3838383610efa565b505050565b6106f383838360405180602001604052806000815250610afe565b505050565b6107006111f3565b60005b828290508163ffffffff16101561084057600061074984848463ffffffff1681811061073257610731612c25565b5b90506020028101906107449190612c63565b6109e4565b90506107556008611242565b60006107616008611258565b905061076d3382611266565b6107f38186868663ffffffff1681811061078a57610789612c25565b5b905060200281019061079c9190612c63565b80600001906107ab9190612c8b565b8080601f016020809104026020016040519081016040528093929190818152602001838380828437600081840152601f19601f82011690508083019250505050505050611483565b807f2fdf319518046f7b4ebc04a5ca363b42da5e87f5e8150935b3e4ef1ee4509e1a83604051610823919061252c565b60405180910390a25050808061083890612d2d565b915050610703565b507fd1b5ea7fe0f1c2fa09d49c2aa9b2200664ba57a734f1d95481d95b7f99af991c33604051610870919061252c565b60405180910390a16108806114f0565b5050565b600080610890836114fa565b9050600073ffffffffffffffffffffffffffffffffffffffff168173ffffffffffffffffffffffffffffffffffffffff1603610901576040517f08c379a00000000000000000000000000000000000000000000000000000000081526004016108f890612da5565b60405180910390fd5b80915050919050565b60008073ffffffffffffffffffffffffffffffffffffffff168273ffffffffffffffffffffffffffffffffffffffff160361097a576040517f08c379a000000000000000000000000000000000000000000000000000000000815260040161097190612e37565b60405180910390fd5b600360008373ffffffffffffffffffffffffffffffffffffffff1673ffffffffffffffffffffffffffffffffffffffff168152602001908152602001600020549050919050565b7e5165dbde6c98ff3dd217e399994c50c9b2dcb0e924050ef97159c4f0f162a681565b6000806109f083611537565b9050610a4e81848060600190610a069190612e57565b8080601f016020809104026020016040519081016040528093929190818152602001838380828437600081840152601f19601f82011690508083019250505050505050611603565b915050919050565b606060018054610a6590612a3e565b80601f0160208091040260200160405190810160405280929190818152602001828054610a9190612a3e565b8015610ade5780601f10610ab357610100808354040283529160200191610ade565b820191906000526020600020905b815481529060010190602001808311610ac157829003601f168201915b5050505050905090565b610afa610af3610da4565b838361162a565b5050565b610b0f610b09610da4565b83610e65565b610b4e576040517f08c379a0000000000000000000000000000000000000000000000000000000008152600401610b4590612c05565b60405180910390fd5b610b5a84848484611796565b50505050565b6060610b6b826117f2565b9050919050565b610b7a6111f3565b6000610b85826109e4565b9050610b916008611242565b6000610b9d6008611258565b9050610ba98282611266565b610c0581848060000190610bbd9190612c8b565b8080601f016020809104026020016040519081016040528093929190818152602001838380828437600081840152601f19601f82011690508083019250505050505050611483565b807f2fdf319518046f7b4ebc04a5ca363b42da5e87f5e8150935b3e4ef1ee4509e1a83604051610c35919061252c565b60405180910390a25050610c476114f0565b50565b6000610c566008611258565b905090565b6000600560008473ffffffffffffffffffffffffffffffffffffffff1673ffffffffffffffffffffffffffffffffffffffff16815260200190815260200160002060008373ffffffffffffffffffffffffffffffffffffffff1673ffffffffffffffffffffffffffffffffffffffff16815260200190815260200160002060009054906101000a900460ff16905092915050565b60007f01ffc9a7000000000000000000000000000000000000000000000000000000007bffffffffffffffffffffffffffffffffffffffffffffffffffffffff1916827bffffffffffffffffffffffffffffffffffffffffffffffffffffffff1916149050919050565b610d6281611904565b610da1576040517f08c379a0000000000000000000000000000000000000000000000000000000008152600401610d9890612da5565b60405180910390fd5b50565b600033905090565b816004600083815260200190815260200160002060006101000a81548173ffffffffffffffffffffffffffffffffffffffff021916908373ffffffffffffffffffffffffffffffffffffffff160217905550808273ffffffffffffffffffffffffffffffffffffffff16610e1f83610884565b73ffffffffffffffffffffffffffffffffffffffff167f8c5be1e5ebec7d5bd14f71427d1e84f3dd0314c0f7b2291e5b200ac8c7c3b92560405160405180910390a45050565b600080610e7183610884565b90508073ffffffffffffffffffffffffffffffffffffffff168473ffffffffffffffffffffffffffffffffffffffff161480610eb35750610eb28185610c5b565b5b80610ef157508373ffffffffffffffffffffffffffffffffffffffff16610ed98461051b565b73ffffffffffffffffffffffffffffffffffffffff16145b91505092915050565b8273ffffffffffffffffffffffffffffffffffffffff16610f1a82610884565b73ffffffffffffffffffffffffffffffffffffffff1614610f70576040517f08c379a0000000000000000000000000000000000000000000000000000000008152600401610f6790612f2c565b60405180910390fd5b600073ffffffffffffffffffffffffffffffffffffffff168273ffffffffffffffffffffffffffffffffffffffff1603610fdf576040517f08c379a0000000000000000000000000000000000000000000000000000000008152600401610fd690612fbe565b60405180910390fd5b610fec8383836001611945565b8273ffffffffffffffffffffffffffffffffffffffff1661100c82610884565b73ffffffffffffffffffffffffffffffffffffffff1614611062576040517f08c379a000000000000000000000000000000000000000000000000000000000815260040161105990612f2c565b60405180910390fd5b6004600082815260200190815260200160002060006101000a81549073ffffffffffffffffffffffffffffffffffffffff02191690556001600360008573ffffffffffffffffffffffffffffffffffffffff1673ffffffffffffffffffffffffffffffffffffffff168152602001908152602001600020600082825403925050819055506001600360008473ffffffffffffffffffffffffffffffffffffffff1673ffffffffffffffffffffffffffffffffffffffff16815260200190815260200160002060008282540192505081905550816002600083815260200190815260200160002060006101000a81548173ffffffffffffffffffffffffffffffffffffffff021916908373ffffffffffffffffffffffffffffffffffffffff160217905550808273ffffffffffffffffffffffffffffffffffffffff168473ffffffffffffffffffffffffffffffffffffffff167fddf252ad1be2c89b69c2b068fc378daa952ba7f163c4a11628f55a4df523b3ef60405160405180910390a46111ee8383836001611a6b565b505050565b600260075403611238576040517f08c379a000000000000000000000000000000000000000000000000000000000815260040161122f9061302a565b60405180910390fd5b6002600781905550565b6001816000016000828254019250508190555050565b600081600001549050919050565b600073ffffffffffffffffffffffffffffffffffffffff168273ffffffffffffffffffffffffffffffffffffffff16036112d5576040517f08c379a00000000000000000000000000000000000000000000000000000000081526004016112cc90613096565b60405180910390fd5b6112de81611904565b1561131e576040517f08c379a000000000000000000000000000000000000000000000000000000000815260040161131590613102565b60405180910390fd5b61132c600083836001611945565b61133581611904565b15611375576040517f08c379a000000000000000000000000000000000000000000000000000000000815260040161136c90613102565b60405180910390fd5b6001600360008473ffffffffffffffffffffffffffffffffffffffff1673ffffffffffffffffffffffffffffffffffffffff16815260200190815260200160002060008282540192505081905550816002600083815260200190815260200160002060006101000a81548173ffffffffffffffffffffffffffffffffffffffff021916908373ffffffffffffffffffffffffffffffffffffffff160217905550808273ffffffffffffffffffffffffffffffffffffffff16600073ffffffffffffffffffffffffffffffffffffffff167fddf252ad1be2c89b69c2b068fc378daa952ba7f163c4a11628f55a4df523b3ef60405160405180910390a461147f600083836001611a6b565b5050565b61148c82611904565b6114cb576040517f08c379a00000000000000000000000000000000000000000000000000000000081526004016114c290613194565b60405180910390fd5b806006600084815260200190815260200160002090816114eb9190613360565b505050565b6001600781905550565b60006002600083815260200190815260200160002060009054906101000a900473ffffffffffffffffffffffffffffffffffffffff169050919050565b60006115fc7e5165dbde6c98ff3dd217e399994c50c9b2dcb0e924050ef97159c4f0f162a683806000019061156c9190612c8b565b60405161157a929190613462565b60405180910390208480602001906115929190612e57565b6040516115a0929190613462565b60405180910390208580604001906115b89190612e57565b6040516115c6929190613462565b60405180910390206040516020016115e1949392919061347b565b60405160208183030381529060405280519060200120611a7d565b9050919050565b60008060006116128585611a97565b9150915061161f81611ae8565b819250505092915050565b8173ffffffffffffffffffffffffffffffffffffffff168373ffffffffffffffffffffffffffffffffffffffff1603611698576040517f08c379a000000000000000000000000000000000000000000000000000000000815260040161168f9061350c565b60405180910390fd5b80600560008573ffffffffffffffffffffffffffffffffffffffff1673ffffffffffffffffffffffffffffffffffffffff16815260200190815260200160002060008473ffffffffffffffffffffffffffffffffffffffff1673ffffffffffffffffffffffffffffffffffffffff16815260200190815260200160002060006101000a81548160ff0219169083151502179055508173ffffffffffffffffffffffffffffffffffffffff168373ffffffffffffffffffffffffffffffffffffffff167f17307eab39ab6107e8899845ad3d59bd9653f200f220920489ca2b5937696c318360405161178991906123bb565b60405180910390a3505050565b6117a1848484610efa565b6117ad84848484611c4e565b6117ec576040517f08c379a00000000000000000000000000000000000000000000000000000000081526004016117e39061359e565b60405180910390fd5b50505050565b60606117fd82610d59565b600060066000848152602001908152602001600020805461181d90612a3e565b80601f016020809104026020016040519081016040528092919081815260200182805461184990612a3e565b80156118965780601f1061186b57610100808354040283529160200191611896565b820191906000526020600020905b81548152906001019060200180831161187957829003601f168201915b5050505050905060006118a7611dd5565b905060008151036118bc5781925050506118ff565b6000825111156118f15780826040516020016118d99291906135fa565b604051602081830303815290604052925050506118ff565b6118fa84611dec565b925050505b919050565b60008073ffffffffffffffffffffffffffffffffffffffff16611926836114fa565b73ffffffffffffffffffffffffffffffffffffffff1614159050919050565b6001811115611a6557600073ffffffffffffffffffffffffffffffffffffffff168473ffffffffffffffffffffffffffffffffffffffff16146119d95780600360008673ffffffffffffffffffffffffffffffffffffffff1673ffffffffffffffffffffffffffffffffffffffff16815260200190815260200160002060008282546119d1919061361e565b925050819055505b600073ffffffffffffffffffffffffffffffffffffffff168373ffffffffffffffffffffffffffffffffffffffff1614611a645780600360008573ffffffffffffffffffffffffffffffffffffffff1673ffffffffffffffffffffffffffffffffffffffff1681526020019081526020016000206000828254611a5c9190613652565b925050819055505b5b50505050565b611a7784848484611e54565b50505050565b6000611a90611a8a611e5a565b83611f74565b9050919050565b6000806041835103611ad85760008060006020860151925060408601519150606086015160001a9050611acc87828585611fa7565b94509450505050611ae1565b60006002915091505b9250929050565b60006004811115611afc57611afb613686565b5b816004811115611b0f57611b0e613686565b5b0315611c4b5760016004811115611b2957611b28613686565b5b816004811115611b3c57611b3b613686565b5b03611b7c576040517f08c379a0000000000000000000000000000000000000000000000000000000008152600401611b7390613701565b60405180910390fd5b60026004811115611b9057611b8f613686565b5b816004811115611ba357611ba2613686565b5b03611be3576040517f08c379a0000000000000000000000000000000000000000000000000000000008152600401611bda9061376d565b60405180910390fd5b60036004811115611bf757611bf6613686565b5b816004811115611c0a57611c09613686565b5b03611c4a576040517f08c379a0000000000000000000000000000000000000000000000000000000008152600401611c41906137ff565b60405180910390fd5b5b50565b6000611c6f8473ffffffffffffffffffffffffffffffffffffffff16612089565b15611dc8578373ffffffffffffffffffffffffffffffffffffffff1663150b7a02611c98610da4565b8786866040518563ffffffff1660e01b8152600401611cba9493929190613874565b6020604051808303816000875af1925050508015611cf657506040513d601f19601f82011682018060405250810190611cf391906138d5565b60015b611d78573d8060008114611d26576040519150601f19603f3d011682016040523d82523d6000602084013e611d2b565b606091505b506000815103611d70576040517f08c379a0000000000000000000000000000000000000000000000000000000008152600401611d679061359e565b60405180910390fd5b805181602001fd5b63150b7a0260e01b7bffffffffffffffffffffffffffffffffffffffffffffffffffffffff1916817bffffffffffffffffffffffffffffffffffffffffffffffffffffffff191614915050611dcd565b600190505b949350505050565b606060405180602001604052806000815250905090565b6060611df782610d59565b6000611e01611dd5565b90506000815111611e215760405180602001604052806000815250611e4c565b80611e2b846120ac565b604051602001611e3c9291906135fa565b6040516020818303038152906040525b915050919050565b50505050565b60007f000000000000000000000000000000000000000000000000000000000000000073ffffffffffffffffffffffffffffffffffffffff163073ffffffffffffffffffffffffffffffffffffffff16148015611ed657507f000000000000000000000000000000000000000000000000000000000000000046145b15611f03577f00000000000000000000000000000000000000000000000000000000000000009050611f71565b611f6e7f00000000000000000000000000000000000000000000000000000000000000007f00000000000000000000000000000000000000000000000000000000000000007f000000000000000000000000000000000000000000000000000000000000000061217a565b90505b90565b60008282604051602001611f8992919061396f565b60405160208183030381529060405280519060200120905092915050565b6000807f7fffffffffffffffffffffffffffffff5d576e7357a4501ddfe92f46681b20a08360001c1115611fe2576000600391509150612080565b60006001878787876040516000815260200160405260405161200794939291906139c2565b6020604051602081039080840390855afa158015612029573d6000803e3d6000fd5b505050602060405103519050600073ffffffffffffffffffffffffffffffffffffffff168173ffffffffffffffffffffffffffffffffffffffff160361207757600060019250925050612080565b80600092509250505b94509492505050565b6000808273ffffffffffffffffffffffffffffffffffffffff163b119050919050565b6060600060016120bb846121b4565b01905060008167ffffffffffffffff8111156120da576120d9612821565b5b6040519080825280601f01601f19166020018201604052801561210c5781602001600182028036833780820191505090505b509050600082602001820190505b60011561216f578080600190039150507f3031323334353637383961626364656600000000000000000000000000000000600a86061a8153600a858161216357612162613a07565b5b0494506000850361211a575b819350505050919050565b60008383834630604051602001612195959493929190613a36565b6040516020818303038152906040528051906020012090509392505050565b600080600090507a184f03e93ff9f4daa797ed6e38ed64bf6a1f0100000000000000008310612212577a184f03e93ff9f4daa797ed6e38ed64bf6a1f010000000000000000838161220857612207613a07565b5b0492506040810190505b6d04ee2d6d415b85acef8100000000831061224f576d04ee2d6d415b85acef8100000000838161224557612244613a07565b5b0492506020810190505b662386f26fc10000831061227e57662386f26fc10000838161227457612273613a07565b5b0492506010810190505b6305f5e10083106122a7576305f5e100838161229d5761229c613a07565b5b0492506008810190505b61271083106122cc5761271083816122c2576122c1613a07565b5b0492506004810190505b606483106122ef57606483816122e5576122e4613a07565b5b0492506002810190505b600a83106122fe576001810190505b80915050919050565b6000604051905090565b600080fd5b600080fd5b60007fffffffff0000000000000000000000000000000000000000000000000000000082169050919050565b6123508161231b565b811461235b57600080fd5b50565b60008135905061236d81612347565b92915050565b60006020828403121561238957612388612311565b5b60006123978482850161235e565b91505092915050565b60008115159050919050565b6123b5816123a0565b82525050565b60006020820190506123d060008301846123ac565b92915050565b600081519050919050565b600082825260208201905092915050565b60005b838110156124105780820151818401526020810190506123f5565b60008484015250505050565b6000601f19601f8301169050919050565b6000612438826123d6565b61244281856123e1565b93506124528185602086016123f2565b61245b8161241c565b840191505092915050565b60006020820190508181036000830152612480818461242d565b905092915050565b6000819050919050565b61249b81612488565b81146124a657600080fd5b50565b6000813590506124b881612492565b92915050565b6000602082840312156124d4576124d3612311565b5b60006124e2848285016124a9565b91505092915050565b600073ffffffffffffffffffffffffffffffffffffffff82169050919050565b6000612516826124eb565b9050919050565b6125268161250b565b82525050565b6000602082019050612541600083018461251d565b92915050565b6125508161250b565b811461255b57600080fd5b50565b60008135905061256d81612547565b92915050565b6000806040838503121561258a57612589612311565b5b60006125988582860161255e565b92505060206125a9858286016124a9565b9150509250929050565b6000806000606084860312156125cc576125cb612311565b5b60006125da8682870161255e565b93505060206125eb8682870161255e565b92505060406125fc868287016124a9565b9150509250925092565b600080fd5b600080fd5b600080fd5b60008083601f84011261262b5761262a612606565b5b8235905067ffffffffffffffff8111156126485761264761260b565b5b60208301915083602082028301111561266457612663612610565b5b9250929050565b6000806020838503121561268257612681612311565b5b600083013567ffffffffffffffff8111156126a05761269f612316565b5b6126ac85828601612615565b92509250509250929050565b6000602082840312156126ce576126cd612311565b5b60006126dc8482850161255e565b91505092915050565b6126ee81612488565b82525050565b600060208201905061270960008301846126e5565b92915050565b6000819050919050565b6127228161270f565b82525050565b600060208201905061273d6000830184612719565b92915050565b600080fd5b60006080828403121561275e5761275d612743565b5b81905092915050565b60006020828403121561277d5761277c612311565b5b600082013567ffffffffffffffff81111561279b5761279a612316565b5b6127a784828501612748565b91505092915050565b6127b9816123a0565b81146127c457600080fd5b50565b6000813590506127d6816127b0565b92915050565b600080604083850312156127f3576127f2612311565b5b60006128018582860161255e565b9250506020612812858286016127c7565b9150509250929050565b600080fd5b7f4e487b7100000000000000000000000000000000000000000000000000000000600052604160045260246000fd5b6128598261241c565b810181811067ffffffffffffffff8211171561287857612877612821565b5b80604052505050565b600061288b612307565b90506128978282612850565b919050565b600067ffffffffffffffff8211156128b7576128b6612821565b5b6128c08261241c565b9050602081019050919050565b82818337600083830152505050565b60006128ef6128ea8461289c565b612881565b90508281526020810184848401111561290b5761290a61281c565b5b6129168482856128cd565b509392505050565b600082601f83011261293357612932612606565b5b81356129438482602086016128dc565b91505092915050565b6000806000806080858703121561296657612965612311565b5b60006129748782880161255e565b94505060206129858782880161255e565b9350506040612996878288016124a9565b925050606085013567ffffffffffffffff8111156129b7576129b6612316565b5b6129c38782880161291e565b91505092959194509250565b600080604083850312156129e6576129e5612311565b5b60006129f48582860161255e565b9250506020612a058582860161255e565b9150509250929050565b7f4e487b7100000000000000000000000000000000000000000000000000000000600052602260045260246000fd5b60006002820490506001821680612a5657607f821691505b602082108103612a6957612a68612a0f565b5b50919050565b7f4552433732313a20617070726f76616c20746f2063757272656e74206f776e6560008201527f7200000000000000000000000000000000000000000000000000000000000000602082015250565b6000612acb6021836123e1565b9150612ad682612a6f565b604082019050919050565b60006020820190508181036000830152612afa81612abe565b9050919050565b7f4552433732313a20617070726f76652063616c6c6572206973206e6f7420746f60008201527f6b656e206f776e6572206f7220617070726f76656420666f7220616c6c000000602082015250565b6000612b5d603d836123e1565b9150612b6882612b01565b604082019050919050565b60006020820190508181036000830152612b8c81612b50565b9050919050565b7f4552433732313a2063616c6c6572206973206e6f7420746f6b656e206f776e6560008201527f72206f7220617070726f76656400000000000000000000000000000000000000602082015250565b6000612bef602d836123e1565b9150612bfa82612b93565b604082019050919050565b60006020820190508181036000830152612c1e81612be2565b9050919050565b7f4e487b7100000000000000000000000000000000000000000000000000000000600052603260045260246000fd5b600080fd5b600080fd5b600080fd5b600082356001608003833603038112612c7f57612c7e612c54565b5b80830191505092915050565b60008083356001602003843603038112612ca857612ca7612c54565b5b80840192508235915067ffffffffffffffff821115612cca57612cc9612c59565b5b602083019250600182023603831315612ce657612ce5612c5e565b5b509250929050565b7f4e487b7100000000000000000000000000000000000000000000000000000000600052601160045260246000fd5b600063ffffffff82169050919050565b6000612d3882612d1d565b915063ffffffff8203612d4e57612d4d612cee565b5b600182019050919050565b7f4552433732313a20696e76616c696420746f6b656e2049440000000000000000600082015250565b6000612d8f6018836123e1565b9150612d9a82612d59565b602082019050919050565b60006020820190508181036000830152612dbe81612d82565b9050919050565b7f4552433732313a2061646472657373207a65726f206973206e6f74206120766160008201527f6c6964206f776e65720000000000000000000000000000000000000000000000602082015250565b6000612e216029836123e1565b9150612e2c82612dc5565b604082019050919050565b60006020820190508181036000830152612e5081612e14565b9050919050565b60008083356001602003843603038112612e7457612e73612c54565b5b80840192508235915067ffffffffffffffff821115612e9657612e95612c59565b5b602083019250600182023603831315612eb257612eb1612c5e565b5b509250929050565b7f4552433732313a207472616e736665722066726f6d20696e636f72726563742060008201527f6f776e6572000000000000000000000000000000000000000000000000000000602082015250565b6000612f166025836123e1565b9150612f2182612eba565b604082019050919050565b60006020820190508181036000830152612f4581612f09565b9050919050565b7f4552433732313a207472616e7366657220746f20746865207a65726f2061646460008201527f7265737300000000000000000000000000000000000000000000000000000000602082015250565b6000612fa86024836123e1565b9150612fb382612f4c565b604082019050919050565b60006020820190508181036000830152612fd781612f9b565b9050919050565b7f5265656e7472616e637947756172643a207265656e7472616e742063616c6c00600082015250565b6000613014601f836123e1565b915061301f82612fde565b602082019050919050565b6000602082019050818103600083015261304381613007565b9050919050565b7f4552433732313a206d696e7420746f20746865207a65726f2061646472657373600082015250565b60006130806020836123e1565b915061308b8261304a565b602082019050919050565b600060208201905081810360008301526130af81613073565b9050919050565b7f4552433732313a20746f6b656e20616c7265616479206d696e74656400000000600082015250565b60006130ec601c836123e1565b91506130f7826130b6565b602082019050919050565b6000602082019050818103600083015261311b816130df565b9050919050565b7f45524337323155524953746f726167653a2055524920736574206f66206e6f6e60008201527f6578697374656e7420746f6b656e000000000000000000000000000000000000602082015250565b600061317e602e836123e1565b915061318982613122565b604082019050919050565b600060208201905081810360008301526131ad81613171565b9050919050565b60008190508160005260206000209050919050565b60006020601f8301049050919050565b600082821b905092915050565b6000600883026132167fffffffffffffffffffffffffffffffffffffffffffffffffffffffffffffffff826131d9565b61322086836131d9565b95508019841693508086168417925050509392505050565b6000819050919050565b600061325d61325861325384612488565b613238565b612488565b9050919050565b6000819050919050565b61327783613242565b61328b61328382613264565b8484546131e6565b825550505050565b600090565b6132a0613293565b6132ab81848461326e565b505050565b5b818110156132cf576132c4600082613298565b6001810190506132b1565b5050565b601f821115613314576132e5816131b4565b6132ee846131c9565b810160208510156132fd578190505b613311613309856131c9565b8301826132b0565b50505b505050565b600082821c905092915050565b600061333760001984600802613319565b1980831691505092915050565b60006133508383613326565b9150826002028217905092915050565b613369826123d6565b67ffffffffffffffff81111561338257613381612821565b5b61338c8254612a3e565b6133978282856132d3565b600060209050601f8311600181146133ca57600084156133b8578287015190505b6133c28582613344565b86555061342a565b601f1984166133d8866131b4565b60005b82811015613400578489015182556001820191506020850194506020810190506133db565b8683101561341d5784890151613419601f891682613326565b8355505b6001600288020188555050505b505050505050565b600081905092915050565b60006134498385613432565b93506134568385846128cd565b82840190509392505050565b600061346f82848661343d565b91508190509392505050565b60006080820190506134906000830187612719565b61349d6020830186612719565b6134aa6040830185612719565b6134b76060830184612719565b95945050505050565b7f4552433732313a20617070726f766520746f2063616c6c657200000000000000600082015250565b60006134f66019836123e1565b9150613501826134c0565b602082019050919050565b60006020820190508181036000830152613525816134e9565b9050919050565b7f4552433732313a207472616e7366657220746f206e6f6e20455243373231526560008201527f63656976657220696d706c656d656e7465720000000000000000000000000000602082015250565b60006135886032836123e1565b91506135938261352c565b604082019050919050565b600060208201905081810360008301526135b78161357b565b9050919050565b600081905092915050565b60006135d4826123d6565b6135de81856135be565b93506135ee8185602086016123f2565b80840191505092915050565b600061360682856135c9565b915061361282846135c9565b91508190509392505050565b600061362982612488565b915061363483612488565b925082820390508181111561364c5761364b612cee565b5b92915050565b600061365d82612488565b915061366883612488565b92508282019050808211156136805761367f612cee565b5b92915050565b7f4e487b7100000000000000000000000000000000000000000000000000000000600052602160045260246000fd5b7f45434453413a20696e76616c6964207369676e61747572650000000000000000600082015250565b60006136eb6018836123e1565b91506136f6826136b5565b602082019050919050565b6000602082019050818103600083015261371a816136de565b9050919050565b7f45434453413a20696e76616c6964207369676e6174757265206c656e67746800600082015250565b6000613757601f836123e1565b915061376282613721565b602082019050919050565b600060208201905081810360008301526137868161374a565b9050919050565b7f45434453413a20696e76616c6964207369676e6174757265202773272076616c60008201527f7565000000000000000000000000000000000000000000000000000000000000602082015250565b60006137e96022836123e1565b91506137f48261378d565b604082019050919050565b60006020820190508181036000830152613818816137dc565b9050919050565b600081519050919050565b600082825260208201905092915050565b60006138468261381f565b613850818561382a565b93506138608185602086016123f2565b6138698161241c565b840191505092915050565b6000608082019050613889600083018761251d565b613896602083018661251d565b6138a360408301856126e5565b81810360608301526138b5818461383b565b905095945050505050565b6000815190506138cf81612347565b92915050565b6000602082840312156138eb576138ea612311565b5b60006138f9848285016138c0565b91505092915050565b7f1901000000000000000000000000000000000000000000000000000000000000600082015250565b60006139386002836135be565b915061394382613902565b600282019050919050565b6000819050919050565b6139696139648261270f565b61394e565b82525050565b600061397a8261392b565b91506139868285613958565b6020820191506139968284613958565b6020820191508190509392505050565b600060ff82169050919050565b6139bc816139a6565b82525050565b60006080820190506139d76000830187612719565b6139e460208301866139b3565b6139f16040830185612719565b6139fe6060830184612719565b95945050505050565b7f4e487b7100000000000000000000000000000000000000000000000000000000600052601260045260246000fd5b600060a082019050613a4b6000830188612719565b613a586020830187612719565b613a656040830186612719565b613a7260608301856126e5565b613a7f608083018461251d565b969550505050505056fea264697066735822122078a673665e6c115802201ed0d3acc76561c5e7bd1cc12e8f73f1a2aebbcbabd164736f6c63430008110033",
  "devdoc": {
    "kind": "dev",
    "methods": {
      "approve(address,uint256)": {
        "details": "See {IERC721-approve}."
      },
      "balanceOf(address)": {
        "details": "See {IERC721-balanceOf}."
      },
      "getApproved(uint256)": {
        "details": "See {IERC721-getApproved}."
      },
      "isApprovedForAll(address,address)": {
        "details": "See {IERC721-isApprovedForAll}."
      },
      "name()": {
        "details": "See {IERC721Metadata-name}."
      },
      "ownerOf(uint256)": {
        "details": "See {IERC721-ownerOf}."
      },
      "safeTransferFrom(address,address,uint256)": {
        "details": "See {IERC721-safeTransferFrom}."
      },
      "safeTransferFrom(address,address,uint256,bytes)": {
        "details": "See {IERC721-safeTransferFrom}."
      },
      "setApprovalForAll(address,bool)": {
        "details": "See {IERC721-setApprovalForAll}."
      },
      "supportsInterface(bytes4)": {
        "details": "See {IERC165-supportsInterface}."
      },
      "symbol()": {
        "details": "See {IERC721Metadata-symbol}."
      },
      "tokenURI(uint256)": {
        "details": "See {IERC721Metadata-tokenURI}."
      },
      "transferFrom(address,address,uint256)": {
        "details": "See {IERC721-transferFrom}."
      },
      "verifySignature((string,bytes,bytes,bytes))": {
        "details": "Will revert if the signature is invalid. Does not verify that the signer is authorized to mint NFTs.",
        "params": {
          "voucher": "An NFTVoucher describing an unminted NFT."
        }
      }
    },
    "version": 1
  },
  "userdoc": {
    "kind": "user",
    "methods": {
      "redeem((string,bytes,bytes,bytes)[])": {
        "notice": "Redeems an NFTVoucher for an actual NFT, creating it in the process."
      },
      "verifySignature((string,bytes,bytes,bytes))": {
        "notice": "Verifies the signature for a given NFTVoucher, returning the address of the signer."
      }
    },
    "version": 1
  },
  "storageLayout": {
    "storage": [
      {
        "astId": 79,
        "contract": "contracts/core/UserIdentityNFT.sol:UserIdentityNFT",
        "label": "_name",
        "offset": 0,
        "slot": "0",
        "type": "t_string_storage"
      },
      {
        "astId": 81,
        "contract": "contracts/core/UserIdentityNFT.sol:UserIdentityNFT",
        "label": "_symbol",
        "offset": 0,
        "slot": "1",
        "type": "t_string_storage"
      },
      {
        "astId": 85,
        "contract": "contracts/core/UserIdentityNFT.sol:UserIdentityNFT",
        "label": "_owners",
        "offset": 0,
        "slot": "2",
        "type": "t_mapping(t_uint256,t_address)"
      },
      {
        "astId": 89,
        "contract": "contracts/core/UserIdentityNFT.sol:UserIdentityNFT",
        "label": "_balances",
        "offset": 0,
        "slot": "3",
        "type": "t_mapping(t_address,t_uint256)"
      },
      {
        "astId": 93,
        "contract": "contracts/core/UserIdentityNFT.sol:UserIdentityNFT",
        "label": "_tokenApprovals",
        "offset": 0,
        "slot": "4",
        "type": "t_mapping(t_uint256,t_address)"
      },
      {
        "astId": 99,
        "contract": "contracts/core/UserIdentityNFT.sol:UserIdentityNFT",
        "label": "_operatorApprovals",
        "offset": 0,
        "slot": "5",
        "type": "t_mapping(t_address,t_mapping(t_address,t_bool))"
      },
      {
        "astId": 1145,
        "contract": "contracts/core/UserIdentityNFT.sol:UserIdentityNFT",
        "label": "_tokenURIs",
        "offset": 0,
        "slot": "6",
        "type": "t_mapping(t_uint256,t_string_storage)"
      },
      {
        "astId": 10,
        "contract": "contracts/core/UserIdentityNFT.sol:UserIdentityNFT",
        "label": "_status",
        "offset": 0,
        "slot": "7",
        "type": "t_uint256"
      },
      {
        "astId": 3330,
        "contract": "contracts/core/UserIdentityNFT.sol:UserIdentityNFT",
        "label": "idCount",
        "offset": 0,
        "slot": "8",
        "type": "t_struct(Counter)1642_storage"
      },
      {
        "astId": 3332,
        "contract": "contracts/core/UserIdentityNFT.sol:UserIdentityNFT",
        "label": "figureprintOracle",
        "offset": 0,
        "slot": "9",
        "type": "t_address"
      }
    ],
    "types": {
      "t_address": {
        "encoding": "inplace",
        "label": "address",
        "numberOfBytes": "20"
      },
      "t_bool": {
        "encoding": "inplace",
        "label": "bool",
        "numberOfBytes": "1"
      },
      "t_mapping(t_address,t_bool)": {
        "encoding": "mapping",
        "key": "t_address",
        "label": "mapping(address => bool)",
        "numberOfBytes": "32",
        "value": "t_bool"
      },
      "t_mapping(t_address,t_mapping(t_address,t_bool))": {
        "encoding": "mapping",
        "key": "t_address",
        "label": "mapping(address => mapping(address => bool))",
        "numberOfBytes": "32",
        "value": "t_mapping(t_address,t_bool)"
      },
      "t_mapping(t_address,t_uint256)": {
        "encoding": "mapping",
        "key": "t_address",
        "label": "mapping(address => uint256)",
        "numberOfBytes": "32",
        "value": "t_uint256"
      },
      "t_mapping(t_uint256,t_address)": {
        "encoding": "mapping",
        "key": "t_uint256",
        "label": "mapping(uint256 => address)",
        "numberOfBytes": "32",
        "value": "t_address"
      },
      "t_mapping(t_uint256,t_string_storage)": {
        "encoding": "mapping",
        "key": "t_uint256",
        "label": "mapping(uint256 => string)",
        "numberOfBytes": "32",
        "value": "t_string_storage"
      },
      "t_string_storage": {
        "encoding": "bytes",
        "label": "string",
        "numberOfBytes": "32"
      },
      "t_struct(Counter)1642_storage": {
        "encoding": "inplace",
        "label": "struct Counters.Counter",
        "members": [
          {
            "astId": 1641,
            "contract": "contracts/core/UserIdentityNFT.sol:UserIdentityNFT",
            "label": "_value",
            "offset": 0,
            "slot": "0",
            "type": "t_uint256"
          }
        ],
        "numberOfBytes": "32"
      },
      "t_uint256": {
        "encoding": "inplace",
        "label": "uint256",
        "numberOfBytes": "32"
      }
    }
  }
}